{
  "_format": "hh-sol-artifact-1",
  "contractName": "TimedOutChallengeManager",
  "sourceName": "src/mocks/TimedOutChallengeManager.sol",
  "abi": [
    {
      "inputs": [
        {
          "internalType": "address",
          "name": "sender",
          "type": "address"
        },
        {
          "internalType": "address",
          "name": "owner",
          "type": "address"
        }
      ],
      "name": "NotOwner",
      "type": "error"
    },
    {
      "anonymous": false,
      "inputs": [
        {
          "indexed": true,
          "internalType": "uint64",
          "name": "challengeIndex",
          "type": "uint64"
        },
        {
          "indexed": true,
          "internalType": "bytes32",
          "name": "challengeRoot",
          "type": "bytes32"
        },
        {
          "indexed": false,
          "internalType": "uint256",
          "name": "challengedSegmentStart",
          "type": "uint256"
        },
        {
          "indexed": false,
          "internalType": "uint256",
          "name": "challengedSegmentLength",
          "type": "uint256"
        },
        {
          "indexed": false,
          "internalType": "bytes32[]",
          "name": "chainHashes",
          "type": "bytes32[]"
        }
      ],
      "name": "Bisected",
      "type": "event"
    },
    {
      "anonymous": false,
      "inputs": [
        {
          "indexed": true,
          "internalType": "uint64",
          "name": "challengeIndex",
          "type": "uint64"
        },
        {
          "indexed": false,
          "internalType": "enum IChallengeManager.ChallengeTerminationType",
          "name": "kind",
          "type": "uint8"
        }
      ],
      "name": "ChallengeEnded",
      "type": "event"
    },
    {
      "anonymous": false,
      "inputs": [
        {
          "indexed": true,
          "internalType": "uint64",
          "name": "challengeIndex",
          "type": "uint64"
        },
        {
          "indexed": false,
          "internalType": "uint256",
          "name": "blockSteps",
          "type": "uint256"
        }
      ],
      "name": "ExecutionChallengeBegun",
      "type": "event"
    },
    {
      "anonymous": false,
      "inputs": [
        {
          "indexed": true,
          "internalType": "uint64",
          "name": "challengeIndex",
          "type": "uint64"
        },
        {
          "components": [
            {
              "internalType": "bytes32[2]",
              "name": "bytes32Vals",
              "type": "bytes32[2]"
            },
            {
              "internalType": "uint64[3]",
              "name": "u64Vals",
              "type": "uint64[3]"
            }
          ],
          "indexed": false,
          "internalType": "struct GlobalState",
          "name": "startState",
          "type": "tuple"
        },
        {
          "components": [
            {
              "internalType": "bytes32[2]",
              "name": "bytes32Vals",
              "type": "bytes32[2]"
            },
            {
              "internalType": "uint64[3]",
              "name": "u64Vals",
              "type": "uint64[3]"
            }
          ],
          "indexed": false,
          "internalType": "struct GlobalState",
          "name": "endState",
          "type": "tuple"
        }
      ],
      "name": "InitiatedChallenge",
      "type": "event"
    },
    {
      "anonymous": false,
      "inputs": [
        {
          "indexed": true,
          "internalType": "uint64",
          "name": "challengeIndex",
          "type": "uint64"
        }
      ],
      "name": "OneStepProofCompleted",
      "type": "event"
    },
    {
      "inputs": [
        {
          "internalType": "uint64",
          "name": "challengeIndex",
          "type": "uint64"
        },
        {
          "components": [
            {
              "internalType": "uint256",
              "name": "oldSegmentsStart",
              "type": "uint256"
            },
            {
              "internalType": "uint256",
              "name": "oldSegmentsLength",
              "type": "uint256"
            },
            {
              "internalType": "bytes32[]",
              "name": "oldSegments",
              "type": "bytes32[]"
            },
            {
              "internalType": "uint256",
              "name": "challengePosition",
              "type": "uint256"
            }
          ],
          "internalType": "struct ChallengeLib.SegmentSelection",
          "name": "selection",
          "type": "tuple"
        },
        {
          "internalType": "bytes32[]",
          "name": "newSegments",
          "type": "bytes32[]"
        }
      ],
      "name": "bisectExecution",
      "outputs": [],
      "stateMutability": "nonpayable",
      "type": "function"
    },
    {
      "inputs": [],
      "name": "bridge",
      "outputs": [
        {
          "internalType": "contract IBridge",
          "name": "",
          "type": "address"
        }
      ],
      "stateMutability": "view",
      "type": "function"
    },
    {
      "inputs": [
        {
          "internalType": "uint64",
          "name": "challengeIndex",
          "type": "uint64"
        },
        {
          "components": [
            {
              "internalType": "uint256",
              "name": "oldSegmentsStart",
              "type": "uint256"
            },
            {
              "internalType": "uint256",
              "name": "oldSegmentsLength",
              "type": "uint256"
            },
            {
              "internalType": "bytes32[]",
              "name": "oldSegments",
              "type": "bytes32[]"
            },
            {
              "internalType": "uint256",
              "name": "challengePosition",
              "type": "uint256"
            }
          ],
          "internalType": "struct ChallengeLib.SegmentSelection",
          "name": "selection",
          "type": "tuple"
        },
        {
          "internalType": "enum MachineStatus[2]",
          "name": "machineStatuses",
          "type": "uint8[2]"
        },
        {
          "internalType": "bytes32[2]",
          "name": "globalStateHashes",
          "type": "bytes32[2]"
        },
        {
          "internalType": "uint256",
          "name": "numSteps",
          "type": "uint256"
        }
      ],
      "name": "challengeExecution",
      "outputs": [],
      "stateMutability": "nonpayable",
      "type": "function"
    },
    {
      "inputs": [
        {
          "internalType": "uint64",
          "name": "challengeIndex",
          "type": "uint64"
        }
      ],
      "name": "challengeInfo",
      "outputs": [
        {
          "components": [
            {
              "components": [
                {
                  "internalType": "address",
                  "name": "addr",
                  "type": "address"
                },
                {
                  "internalType": "uint256",
                  "name": "timeLeft",
                  "type": "uint256"
                }
              ],
              "internalType": "struct ChallengeLib.Participant",
              "name": "current",
              "type": "tuple"
            },
            {
              "components": [
                {
                  "internalType": "address",
                  "name": "addr",
                  "type": "address"
                },
                {
                  "internalType": "uint256",
                  "name": "timeLeft",
                  "type": "uint256"
                }
              ],
              "internalType": "struct ChallengeLib.Participant",
              "name": "next",
              "type": "tuple"
            },
            {
              "internalType": "uint256",
              "name": "lastMoveTimestamp",
              "type": "uint256"
            },
            {
              "internalType": "bytes32",
              "name": "wasmModuleRoot",
              "type": "bytes32"
            },
            {
              "internalType": "bytes32",
              "name": "challengeStateHash",
              "type": "bytes32"
            },
            {
              "internalType": "uint64",
              "name": "maxInboxMessages",
              "type": "uint64"
            },
            {
              "internalType": "enum ChallengeLib.ChallengeMode",
              "name": "mode",
              "type": "uint8"
            }
          ],
          "internalType": "struct ChallengeLib.Challenge",
          "name": "",
          "type": "tuple"
        }
      ],
      "stateMutability": "view",
      "type": "function"
    },
    {
      "inputs": [
        {
          "internalType": "uint256",
          "name": "",
          "type": "uint256"
        }
      ],
      "name": "challenges",
      "outputs": [
        {
          "components": [
            {
              "internalType": "address",
              "name": "addr",
              "type": "address"
            },
            {
              "internalType": "uint256",
              "name": "timeLeft",
              "type": "uint256"
            }
          ],
          "internalType": "struct ChallengeLib.Participant",
          "name": "current",
          "type": "tuple"
        },
        {
          "components": [
            {
              "internalType": "address",
              "name": "addr",
              "type": "address"
            },
            {
              "internalType": "uint256",
              "name": "timeLeft",
              "type": "uint256"
            }
          ],
          "internalType": "struct ChallengeLib.Participant",
          "name": "next",
          "type": "tuple"
        },
        {
          "internalType": "uint256",
          "name": "lastMoveTimestamp",
          "type": "uint256"
        },
        {
          "internalType": "bytes32",
          "name": "wasmModuleRoot",
          "type": "bytes32"
        },
        {
          "internalType": "bytes32",
          "name": "challengeStateHash",
          "type": "bytes32"
        },
        {
          "internalType": "uint64",
          "name": "maxInboxMessages",
          "type": "uint64"
        },
        {
          "internalType": "enum ChallengeLib.ChallengeMode",
          "name": "mode",
          "type": "uint8"
        }
      ],
      "stateMutability": "view",
      "type": "function"
    },
    {
      "inputs": [
        {
          "internalType": "uint64",
          "name": "challengeIndex",
          "type": "uint64"
        }
      ],
      "name": "clearChallenge",
      "outputs": [],
      "stateMutability": "nonpayable",
      "type": "function"
    },
    {
      "inputs": [
        {
          "internalType": "bytes32",
          "name": "wasmModuleRoot_",
          "type": "bytes32"
        },
        {
          "internalType": "enum MachineStatus[2]",
          "name": "startAndEndMachineStatuses_",
          "type": "uint8[2]"
        },
        {
          "components": [
            {
              "internalType": "bytes32[2]",
              "name": "bytes32Vals",
              "type": "bytes32[2]"
            },
            {
              "internalType": "uint64[3]",
              "name": "u64Vals",
              "type": "uint64[3]"
            }
          ],
          "internalType": "struct GlobalState[2]",
          "name": "startAndEndGlobalStates_",
          "type": "tuple[2]"
        },
        {
          "internalType": "uint64",
          "name": "numBlocks",
          "type": "uint64"
        },
        {
          "internalType": "address",
          "name": "asserter_",
          "type": "address"
        },
        {
          "internalType": "address",
          "name": "challenger_",
          "type": "address"
        },
        {
          "internalType": "uint256",
          "name": "asserterTimeLeft_",
          "type": "uint256"
        },
        {
          "internalType": "uint256",
          "name": "challengerTimeLeft_",
          "type": "uint256"
        }
      ],
      "name": "createChallenge",
      "outputs": [
        {
          "internalType": "uint64",
          "name": "",
          "type": "uint64"
        }
      ],
      "stateMutability": "nonpayable",
      "type": "function"
    },
    {
      "inputs": [
        {
          "internalType": "uint64",
          "name": "challengeIndex",
          "type": "uint64"
        }
      ],
      "name": "currentResponder",
      "outputs": [
        {
          "internalType": "address",
          "name": "",
          "type": "address"
        }
      ],
      "stateMutability": "view",
      "type": "function"
    },
    {
      "inputs": [
        {
          "internalType": "bytes32",
          "name": "wasmModuleRoot",
          "type": "bytes32"
        }
      ],
      "name": "getOsp",
      "outputs": [
        {
          "internalType": "contract IOneStepProofEntry",
          "name": "",
          "type": "address"
        }
      ],
      "stateMutability": "view",
      "type": "function"
    },
    {
      "inputs": [
        {
          "internalType": "contract IChallengeResultReceiver",
          "name": "resultReceiver_",
          "type": "address"
        },
        {
          "internalType": "contract ISequencerInbox",
          "name": "sequencerInbox_",
          "type": "address"
        },
        {
          "internalType": "contract IBridge",
          "name": "bridge_",
          "type": "address"
        },
        {
          "internalType": "contract IOneStepProofEntry",
          "name": "osp_",
          "type": "address"
        }
      ],
      "name": "initialize",
      "outputs": [],
      "stateMutability": "nonpayable",
      "type": "function"
    },
    {
      "inputs": [
        {
          "internalType": "uint64",
          "name": "",
          "type": "uint64"
        }
      ],
      "name": "isTimedOut",
      "outputs": [
        {
          "internalType": "bool",
          "name": "",
          "type": "bool"
        }
      ],
      "stateMutability": "pure",
      "type": "function"
    },
    {
      "inputs": [
        {
          "internalType": "uint64",
          "name": "challengeIndex",
          "type": "uint64"
        },
        {
          "components": [
            {
              "internalType": "uint256",
              "name": "oldSegmentsStart",
              "type": "uint256"
            },
            {
              "internalType": "uint256",
              "name": "oldSegmentsLength",
              "type": "uint256"
            },
            {
              "internalType": "bytes32[]",
              "name": "oldSegments",
              "type": "bytes32[]"
            },
            {
              "internalType": "uint256",
              "name": "challengePosition",
              "type": "uint256"
            }
          ],
          "internalType": "struct ChallengeLib.SegmentSelection",
          "name": "selection",
          "type": "tuple"
        },
        {
          "internalType": "bytes",
          "name": "proof",
          "type": "bytes"
        }
      ],
      "name": "oneStepProveExecution",
      "outputs": [],
      "stateMutability": "nonpayable",
      "type": "function"
    },
    {
      "inputs": [],
      "name": "osp",
      "outputs": [
        {
          "internalType": "contract IOneStepProofEntry",
          "name": "",
          "type": "address"
        }
      ],
      "stateMutability": "view",
      "type": "function"
    },
    {
      "inputs": [
        {
          "internalType": "bytes32",
          "name": "",
          "type": "bytes32"
        }
      ],
      "name": "ospCond",
      "outputs": [
        {
          "internalType": "contract IOneStepProofEntry",
          "name": "",
          "type": "address"
        }
      ],
      "stateMutability": "view",
      "type": "function"
    },
    {
      "inputs": [
        {
          "internalType": "contract IOneStepProofEntry",
          "name": "osp_",
          "type": "address"
        },
        {
          "internalType": "bytes32",
          "name": "condRoot",
          "type": "bytes32"
        },
        {
          "internalType": "contract IOneStepProofEntry",
          "name": "condOsp",
          "type": "address"
        }
      ],
      "name": "postUpgradeInit",
      "outputs": [],
      "stateMutability": "nonpayable",
      "type": "function"
    },
    {
      "inputs": [],
      "name": "resultReceiver",
      "outputs": [
        {
          "internalType": "contract IChallengeResultReceiver",
          "name": "",
          "type": "address"
        }
      ],
      "stateMutability": "view",
      "type": "function"
    },
    {
      "inputs": [],
      "name": "sequencerInbox",
      "outputs": [
        {
          "internalType": "contract ISequencerInbox",
          "name": "",
          "type": "address"
        }
      ],
      "stateMutability": "view",
      "type": "function"
    },
    {
      "inputs": [
        {
          "internalType": "uint64",
          "name": "challengeIndex",
          "type": "uint64"
        }
      ],
      "name": "timeout",
      "outputs": [],
      "stateMutability": "nonpayable",
      "type": "function"
    },
    {
      "inputs": [],
      "name": "totalChallengesCreated",
      "outputs": [
        {
          "internalType": "uint64",
          "name": "",
          "type": "uint64"
        }
      ],
      "stateMutability": "view",
      "type": "function"
    }
  ],
  "bytecode": "0x60a06040523060805234801561001457600080fd5b5060805161191e610037600039600081816104700152610bf3015261191e6000f3fe608060405234801561001057600080fd5b50600436106101115760003560e01c80639ede42b9116100ad578063e78cea9211610071578063e78cea921461031b578063ee35f3271461032e578063f26a62c614610341578063f8c8765e14610354578063fb7be0a11461036757600080fd5b80639ede42b9146102955780639f799f34146102b9578063a521b032146102cc578063d248d124146102df578063dc74bf8b146102f257600080fd5b80631b45c86a1461011657806323a9ef231461012b5780633504f1d71461015b5780633690b0111461016e5780635038934d1461018157806356e9df97146101945780635ef489e6146101a75780637fd07a9c146101d25780638f1d3776146101f2575b600080fd5b610129610124366004611103565b61037a565b005b61013e610139366004611103565b61040b565b6040516001600160a01b0390911681526020015b60405180910390f35b60025461013e906001600160a01b031681565b61013e61017c36600461111e565b61042f565b61012961018f36600461114c565b610465565b6101296101a2366004611103565b61054b565b6000546101ba906001600160401b031681565b6040516001600160401b039091168152602001610152565b6101e56101e0366004611103565b6106b9565b60405161015291906111d0565b61028261020036600461111e565b6001602081815260009283526040928390208351808501855281546001600160a01b0390811682529382015481840152845180860190955260028201549093168452600381015491840191909152600481015460058201546006830154600790930154939493919290916001600160401b03811690600160401b900460ff1687565b6040516101529796959493929190611242565b6102a96102a3366004611103565b50600190565b6040519015158152602001610152565b6101ba6102c736600461129e565b610792565b6101296102da366004611349565b610b15565b6101296102ed3660046113ed565b610bc0565b61013e61030036600461111e565b6006602052600090815260409020546001600160a01b031681565b60045461013e906001600160a01b031681565b60035461013e906001600160a01b031681565b60055461013e906001600160a01b031681565b61012961036236600461147f565b610be8565b6101296103753660046114db565b610d14565b60006001600160401b038216600090815260016020526040902060070154600160401b900460ff1660028111156103b3576103b36111a6565b1415604051806040016040528060078152602001661393d7d0d2105360ca1b815250906103fc5760405162461bcd60e51b81526004016103f39190611553565b60405180910390fd5b50610408816000610d3c565b50565b6001600160401b03166000908152600160205260409020546001600160a01b031690565b6000818152600660205260408120546001600160a01b03168061045f5750506005546001600160a01b0316919050565b92915050565b306001600160a01b037f00000000000000000000000000000000000000000000000000000000000000001614156104ae5760405162461bcd60e51b81526004016103f3906115a8565b7fb53127684a568b3173ae13b9f8a6016e243e63b6e8ee1178d6a717850b5d61038054336001600160a01b0382161461050b57604051631194af8760e11b81523360048201526001600160a01b03821660248201526044016103f3565b505060009182526006602052604090912080546001600160a01b039283166001600160a01b03199182161790915560058054939092169216919091179055565b6002546001600160a01b031633146105985760405162461bcd60e51b815260206004820152601060248201526f2727aa2fa922a9afa922a1a2a4ab22a960811b60448201526064016103f3565b60006001600160401b038216600090815260016020526040902060070154600160401b900460ff1660028111156105d1576105d16111a6565b1415604051806040016040528060078152602001661393d7d0d2105360ca1b815250906106115760405162461bcd60e51b81526004016103f39190611553565b506001600160401b038116600081815260016020819052604080832080546001600160a01b031990811682559281018490556002810180549093169092556003808301849055600483018490556005830184905560068301939093556007909101805468ffffffffffffffffff19169055517ffdaece6c274a4b56af16761f83fd6b1062823192630ea08e019fdf9b2d747f40916106ae91611604565b60405180910390a250565b6106c161107f565b6001600160401b0382811660009081526001602081815260409283902083516101208101855281546001600160a01b0390811660e0830190815294830154610100830152938152845180860186526002808401549095168152600383015481850152928101929092526004810154938201939093526005830154606082015260068301546080820152600783015493841660a08201529260c0840191600160401b90910460ff1690811115610778576107786111a6565b6002811115610789576107896111a6565b90525092915050565b6002546000906001600160a01b031633146107e25760405162461bcd60e51b815260206004820152601060248201526f13d3931657d493d313155417d0d2105360821b60448201526064016103f3565b6040805160028082526060820183526000926020830190803683370190505090506108b861081360208b018b611643565b6108b38a60005b60a0020180360381019061082e9190611700565b805180516020918201519282015180518184015160409283015183516c23b637b130b61039ba30ba329d60991b81880152602d810195909552604d8501969096526001600160c01b031960c092831b8116606d86015290821b8116607585015294901b909316607d820152825180820360650181526085909101909252815191012090565b610e6a565b816000815181106108cb576108cb61162d565b60209081029190910101526108fa8960016020020160208101906108ef9190611643565b6108b38a600161081a565b8160018151811061090d5761090d61162d565b60209081029190910101526000805481908190610932906001600160401b03166117ae565b91906101000a8154816001600160401b0302191690836001600160401b031602179055905060006001600160401b0316816001600160401b0316141561097a5761097a6117d5565b6001600160401b0381166000908152600160205260408120600581018d9055906109b46109af368d90038d0160a08e01611700565b610f8e565b905060026109c860408e0160208f01611643565b60038111156109d9576109d96111a6565b1480610a07575060006109fc6109f7368e90038e0160a08f01611700565b610fa3565b6001600160401b0316115b15610a1a5780610a16816117ae565b9150505b6007820180546040805180820182526001600160a01b038d811680835260209283018d90526002880180546001600160a01b03199081169092179055600388018d905583518085018552918e16808352919092018b90528654909116178555600185018990554260048601556001600160401b0384811668ffffffffffffffffff1990931692909217600160401b179092559051908416907fbd45603812043da961daff7b893ff7cb873fc942c47f9be32d90a245c8a6014790610ae4908e9060a0820190611835565b60405180910390a2610b028360008c6001600160401b031687610fb2565b5090925050505b98975050505050505050565b6001600160401b038416600090815260016020526040812085918591610b3a8461040b565b6001600160a01b0316336001600160a01b031614610b885760405162461bcd60e51b815260206004820152600b60248201526a21a420a62fa9a2a72222a960a91b60448201526064016103f3565b60405162461bcd60e51b815260206004820152600d60248201526c4348414c5f444541444c494e4560981b60448201526064016103f3565b6001600160401b038416600090815260016020526040902084908490600290610b3a8461040b565b306001600160a01b037f0000000000000000000000000000000000000000000000000000000000000000161415610c315760405162461bcd60e51b81526004016103f3906115a8565b6002546001600160a01b031615610c795760405162461bcd60e51b815260206004820152600c60248201526b1053149150511657d253925560a21b60448201526064016103f3565b6001600160a01b038416610cc45760405162461bcd60e51b81526020600482015260126024820152712727afa922a9aaa62a2fa922a1a2a4ab22a960711b60448201526064016103f3565b600280546001600160a01b039586166001600160a01b0319918216179091556003805494861694821694909417909355600480549285169284169290921790915560058054919093169116179055565b6001600160401b038516600090815260016020819052604090912086918691610b3a8461040b565b6001600160401b03821660008181526001602081905260408083206002808201805483546001600160a01b0319808216865596850188905595811690915560038301869055600480840187905560058401879055600684019690965560078301805468ffffffffffffffffff1916905590549251630357aa4960e01b8152948501959095526001600160a01b03948516602485018190529285166044850181905290949293909290911690630357aa4990606401600060405180830381600087803b158015610e0a57600080fd5b505af1158015610e1e573d6000803e3d6000fd5b50505050846001600160401b03167ffdaece6c274a4b56af16761f83fd6b1062823192630ea08e019fdf9b2d747f4085604051610e5b9190611604565b60405180910390a25050505050565b60006001836003811115610e8057610e806111a6565b1415610ec6576040516b213637b1b59039ba30ba329d60a11b6020820152602c8101839052604c015b60405160208183030381529060405280519060200120905061045f565b6002836003811115610eda57610eda6111a6565b1415610f105760405174213637b1b59039ba30ba32961032b93937b932b21d60591b602082015260358101839052605501610ea9565b6003836003811115610f2457610f246111a6565b1415610f535760405174213637b1b59039ba30ba3296103a37b7903330b91d60591b6020820152603501610ea9565b60405162461bcd60e51b815260206004820152601060248201526f4241445f424c4f434b5f53544154555360801b60448201526064016103f3565b6020810151600090815b602002015192915050565b60208101516000906001610f98565b6001821015610fc357610fc36117d5565b600281511015610fd557610fd56117d5565b6000610fe2848484611048565b6001600160401b038616600081815260016020526040908190206006018390555191925082917f86b34e9455464834eca718f62d4481437603bb929d8a78ccde5d1bc79fa06d689061103990889088908890611851565b60405180910390a35050505050565b600083838360405160200161105f939291906118a6565b6040516020818303038152906040528051906020012090505b9392505050565b604080516101208101909152600060e08201818152610100830191909152819081526020016110be604080518082019091526000808252602082015290565b815260006020820181905260408201819052606082018190526080820181905260a09091015290565b80356001600160401b03811681146110fe57600080fd5b919050565b60006020828403121561111557600080fd5b611078826110e7565b60006020828403121561113057600080fd5b5035919050565b6001600160a01b038116811461040857600080fd5b60008060006060848603121561116157600080fd5b833561116c81611137565b925060208401359150604084013561118381611137565b809150509250925092565b80516001600160a01b03168252602090810151910152565b634e487b7160e01b600052602160045260246000fd5b600381106111cc576111cc6111a6565b9052565b6000610120820190506111e482845161118e565b60208301516111f6604084018261118e565b5060408301516080830152606083015160a0830152608083015160c08301526001600160401b0360a08401511660e083015260c083015161123b6101008401826111bc565b5092915050565b6101208101611251828a61118e565b61125e604083018961118e565b8660808301528560a08301528460c08301526001600160401b03841660e0830152610b096101008301846111bc565b806040810183101561045f57600080fd5b600080600080600080600080610240898b0312156112bb57600080fd5b883597506112cc8a60208b0161128d565b96506101a089018a8111156112e057600080fd5b60608a0196506112ef816110e7565b9550506101c089013561130181611137565b93506101e089013561131281611137565b979a969950949793969295929450505061020082013591610220013590565b60006080828403121561134357600080fd5b50919050565b6000806000806060858703121561135f57600080fd5b611368856110e7565b935060208501356001600160401b038082111561138457600080fd5b61139088838901611331565b945060408701359150808211156113a657600080fd5b818701915087601f8301126113ba57600080fd5b8135818111156113c957600080fd5b8860208260051b85010111156113de57600080fd5b95989497505060200194505050565b6000806000806060858703121561140357600080fd5b61140c856110e7565b935060208501356001600160401b038082111561142857600080fd5b61143488838901611331565b9450604087013591508082111561144a57600080fd5b818701915087601f83011261145e57600080fd5b81358181111561146d57600080fd5b8860208285010111156113de57600080fd5b6000806000806080858703121561149557600080fd5b84356114a081611137565b935060208501356114b081611137565b925060408501356114c081611137565b915060608501356114d081611137565b939692955090935050565b600080600080600060e086880312156114f357600080fd5b6114fc866110e7565b945060208601356001600160401b0381111561151757600080fd5b61152388828901611331565b945050611533876040880161128d565b9250611542876080880161128d565b9497939650919460c0013592915050565b600060208083528351808285015260005b8181101561158057858101830151858201604001528201611564565b81811115611592576000604083870101525b50601f01601f1916929092016040019392505050565b6020808252602c908201527f46756e6374696f6e206d7573742062652063616c6c6564207468726f7567682060408201526b19195b1959d85d1958d85b1b60a21b606082015260800190565b60048110610408576104086111a6565b60208101611611836115f4565b91905290565b634e487b7160e01b600052604160045260246000fd5b634e487b7160e01b600052603260045260246000fd5b60006020828403121561165557600080fd5b81356004811061107857600080fd5b604080519081016001600160401b038111828210171561168657611686611617565b60405290565b600082601f83011261169d57600080fd5b604051606081018181106001600160401b03821117156116bf576116bf611617565b6040528060608401858111156116d457600080fd5b845b818110156116f5576116e7816110e7565b8352602092830192016116d6565b509195945050505050565b600060a0828403121561171257600080fd5b604051604081018181106001600160401b038211171561173457611734611617565b604052601f8301841361174657600080fd5b61174e611664565b80604085018681111561176057600080fd5b855b8181101561177a578035845260209384019301611762565b50818452611788878261168c565b6020850152509195945050505050565b634e487b7160e01b600052601160045260246000fd5b60006001600160401b03808316818114156117cb576117cb611798565b6001019392505050565b634e487b7160e01b600052600160045260246000fd5b604081833760006040838101828152908301915b600381101561182e576001600160401b03611819846110e7565b168252602092830192909101906001016117ff565b5050505050565b610140810161184482856117eb565b61107860a08301846117eb565b6000606082018583526020858185015260606040850152818551808452608086019150828701935060005b818110156118985784518352938301939183019160010161187c565b509098975050505050505050565b83815260006020848184015260408301845182860160005b828110156118da578151845292840192908401906001016118be565b50919897505050505050505056fea26469706673582212203e145743f3c8fba46adf8c0ed4471d4bc360b8195871456b723f2ce211868a9c64736f6c63430008090033",
  "linkReferences": {},
  "deployedLinkReferences": {}
}