{
  "_format": "hh-sol-artifact-1",
  "contractName": "ChallengeManager",
  "sourceName": "src/challenge/ChallengeManager.sol",
  "abi": [
    {
      "inputs": [
        {
          "internalType": "address",
          "name": "sender",
          "type": "address"
        },
        {
          "internalType": "address",
          "name": "owner",
          "type": "address"
        }
      ],
      "name": "NotOwner",
      "type": "error"
    },
    {
      "anonymous": false,
      "inputs": [
        {
          "indexed": true,
          "internalType": "uint64",
          "name": "challengeIndex",
          "type": "uint64"
        },
        {
          "indexed": true,
          "internalType": "bytes32",
          "name": "challengeRoot",
          "type": "bytes32"
        },
        {
          "indexed": false,
          "internalType": "uint256",
          "name": "challengedSegmentStart",
          "type": "uint256"
        },
        {
          "indexed": false,
          "internalType": "uint256",
          "name": "challengedSegmentLength",
          "type": "uint256"
        },
        {
          "indexed": false,
          "internalType": "bytes32[]",
          "name": "chainHashes",
          "type": "bytes32[]"
        }
      ],
      "name": "Bisected",
      "type": "event"
    },
    {
      "anonymous": false,
      "inputs": [
        {
          "indexed": true,
          "internalType": "uint64",
          "name": "challengeIndex",
          "type": "uint64"
        },
        {
          "indexed": false,
          "internalType": "enum IChallengeManager.ChallengeTerminationType",
          "name": "kind",
          "type": "uint8"
        }
      ],
      "name": "ChallengeEnded",
      "type": "event"
    },
    {
      "anonymous": false,
      "inputs": [
        {
          "indexed": true,
          "internalType": "uint64",
          "name": "challengeIndex",
          "type": "uint64"
        },
        {
          "indexed": false,
          "internalType": "uint256",
          "name": "blockSteps",
          "type": "uint256"
        }
      ],
      "name": "ExecutionChallengeBegun",
      "type": "event"
    },
    {
      "anonymous": false,
      "inputs": [
        {
          "indexed": true,
          "internalType": "uint64",
          "name": "challengeIndex",
          "type": "uint64"
        },
        {
          "components": [
            {
              "internalType": "bytes32[2]",
              "name": "bytes32Vals",
              "type": "bytes32[2]"
            },
            {
              "internalType": "uint64[3]",
              "name": "u64Vals",
              "type": "uint64[3]"
            }
          ],
          "indexed": false,
          "internalType": "struct GlobalState",
          "name": "startState",
          "type": "tuple"
        },
        {
          "components": [
            {
              "internalType": "bytes32[2]",
              "name": "bytes32Vals",
              "type": "bytes32[2]"
            },
            {
              "internalType": "uint64[3]",
              "name": "u64Vals",
              "type": "uint64[3]"
            }
          ],
          "indexed": false,
          "internalType": "struct GlobalState",
          "name": "endState",
          "type": "tuple"
        }
      ],
      "name": "InitiatedChallenge",
      "type": "event"
    },
    {
      "anonymous": false,
      "inputs": [
        {
          "indexed": true,
          "internalType": "uint64",
          "name": "challengeIndex",
          "type": "uint64"
        }
      ],
      "name": "OneStepProofCompleted",
      "type": "event"
    },
    {
      "inputs": [
        {
          "internalType": "uint64",
          "name": "challengeIndex",
          "type": "uint64"
        },
        {
          "components": [
            {
              "internalType": "uint256",
              "name": "oldSegmentsStart",
              "type": "uint256"
            },
            {
              "internalType": "uint256",
              "name": "oldSegmentsLength",
              "type": "uint256"
            },
            {
              "internalType": "bytes32[]",
              "name": "oldSegments",
              "type": "bytes32[]"
            },
            {
              "internalType": "uint256",
              "name": "challengePosition",
              "type": "uint256"
            }
          ],
          "internalType": "struct ChallengeLib.SegmentSelection",
          "name": "selection",
          "type": "tuple"
        },
        {
          "internalType": "bytes32[]",
          "name": "newSegments",
          "type": "bytes32[]"
        }
      ],
      "name": "bisectExecution",
      "outputs": [],
      "stateMutability": "nonpayable",
      "type": "function"
    },
    {
      "inputs": [],
      "name": "bridge",
      "outputs": [
        {
          "internalType": "contract IBridge",
          "name": "",
          "type": "address"
        }
      ],
      "stateMutability": "view",
      "type": "function"
    },
    {
      "inputs": [
        {
          "internalType": "uint64",
          "name": "challengeIndex",
          "type": "uint64"
        },
        {
          "components": [
            {
              "internalType": "uint256",
              "name": "oldSegmentsStart",
              "type": "uint256"
            },
            {
              "internalType": "uint256",
              "name": "oldSegmentsLength",
              "type": "uint256"
            },
            {
              "internalType": "bytes32[]",
              "name": "oldSegments",
              "type": "bytes32[]"
            },
            {
              "internalType": "uint256",
              "name": "challengePosition",
              "type": "uint256"
            }
          ],
          "internalType": "struct ChallengeLib.SegmentSelection",
          "name": "selection",
          "type": "tuple"
        },
        {
          "internalType": "enum MachineStatus[2]",
          "name": "machineStatuses",
          "type": "uint8[2]"
        },
        {
          "internalType": "bytes32[2]",
          "name": "globalStateHashes",
          "type": "bytes32[2]"
        },
        {
          "internalType": "uint256",
          "name": "numSteps",
          "type": "uint256"
        }
      ],
      "name": "challengeExecution",
      "outputs": [],
      "stateMutability": "nonpayable",
      "type": "function"
    },
    {
      "inputs": [
        {
          "internalType": "uint64",
          "name": "challengeIndex",
          "type": "uint64"
        }
      ],
      "name": "challengeInfo",
      "outputs": [
        {
          "components": [
            {
              "components": [
                {
                  "internalType": "address",
                  "name": "addr",
                  "type": "address"
                },
                {
                  "internalType": "uint256",
                  "name": "timeLeft",
                  "type": "uint256"
                }
              ],
              "internalType": "struct ChallengeLib.Participant",
              "name": "current",
              "type": "tuple"
            },
            {
              "components": [
                {
                  "internalType": "address",
                  "name": "addr",
                  "type": "address"
                },
                {
                  "internalType": "uint256",
                  "name": "timeLeft",
                  "type": "uint256"
                }
              ],
              "internalType": "struct ChallengeLib.Participant",
              "name": "next",
              "type": "tuple"
            },
            {
              "internalType": "uint256",
              "name": "lastMoveTimestamp",
              "type": "uint256"
            },
            {
              "internalType": "bytes32",
              "name": "wasmModuleRoot",
              "type": "bytes32"
            },
            {
              "internalType": "bytes32",
              "name": "challengeStateHash",
              "type": "bytes32"
            },
            {
              "internalType": "uint64",
              "name": "maxInboxMessages",
              "type": "uint64"
            },
            {
              "internalType": "enum ChallengeLib.ChallengeMode",
              "name": "mode",
              "type": "uint8"
            }
          ],
          "internalType": "struct ChallengeLib.Challenge",
          "name": "",
          "type": "tuple"
        }
      ],
      "stateMutability": "view",
      "type": "function"
    },
    {
      "inputs": [
        {
          "internalType": "uint256",
          "name": "",
          "type": "uint256"
        }
      ],
      "name": "challenges",
      "outputs": [
        {
          "components": [
            {
              "internalType": "address",
              "name": "addr",
              "type": "address"
            },
            {
              "internalType": "uint256",
              "name": "timeLeft",
              "type": "uint256"
            }
          ],
          "internalType": "struct ChallengeLib.Participant",
          "name": "current",
          "type": "tuple"
        },
        {
          "components": [
            {
              "internalType": "address",
              "name": "addr",
              "type": "address"
            },
            {
              "internalType": "uint256",
              "name": "timeLeft",
              "type": "uint256"
            }
          ],
          "internalType": "struct ChallengeLib.Participant",
          "name": "next",
          "type": "tuple"
        },
        {
          "internalType": "uint256",
          "name": "lastMoveTimestamp",
          "type": "uint256"
        },
        {
          "internalType": "bytes32",
          "name": "wasmModuleRoot",
          "type": "bytes32"
        },
        {
          "internalType": "bytes32",
          "name": "challengeStateHash",
          "type": "bytes32"
        },
        {
          "internalType": "uint64",
          "name": "maxInboxMessages",
          "type": "uint64"
        },
        {
          "internalType": "enum ChallengeLib.ChallengeMode",
          "name": "mode",
          "type": "uint8"
        }
      ],
      "stateMutability": "view",
      "type": "function"
    },
    {
      "inputs": [
        {
          "internalType": "uint64",
          "name": "challengeIndex",
          "type": "uint64"
        }
      ],
      "name": "clearChallenge",
      "outputs": [],
      "stateMutability": "nonpayable",
      "type": "function"
    },
    {
      "inputs": [
        {
          "internalType": "bytes32",
          "name": "wasmModuleRoot_",
          "type": "bytes32"
        },
        {
          "internalType": "enum MachineStatus[2]",
          "name": "startAndEndMachineStatuses_",
          "type": "uint8[2]"
        },
        {
          "components": [
            {
              "internalType": "bytes32[2]",
              "name": "bytes32Vals",
              "type": "bytes32[2]"
            },
            {
              "internalType": "uint64[3]",
              "name": "u64Vals",
              "type": "uint64[3]"
            }
          ],
          "internalType": "struct GlobalState[2]",
          "name": "startAndEndGlobalStates_",
          "type": "tuple[2]"
        },
        {
          "internalType": "uint64",
          "name": "numBlocks",
          "type": "uint64"
        },
        {
          "internalType": "address",
          "name": "asserter_",
          "type": "address"
        },
        {
          "internalType": "address",
          "name": "challenger_",
          "type": "address"
        },
        {
          "internalType": "uint256",
          "name": "asserterTimeLeft_",
          "type": "uint256"
        },
        {
          "internalType": "uint256",
          "name": "challengerTimeLeft_",
          "type": "uint256"
        }
      ],
      "name": "createChallenge",
      "outputs": [
        {
          "internalType": "uint64",
          "name": "",
          "type": "uint64"
        }
      ],
      "stateMutability": "nonpayable",
      "type": "function"
    },
    {
      "inputs": [
        {
          "internalType": "uint64",
          "name": "challengeIndex",
          "type": "uint64"
        }
      ],
      "name": "currentResponder",
      "outputs": [
        {
          "internalType": "address",
          "name": "",
          "type": "address"
        }
      ],
      "stateMutability": "view",
      "type": "function"
    },
    {
      "inputs": [
        {
          "internalType": "bytes32",
          "name": "wasmModuleRoot",
          "type": "bytes32"
        }
      ],
      "name": "getOsp",
      "outputs": [
        {
          "internalType": "contract IOneStepProofEntry",
          "name": "",
          "type": "address"
        }
      ],
      "stateMutability": "view",
      "type": "function"
    },
    {
      "inputs": [
        {
          "internalType": "contract IChallengeResultReceiver",
          "name": "resultReceiver_",
          "type": "address"
        },
        {
          "internalType": "contract ISequencerInbox",
          "name": "sequencerInbox_",
          "type": "address"
        },
        {
          "internalType": "contract IBridge",
          "name": "bridge_",
          "type": "address"
        },
        {
          "internalType": "contract IOneStepProofEntry",
          "name": "osp_",
          "type": "address"
        }
      ],
      "name": "initialize",
      "outputs": [],
      "stateMutability": "nonpayable",
      "type": "function"
    },
    {
      "inputs": [
        {
          "internalType": "uint64",
          "name": "challengeIndex",
          "type": "uint64"
        }
      ],
      "name": "isTimedOut",
      "outputs": [
        {
          "internalType": "bool",
          "name": "",
          "type": "bool"
        }
      ],
      "stateMutability": "view",
      "type": "function"
    },
    {
      "inputs": [
        {
          "internalType": "uint64",
          "name": "challengeIndex",
          "type": "uint64"
        },
        {
          "components": [
            {
              "internalType": "uint256",
              "name": "oldSegmentsStart",
              "type": "uint256"
            },
            {
              "internalType": "uint256",
              "name": "oldSegmentsLength",
              "type": "uint256"
            },
            {
              "internalType": "bytes32[]",
              "name": "oldSegments",
              "type": "bytes32[]"
            },
            {
              "internalType": "uint256",
              "name": "challengePosition",
              "type": "uint256"
            }
          ],
          "internalType": "struct ChallengeLib.SegmentSelection",
          "name": "selection",
          "type": "tuple"
        },
        {
          "internalType": "bytes",
          "name": "proof",
          "type": "bytes"
        }
      ],
      "name": "oneStepProveExecution",
      "outputs": [],
      "stateMutability": "nonpayable",
      "type": "function"
    },
    {
      "inputs": [],
      "name": "osp",
      "outputs": [
        {
          "internalType": "contract IOneStepProofEntry",
          "name": "",
          "type": "address"
        }
      ],
      "stateMutability": "view",
      "type": "function"
    },
    {
      "inputs": [
        {
          "internalType": "bytes32",
          "name": "",
          "type": "bytes32"
        }
      ],
      "name": "ospCond",
      "outputs": [
        {
          "internalType": "contract IOneStepProofEntry",
          "name": "",
          "type": "address"
        }
      ],
      "stateMutability": "view",
      "type": "function"
    },
    {
      "inputs": [
        {
          "internalType": "contract IOneStepProofEntry",
          "name": "osp_",
          "type": "address"
        },
        {
          "internalType": "bytes32",
          "name": "condRoot",
          "type": "bytes32"
        },
        {
          "internalType": "contract IOneStepProofEntry",
          "name": "condOsp",
          "type": "address"
        }
      ],
      "name": "postUpgradeInit",
      "outputs": [],
      "stateMutability": "nonpayable",
      "type": "function"
    },
    {
      "inputs": [],
      "name": "resultReceiver",
      "outputs": [
        {
          "internalType": "contract IChallengeResultReceiver",
          "name": "",
          "type": "address"
        }
      ],
      "stateMutability": "view",
      "type": "function"
    },
    {
      "inputs": [],
      "name": "sequencerInbox",
      "outputs": [
        {
          "internalType": "contract ISequencerInbox",
          "name": "",
          "type": "address"
        }
      ],
      "stateMutability": "view",
      "type": "function"
    },
    {
      "inputs": [
        {
          "internalType": "uint64",
          "name": "challengeIndex",
          "type": "uint64"
        }
      ],
      "name": "timeout",
      "outputs": [],
      "stateMutability": "nonpayable",
      "type": "function"
    },
    {
      "inputs": [],
      "name": "totalChallengesCreated",
      "outputs": [
        {
          "internalType": "uint64",
          "name": "",
          "type": "uint64"
        }
      ],
      "stateMutability": "view",
      "type": "function"
    }
  ],
  "bytecode": "0x60a06040523060805234801561001457600080fd5b50608051612cbe610037600039600081816104b7015261144a0152612cbe6000f3fe608060405234801561001057600080fd5b50600436106101115760003560e01c80639ede42b9116100ad578063e78cea9211610071578063e78cea921461031a578063ee35f3271461032d578063f26a62c614610340578063f8c8765e14610353578063fb7be0a11461036657600080fd5b80639ede42b9146102955780639f799f34146102b8578063a521b032146102cb578063d248d124146102de578063dc74bf8b146102f157600080fd5b80631b45c86a1461011657806323a9ef231461012b5780633504f1d71461015b5780633690b0111461016e5780635038934d1461018157806356e9df97146101945780635ef489e6146101a75780637fd07a9c146101d25780638f1d3776146101f2575b600080fd5b610129610124366004612230565b610379565b005b61013e610139366004612230565b610452565b6040516001600160a01b0390911681526020015b60405180910390f35b60025461013e906001600160a01b031681565b61013e61017c36600461224b565b610476565b61012961018f366004612279565b6104ac565b6101296101a2366004612230565b610592565b6000546101ba906001600160401b031681565b6040516001600160401b039091168152602001610152565b6101e56101e0366004612230565b610700565b60405161015291906122fd565b61028261020036600461224b565b6001602081815260009283526040928390208351808501855281546001600160a01b0390811682529382015481840152845180860190955260028201549093168452600381015491840191909152600481015460058201546006830154600790930154939493919290916001600160401b03811690600160401b900460ff1687565b604051610152979695949392919061236f565b6102a86102a3366004612230565b6107d9565b6040519015158152602001610152565b6101ba6102c63660046123cb565b6107fa565b6101296102d9366004612476565b610b7d565b6101296102ec36600461251a565b610ff3565b61013e6102ff36600461224b565b6006602052600090815260409020546001600160a01b031681565b60045461013e906001600160a01b031681565b60035461013e906001600160a01b031681565b60055461013e906001600160a01b031681565b6101296103613660046125ac565b61143f565b610129610374366004612608565b61156b565b60006001600160401b038216600090815260016020526040902060070154600160401b900460ff1660028111156103b2576103b26122d3565b1415604051806040016040528060078152602001661393d7d0d2105360ca1b815250906103fb5760405162461bcd60e51b81526004016103f29190612680565b60405180910390fd5b50610405816107d9565b6104445760405162461bcd60e51b815260206004820152601060248201526f54494d454f55545f444541444c494e4560801b60448201526064016103f2565b61044f816000611cd9565b50565b6001600160401b03166000908152600160205260409020546001600160a01b031690565b6000818152600660205260408120546001600160a01b0316806104a65750506005546001600160a01b0316919050565b92915050565b306001600160a01b037f00000000000000000000000000000000000000000000000000000000000000001614156104f55760405162461bcd60e51b81526004016103f2906126d5565b7fb53127684a568b3173ae13b9f8a6016e243e63b6e8ee1178d6a717850b5d61038054336001600160a01b0382161461055257604051631194af8760e11b81523360048201526001600160a01b03821660248201526044016103f2565b505060009182526006602052604090912080546001600160a01b039283166001600160a01b03199182161790915560058054939092169216919091179055565b6002546001600160a01b031633146105df5760405162461bcd60e51b815260206004820152601060248201526f2727aa2fa922a9afa922a1a2a4ab22a960811b60448201526064016103f2565b60006001600160401b038216600090815260016020526040902060070154600160401b900460ff166002811115610618576106186122d3565b1415604051806040016040528060078152602001661393d7d0d2105360ca1b815250906106585760405162461bcd60e51b81526004016103f29190612680565b506001600160401b038116600081815260016020819052604080832080546001600160a01b031990811682559281018490556002810180549093169092556003808301849055600483018490556005830184905560068301939093556007909101805468ffffffffffffffffff19169055517ffdaece6c274a4b56af16761f83fd6b1062823192630ea08e019fdf9b2d747f40916106f591612731565b60405180910390a250565b6107086121ac565b6001600160401b0382811660009081526001602081815260409283902083516101208101855281546001600160a01b0390811660e0830190815294830154610100830152938152845180860186526002808401549095168152600383015481850152928101929092526004810154938201939093526005830154606082015260068301546080820152600783015493841660a08201529260c0840191600160401b90910460ff16908111156107bf576107bf6122d3565b60028111156107d0576107d06122d3565b90525092915050565b6001600160401b03811660009081526001602052604081206104a690611e07565b6002546000906001600160a01b0316331461084a5760405162461bcd60e51b815260206004820152601060248201526f13d3931657d493d313155417d0d2105360821b60448201526064016103f2565b60408051600280825260608201835260009260208301908036833701905050905061092061087b60208b018b612770565b61091b8a60005b60a00201803603810190610896919061282d565b805180516020918201519282015180518184015160409283015183516c23b637b130b61039ba30ba329d60991b81880152602d810195909552604d8501969096526001600160c01b031960c092831b8116606d86015290821b8116607585015294901b909316607d820152825180820360650181526085909101909252815191012090565b611e1f565b816000815181106109335761093361275a565b60209081029190910101526109628960016020020160208101906109579190612770565b61091b8a6001610882565b816001815181106109755761097561275a565b6020908102919091010152600080548190819061099a906001600160401b03166128db565b91906101000a8154816001600160401b0302191690836001600160401b031602179055905060006001600160401b0316816001600160401b031614156109e2576109e2612902565b6001600160401b0381166000908152600160205260408120600581018d905590610a1c610a17368d90038d0160a08e0161282d565b611f43565b90506002610a3060408e0160208f01612770565b6003811115610a4157610a416122d3565b1480610a6f57506000610a64610a5f368e90038e0160a08f0161282d565b611f58565b6001600160401b0316115b15610a825780610a7e816128db565b9150505b6007820180546040805180820182526001600160a01b038d811680835260209283018d90526002880180546001600160a01b03199081169092179055600388018d905583518085018552918e16808352919092018b90528654909116178555600185018990554260048601556001600160401b0384811668ffffffffffffffffff1990931692909217600160401b179092559051908416907fbd45603812043da961daff7b893ff7cb873fc942c47f9be32d90a245c8a6014790610b4c908e9060a0820190612962565b60405180910390a2610b6a8360008c6001600160401b031687611f67565b5090925050505b98975050505050505050565b6001600160401b038416600090815260016020526040812085918591610ba284610452565b6001600160a01b0316336001600160a01b031614610bd25760405162461bcd60e51b81526004016103f29061297e565b610bdb846107d9565b15610bf85760405162461bcd60e51b81526004016103f2906129a3565b6000826002811115610c0c57610c0c6122d3565b1415610c7a5760006007820154600160401b900460ff166002811115610c3457610c346122d3565b1415604051806040016040528060078152602001661393d7d0d2105360ca1b81525090610c745760405162461bcd60e51b81526004016103f29190612680565b50610d39565b6001826002811115610c8e57610c8e6122d3565b1415610cd85760016007820154600160401b900460ff166002811115610cb657610cb66122d3565b14610cd35760405162461bcd60e51b81526004016103f2906129ca565b610d39565b6002826002811115610cec57610cec6122d3565b1415610d315760026007820154600160401b900460ff166002811115610d1457610d146122d3565b14610cd35760405162461bcd60e51b81526004016103f2906129f2565b610d39612902565b610d8783356020850135610d506040870187612a1e565b80806020026020016040519081016040528093929190818152602001838360200280828437600092019190915250611ffd92505050565b816006015414610da95760405162461bcd60e51b81526004016103f290612a6e565b6002610db86040850185612a1e565b90501080610de357506001610dd06040850185612a1e565b610ddb929150612a91565b836060013510155b15610e005760405162461bcd60e51b81526004016103f290612aa8565b600080610e0c89612034565b9150915060018111610e4c5760405162461bcd60e51b81526020600482015260096024820152681513d3d7d4d213d49560ba1b60448201526064016103f2565b806028811115610e5a575060285b610e65816001612ad3565b8814610ea25760405162461bcd60e51b815260206004820152600c60248201526b57524f4e475f44454752454560a01b60448201526064016103f2565b50610eec8989896000818110610eba57610eba61275a565b602002919091013590508a8a610ed1600182612a91565b818110610ee057610ee061275a565b905060200201356120c5565b610f2b8a83838b8b80806020026020016040519081016040528093929190818152602001838360200280828437600092019190915250611f6792505050565b50600090505b6007820154600160401b900460ff166002811115610f5157610f516122d3565b1415610f5d5750610fea565b6040805180820190915281546001600160a01b03168152600182015460208201526004820154610f8d9042612a91565b81602001818151610f9e9190612a91565b90525060028201805483546001600160a01b038083166001600160a01b031992831617865560038601805460018801558551929093169116179091556020909101519055426004909101555b50505050505050565b6001600160401b03841660009081526001602052604090208490849060029061101b84610452565b6001600160a01b0316336001600160a01b03161461104b5760405162461bcd60e51b81526004016103f29061297e565b611054846107d9565b156110715760405162461bcd60e51b81526004016103f2906129a3565b6000826002811115611085576110856122d3565b14156110f35760006007820154600160401b900460ff1660028111156110ad576110ad6122d3565b1415604051806040016040528060078152602001661393d7d0d2105360ca1b815250906110ed5760405162461bcd60e51b81526004016103f29190612680565b506111b2565b6001826002811115611107576111076122d3565b14156111515760016007820154600160401b900460ff16600281111561112f5761112f6122d3565b1461114c5760405162461bcd60e51b81526004016103f2906129ca565b6111b2565b6002826002811115611165576111656122d3565b14156111aa5760026007820154600160401b900460ff16600281111561118d5761118d6122d3565b1461114c5760405162461bcd60e51b81526004016103f2906129f2565b6111b2612902565b6111c983356020850135610d506040870187612a1e565b8160060154146111eb5760405162461bcd60e51b81526004016103f290612a6e565b60026111fa6040850185612a1e565b90501080611225575060016112126040850185612a1e565b61121d929150612a91565b836060013510155b156112425760405162461bcd60e51b81526004016103f290612aa8565b6001600160401b038816600090815260016020526040812090806112658a612034565b90925090506001811461128a5760405162461bcd60e51b81526004016103f290612aeb565b50600061129a8360050154610476565b60408051808201825260078601546001600160401b031681526004546001600160a01b0390811660208301529290921691635d3adcfb9185906112df908f018f612a1e565b8f606001358181106112f3576112f361275a565b905060200201358d8d6040518663ffffffff1660e01b815260040161131c959493929190612b0d565b60206040518083038186803b15801561133457600080fd5b505afa158015611348573d6000803e3d6000fd5b505050506040513d601f19601f8201168201806040525081019061136c9190612b64565b905061137b60408b018b612a1e565b61138a60608d01356001612ad3565b8181106113995761139961275a565b905060200201358114156113de5760405162461bcd60e51b815260206004820152600c60248201526b14d0535157d3d4d417d1539160a21b60448201526064016103f2565b6040516001600160401b038c16907fc2cc42e04ff8c36de71c6a2937ea9f161dd0dd9e175f00caa26e5200643c781e90600090a26114338b6001600160401b0316600090815260016020526040812060060155565b5060009150610f319050565b306001600160a01b037f00000000000000000000000000000000000000000000000000000000000000001614156114885760405162461bcd60e51b81526004016103f2906126d5565b6002546001600160a01b0316156114d05760405162461bcd60e51b815260206004820152600c60248201526b1053149150511657d253925560a21b60448201526064016103f2565b6001600160a01b03841661151b5760405162461bcd60e51b81526020600482015260126024820152712727afa922a9aaa62a2fa922a1a2a4ab22a960711b60448201526064016103f2565b600280546001600160a01b039586166001600160a01b0319918216179091556003805494861694821694909417909355600480549285169284169290921790915560058054919093169116179055565b6001600160401b03851660009081526001602081905260409091208691869161159384610452565b6001600160a01b0316336001600160a01b0316146115c35760405162461bcd60e51b81526004016103f29061297e565b6115cc846107d9565b156115e95760405162461bcd60e51b81526004016103f2906129a3565b60008260028111156115fd576115fd6122d3565b141561166b5760006007820154600160401b900460ff166002811115611625576116256122d3565b1415604051806040016040528060078152602001661393d7d0d2105360ca1b815250906116655760405162461bcd60e51b81526004016103f29190612680565b5061172a565b600182600281111561167f5761167f6122d3565b14156116c95760016007820154600160401b900460ff1660028111156116a7576116a76122d3565b146116c45760405162461bcd60e51b81526004016103f2906129ca565b61172a565b60028260028111156116dd576116dd6122d3565b14156117225760026007820154600160401b900460ff166002811115611705576117056122d3565b146116c45760405162461bcd60e51b81526004016103f2906129f2565b61172a612902565b61174183356020850135610d506040870187612a1e565b8160060154146117635760405162461bcd60e51b81526004016103f290612a6e565b60026117726040850185612a1e565b9050108061179d5750600161178a6040850185612a1e565b611795929150612a91565b836060013510155b156117ba5760405162461bcd60e51b81526004016103f290612aa8565b60018510156118015760405162461bcd60e51b815260206004820152601360248201527210d2105313115391d157d513d3d7d4d213d495606a1b60448201526064016103f2565b6508000000000085111561184c5760405162461bcd60e51b81526020600482015260126024820152714348414c4c454e47455f544f4f5f4c4f4e4760701b60448201526064016103f2565b61188e8861186e61186060208b018b612770565b8960005b6020020135611e1f565b61188961188160408c0160208d01612770565b8a6001611864565b6120c5565b6001600160401b038916600090815260016020526040812090806118b18b612034565b91509150806001146118d55760405162461bcd60e51b81526004016103f290612aeb565b60016118e460208c018c612770565b60038111156118f5576118f56122d3565b146119af5761190a60408b0160208c01612770565b600381111561191b5761191b6122d3565b61192860208c018c612770565b6003811115611939576119396122d3565b14801561194a5750883560208a0135145b6119865760405162461bcd60e51b815260206004820152600d60248201526c48414c5445445f4348414e474560981b60448201526064016103f2565b6119a78c6001600160401b0316600090815260016020526040812060060155565b505050611c14565b60026119c160408c0160208d01612770565b60038111156119d2576119d26122d3565b1415611a1b57883560208a013514611a1b5760405162461bcd60e51b815260206004820152600c60248201526b4552524f525f4348414e474560a01b60448201526064016103f2565b6040805160028082526060820183526000926020830190803683370190505090506000611a4b8560050154610476565b60058601546040516301265ef960e21b81528d35600482015260248101919091529091506001600160a01b038216906304997be49060440160206040518083038186803b158015611a9b57600080fd5b505afa158015611aaf573d6000803e3d6000fd5b505050506040513d601f19601f82011682018060405250810190611ad39190612b64565b82600081518110611ae657611ae661275a565b60209081029190910101526001600160a01b03811663d8558b878d6001602002016020810190611b169190612770565b8d600160200201356040518363ffffffff1660e01b8152600401611b3b929190612b7d565b60206040518083038186803b158015611b5357600080fd5b505afa158015611b67573d6000803e3d6000fd5b505050506040513d601f19601f82011682018060405250810190611b8b9190612b64565b82600181518110611b9e57611b9e61275a565b602090810291909101015260078501805460ff60401b1916600160411b179055611bcb8e60008c85611f67565b8d6001600160401b03167f24e032e170243bbea97e140174b22dc7e54fb85925afbf52c70e001cd6af16db85604051611c0691815260200190565b60405180910390a250505050505b60006007820154600160401b900460ff166002811115611c3657611c366122d3565b1415611c425750611ccf565b6040805180820190915281546001600160a01b03168152600182015460208201526004820154611c729042612a91565b81602001818151611c839190612a91565b90525060028201805483546001600160a01b038083166001600160a01b031992831617865560038601805460018801558551929093169116179091556020909101519055426004909101555b5050505050505050565b6001600160401b03821660008181526001602081905260408083206002808201805483546001600160a01b0319808216865596850188905595811690915560038301869055600480840187905560058401879055600684019690965560078301805468ffffffffffffffffff1916905590549251630357aa4960e01b8152948501959095526001600160a01b03948516602485018190529285166044850181905290949293909290911690630357aa4990606401600060405180830381600087803b158015611da757600080fd5b505af1158015611dbb573d6000803e3d6000fd5b50505050846001600160401b03167ffdaece6c274a4b56af16761f83fd6b1062823192630ea08e019fdf9b2d747f4085604051611df89190612731565b60405180910390a25050505050565b6001810154600090611e188361219a565b1192915050565b60006001836003811115611e3557611e356122d3565b1415611e7b576040516b213637b1b59039ba30ba329d60a11b6020820152602c8101839052604c015b6040516020818303038152906040528051906020012090506104a6565b6002836003811115611e8f57611e8f6122d3565b1415611ec55760405174213637b1b59039ba30ba32961032b93937b932b21d60591b602082015260358101839052605501611e5e565b6003836003811115611ed957611ed96122d3565b1415611f085760405174213637b1b59039ba30ba3296103a37b7903330b91d60591b6020820152603501611e5e565b60405162461bcd60e51b815260206004820152601060248201526f4241445f424c4f434b5f53544154555360801b60448201526064016103f2565b6020810151600090815b602002015192915050565b60208101516000906001611f4d565b6001821015611f7857611f78612902565b600281511015611f8a57611f8a612902565b6000611f97848484611ffd565b6001600160401b038616600081815260016020526040908190206006018390555191925082917f86b34e9455464834eca718f62d4481437603bb929d8a78ccde5d1bc79fa06d6890611fee90889088908890612b94565b60405180910390a35050505050565b600083838360405160200161201493929190612be9565b6040516020818303038152906040528051906020012090505b9392505050565b6000808060016120476040860186612a1e565b612052929150612a91565b9050612062816020860135612c41565b9150612072606085013583612c55565b61207d908535612ad3565b9250600261208e6040860186612a1e565b612099929150612a91565b846060013514156120bf576120b2816020860135612c74565b6120bc9083612ad3565b91505b50915091565b816120d36040850185612a1e565b85606001358181106120e7576120e761275a565b90506020020135146121295760405162461bcd60e51b815260206004820152600b60248201526a15d493d391d7d4d510549560aa1b60448201526064016103f2565b806121376040850185612a1e565b61214660608701356001612ad3565b8181106121555761215561275a565b9050602002013514156121955760405162461bcd60e51b815260206004820152600860248201526714d0535157d1539160c21b60448201526064016103f2565b505050565b60008160040154426104a69190612a91565b604080516101208101909152600060e08201818152610100830191909152819081526020016121eb604080518082019091526000808252602082015290565b815260006020820181905260408201819052606082018190526080820181905260a09091015290565b80356001600160401b038116811461222b57600080fd5b919050565b60006020828403121561224257600080fd5b61202d82612214565b60006020828403121561225d57600080fd5b5035919050565b6001600160a01b038116811461044f57600080fd5b60008060006060848603121561228e57600080fd5b833561229981612264565b92506020840135915060408401356122b081612264565b809150509250925092565b80516001600160a01b03168252602090810151910152565b634e487b7160e01b600052602160045260246000fd5b600381106122f9576122f96122d3565b9052565b6000610120820190506123118284516122bb565b602083015161232360408401826122bb565b5060408301516080830152606083015160a0830152608083015160c08301526001600160401b0360a08401511660e083015260c08301516123686101008401826122e9565b5092915050565b610120810161237e828a6122bb565b61238b60408301896122bb565b8660808301528560a08301528460c08301526001600160401b03841660e0830152610b716101008301846122e9565b80604081018310156104a657600080fd5b600080600080600080600080610240898b0312156123e857600080fd5b883597506123f98a60208b016123ba565b96506101a089018a81111561240d57600080fd5b60608a01965061241c81612214565b9550506101c089013561242e81612264565b93506101e089013561243f81612264565b979a969950949793969295929450505061020082013591610220013590565b60006080828403121561247057600080fd5b50919050565b6000806000806060858703121561248c57600080fd5b61249585612214565b935060208501356001600160401b03808211156124b157600080fd5b6124bd8883890161245e565b945060408701359150808211156124d357600080fd5b818701915087601f8301126124e757600080fd5b8135818111156124f657600080fd5b8860208260051b850101111561250b57600080fd5b95989497505060200194505050565b6000806000806060858703121561253057600080fd5b61253985612214565b935060208501356001600160401b038082111561255557600080fd5b6125618883890161245e565b9450604087013591508082111561257757600080fd5b818701915087601f83011261258b57600080fd5b81358181111561259a57600080fd5b88602082850101111561250b57600080fd5b600080600080608085870312156125c257600080fd5b84356125cd81612264565b935060208501356125dd81612264565b925060408501356125ed81612264565b915060608501356125fd81612264565b939692955090935050565b600080600080600060e0868803121561262057600080fd5b61262986612214565b945060208601356001600160401b0381111561264457600080fd5b6126508882890161245e565b94505061266087604088016123ba565b925061266f87608088016123ba565b9497939650919460c0013592915050565b600060208083528351808285015260005b818110156126ad57858101830151858201604001528201612691565b818111156126bf576000604083870101525b50601f01601f1916929092016040019392505050565b6020808252602c908201527f46756e6374696f6e206d7573742062652063616c6c6564207468726f7567682060408201526b19195b1959d85d1958d85b1b60a21b606082015260800190565b6004811061044f5761044f6122d3565b6020810161273e83612721565b91905290565b634e487b7160e01b600052604160045260246000fd5b634e487b7160e01b600052603260045260246000fd5b60006020828403121561278257600080fd5b81356004811061202d57600080fd5b604080519081016001600160401b03811182821017156127b3576127b3612744565b60405290565b600082601f8301126127ca57600080fd5b604051606081018181106001600160401b03821117156127ec576127ec612744565b60405280606084018581111561280157600080fd5b845b818110156128225761281481612214565b835260209283019201612803565b509195945050505050565b600060a0828403121561283f57600080fd5b604051604081018181106001600160401b038211171561286157612861612744565b604052601f8301841361287357600080fd5b61287b612791565b80604085018681111561288d57600080fd5b855b818110156128a757803584526020938401930161288f565b508184526128b587826127b9565b6020850152509195945050505050565b634e487b7160e01b600052601160045260246000fd5b60006001600160401b03808316818114156128f8576128f86128c5565b6001019392505050565b634e487b7160e01b600052600160045260246000fd5b604081833760006040838101828152908301915b600381101561295b576001600160401b0361294684612214565b1682526020928301929091019060010161292c565b5050505050565b61014081016129718285612918565b61202d60a0830184612918565b6020808252600b908201526a21a420a62fa9a2a72222a960a91b604082015260600190565b6020808252600d908201526c4348414c5f444541444c494e4560981b604082015260600190565b6020808252600e908201526d4348414c5f4e4f545f424c4f434b60901b604082015260600190565b60208082526012908201527121a420a62fa727aa2fa2ac22a1aaaa24a7a760711b604082015260600190565b6000808335601e19843603018112612a3557600080fd5b8301803591506001600160401b03821115612a4f57600080fd5b6020019150600581901b3603821315612a6757600080fd5b9250929050565b6020808252600990820152684249535f535441544560b81b604082015260600190565b600082821015612aa357612aa36128c5565b500390565b6020808252601190820152704241445f4348414c4c454e47455f504f5360781b604082015260600190565b60008219821115612ae657612ae66128c5565b500190565b602080825260089082015267544f4f5f4c4f4e4760c01b604082015260600190565b8551815260018060a01b03602087015116602082015284604082015283606082015260a060808201528160a0820152818360c0830137600081830160c090810191909152601f909201601f19160101949350505050565b600060208284031215612b7657600080fd5b5051919050565b60408101612b8a84612721565b9281526020015290565b6000606082018583526020858185015260606040850152818551808452608086019150828701935060005b81811015612bdb57845183529383019391830191600101612bbf565b509098975050505050505050565b83815260006020848184015260408301845182860160005b82811015612c1d57815184529284019290840190600101612c01565b509198975050505050505050565b634e487b7160e01b600052601260045260246000fd5b600082612c5057612c50612c2b565b500490565b6000816000190483118215151615612c6f57612c6f6128c5565b500290565b600082612c8357612c83612c2b565b50069056fea264697066735822122020e0c84238e37779205a6782322814e7d5c37b64a30f027fac54135439b0429164736f6c63430008090033",
  "linkReferences": {},
  "deployedLinkReferences": {}
}