{
  "_format": "hh-sol-artifact-1",
  "contractName": "RollupAdminLogic",
  "sourceName": "src/rollup/RollupAdminLogic.sol",
  "abi": [
    {
      "anonymous": false,
      "inputs": [
        {
          "indexed": false,
          "internalType": "address",
          "name": "previousAdmin",
          "type": "address"
        },
        {
          "indexed": false,
          "internalType": "address",
          "name": "newAdmin",
          "type": "address"
        }
      ],
      "name": "AdminChanged",
      "type": "event"
    },
    {
      "anonymous": false,
      "inputs": [
        {
          "indexed": true,
          "internalType": "address",
          "name": "beacon",
          "type": "address"
        }
      ],
      "name": "BeaconUpgraded",
      "type": "event"
    },
    {
      "anonymous": false,
      "inputs": [
        {
          "indexed": true,
          "internalType": "uint64",
          "name": "nodeNum",
          "type": "uint64"
        },
        {
          "indexed": false,
          "internalType": "bytes32",
          "name": "blockHash",
          "type": "bytes32"
        },
        {
          "indexed": false,
          "internalType": "bytes32",
          "name": "sendRoot",
          "type": "bytes32"
        }
      ],
      "name": "NodeConfirmed",
      "type": "event"
    },
    {
      "anonymous": false,
      "inputs": [
        {
          "indexed": true,
          "internalType": "uint64",
          "name": "nodeNum",
          "type": "uint64"
        },
        {
          "indexed": true,
          "internalType": "bytes32",
          "name": "parentNodeHash",
          "type": "bytes32"
        },
        {
          "indexed": true,
          "internalType": "bytes32",
          "name": "nodeHash",
          "type": "bytes32"
        },
        {
          "indexed": false,
          "internalType": "bytes32",
          "name": "executionHash",
          "type": "bytes32"
        },
        {
          "components": [
            {
              "components": [
                {
                  "components": [
                    {
                      "internalType": "bytes32[2]",
                      "name": "bytes32Vals",
                      "type": "bytes32[2]"
                    },
                    {
                      "internalType": "uint64[3]",
                      "name": "u64Vals",
                      "type": "uint64[3]"
                    }
                  ],
                  "internalType": "struct GlobalState",
                  "name": "globalState",
                  "type": "tuple"
                },
                {
                  "internalType": "enum MachineStatus",
                  "name": "machineStatus",
                  "type": "uint8"
                }
              ],
              "internalType": "struct ExecutionState",
              "name": "beforeState",
              "type": "tuple"
            },
            {
              "components": [
                {
                  "components": [
                    {
                      "internalType": "bytes32[2]",
                      "name": "bytes32Vals",
                      "type": "bytes32[2]"
                    },
                    {
                      "internalType": "uint64[3]",
                      "name": "u64Vals",
                      "type": "uint64[3]"
                    }
                  ],
                  "internalType": "struct GlobalState",
                  "name": "globalState",
                  "type": "tuple"
                },
                {
                  "internalType": "enum MachineStatus",
                  "name": "machineStatus",
                  "type": "uint8"
                }
              ],
              "internalType": "struct ExecutionState",
              "name": "afterState",
              "type": "tuple"
            },
            {
              "internalType": "uint64",
              "name": "numBlocks",
              "type": "uint64"
            }
          ],
          "indexed": false,
          "internalType": "struct Assertion",
          "name": "assertion",
          "type": "tuple"
        },
        {
          "indexed": false,
          "internalType": "bytes32",
          "name": "afterInboxBatchAcc",
          "type": "bytes32"
        },
        {
          "indexed": false,
          "internalType": "bytes32",
          "name": "wasmModuleRoot",
          "type": "bytes32"
        },
        {
          "indexed": false,
          "internalType": "uint256",
          "name": "inboxMaxCount",
          "type": "uint256"
        }
      ],
      "name": "NodeCreated",
      "type": "event"
    },
    {
      "anonymous": false,
      "inputs": [
        {
          "indexed": true,
          "internalType": "uint64",
          "name": "nodeNum",
          "type": "uint64"
        }
      ],
      "name": "NodeRejected",
      "type": "event"
    },
    {
      "anonymous": false,
      "inputs": [
        {
          "indexed": true,
          "internalType": "uint256",
          "name": "id",
          "type": "uint256"
        }
      ],
      "name": "OwnerFunctionCalled",
      "type": "event"
    },
    {
      "anonymous": false,
      "inputs": [
        {
          "indexed": false,
          "internalType": "address",
          "name": "account",
          "type": "address"
        }
      ],
      "name": "Paused",
      "type": "event"
    },
    {
      "anonymous": false,
      "inputs": [
        {
          "indexed": true,
          "internalType": "uint64",
          "name": "challengeIndex",
          "type": "uint64"
        },
        {
          "indexed": false,
          "internalType": "address",
          "name": "asserter",
          "type": "address"
        },
        {
          "indexed": false,
          "internalType": "address",
          "name": "challenger",
          "type": "address"
        },
        {
          "indexed": false,
          "internalType": "uint64",
          "name": "challengedNode",
          "type": "uint64"
        }
      ],
      "name": "RollupChallengeStarted",
      "type": "event"
    },
    {
      "anonymous": false,
      "inputs": [
        {
          "indexed": false,
          "internalType": "bytes32",
          "name": "machineHash",
          "type": "bytes32"
        },
        {
          "indexed": false,
          "internalType": "uint256",
          "name": "chainId",
          "type": "uint256"
        }
      ],
      "name": "RollupInitialized",
      "type": "event"
    },
    {
      "anonymous": false,
      "inputs": [
        {
          "indexed": false,
          "internalType": "address",
          "name": "account",
          "type": "address"
        }
      ],
      "name": "Unpaused",
      "type": "event"
    },
    {
      "anonymous": false,
      "inputs": [
        {
          "indexed": true,
          "internalType": "address",
          "name": "implementation",
          "type": "address"
        }
      ],
      "name": "Upgraded",
      "type": "event"
    },
    {
      "anonymous": false,
      "inputs": [
        {
          "indexed": true,
          "internalType": "address",
          "name": "implementation",
          "type": "address"
        }
      ],
      "name": "UpgradedSecondary",
      "type": "event"
    },
    {
      "anonymous": false,
      "inputs": [
        {
          "indexed": true,
          "internalType": "address",
          "name": "user",
          "type": "address"
        },
        {
          "indexed": false,
          "internalType": "uint256",
          "name": "initialBalance",
          "type": "uint256"
        },
        {
          "indexed": false,
          "internalType": "uint256",
          "name": "finalBalance",
          "type": "uint256"
        }
      ],
      "name": "UserStakeUpdated",
      "type": "event"
    },
    {
      "anonymous": false,
      "inputs": [
        {
          "indexed": true,
          "internalType": "address",
          "name": "user",
          "type": "address"
        },
        {
          "indexed": false,
          "internalType": "uint256",
          "name": "initialBalance",
          "type": "uint256"
        },
        {
          "indexed": false,
          "internalType": "uint256",
          "name": "finalBalance",
          "type": "uint256"
        }
      ],
      "name": "UserWithdrawableFundsUpdated",
      "type": "event"
    },
    {
      "inputs": [
        {
          "internalType": "address",
          "name": "",
          "type": "address"
        }
      ],
      "name": "_stakerMap",
      "outputs": [
        {
          "internalType": "uint256",
          "name": "amountStaked",
          "type": "uint256"
        },
        {
          "internalType": "uint64",
          "name": "index",
          "type": "uint64"
        },
        {
          "internalType": "uint64",
          "name": "latestStakedNode",
          "type": "uint64"
        },
        {
          "internalType": "uint64",
          "name": "currentChallenge",
          "type": "uint64"
        },
        {
          "internalType": "bool",
          "name": "isStaked",
          "type": "bool"
        }
      ],
      "stateMutability": "view",
      "type": "function"
    },
    {
      "inputs": [
        {
          "internalType": "address",
          "name": "staker",
          "type": "address"
        }
      ],
      "name": "amountStaked",
      "outputs": [
        {
          "internalType": "uint256",
          "name": "",
          "type": "uint256"
        }
      ],
      "stateMutability": "view",
      "type": "function"
    },
    {
      "inputs": [],
      "name": "anyTrustFastConfirmer",
      "outputs": [
        {
          "internalType": "address",
          "name": "",
          "type": "address"
        }
      ],
      "stateMutability": "view",
      "type": "function"
    },
    {
      "inputs": [],
      "name": "baseStake",
      "outputs": [
        {
          "internalType": "uint256",
          "name": "",
          "type": "uint256"
        }
      ],
      "stateMutability": "view",
      "type": "function"
    },
    {
      "inputs": [],
      "name": "bridge",
      "outputs": [
        {
          "internalType": "contract IBridge",
          "name": "",
          "type": "address"
        }
      ],
      "stateMutability": "view",
      "type": "function"
    },
    {
      "inputs": [],
      "name": "chainId",
      "outputs": [
        {
          "internalType": "uint256",
          "name": "",
          "type": "uint256"
        }
      ],
      "stateMutability": "view",
      "type": "function"
    },
    {
      "inputs": [],
      "name": "challengeManager",
      "outputs": [
        {
          "internalType": "contract IChallengeManager",
          "name": "",
          "type": "address"
        }
      ],
      "stateMutability": "view",
      "type": "function"
    },
    {
      "inputs": [],
      "name": "confirmPeriodBlocks",
      "outputs": [
        {
          "internalType": "uint64",
          "name": "",
          "type": "uint64"
        }
      ],
      "stateMutability": "view",
      "type": "function"
    },
    {
      "inputs": [
        {
          "components": [
            {
              "components": [
                {
                  "components": [
                    {
                      "internalType": "bytes32[2]",
                      "name": "bytes32Vals",
                      "type": "bytes32[2]"
                    },
                    {
                      "internalType": "uint64[3]",
                      "name": "u64Vals",
                      "type": "uint64[3]"
                    }
                  ],
                  "internalType": "struct GlobalState",
                  "name": "globalState",
                  "type": "tuple"
                },
                {
                  "internalType": "enum MachineStatus",
                  "name": "machineStatus",
                  "type": "uint8"
                }
              ],
              "internalType": "struct ExecutionState",
              "name": "beforeState",
              "type": "tuple"
            },
            {
              "components": [
                {
                  "components": [
                    {
                      "internalType": "bytes32[2]",
                      "name": "bytes32Vals",
                      "type": "bytes32[2]"
                    },
                    {
                      "internalType": "uint64[3]",
                      "name": "u64Vals",
                      "type": "uint64[3]"
                    }
                  ],
                  "internalType": "struct GlobalState",
                  "name": "globalState",
                  "type": "tuple"
                },
                {
                  "internalType": "enum MachineStatus",
                  "name": "machineStatus",
                  "type": "uint8"
                }
              ],
              "internalType": "struct ExecutionState",
              "name": "afterState",
              "type": "tuple"
            },
            {
              "internalType": "uint64",
              "name": "numBlocks",
              "type": "uint64"
            }
          ],
          "internalType": "struct Assertion",
          "name": "assertion",
          "type": "tuple"
        }
      ],
      "name": "createNitroMigrationGenesis",
      "outputs": [],
      "stateMutability": "nonpayable",
      "type": "function"
    },
    {
      "inputs": [
        {
          "internalType": "address",
          "name": "staker",
          "type": "address"
        }
      ],
      "name": "currentChallenge",
      "outputs": [
        {
          "internalType": "uint64",
          "name": "",
          "type": "uint64"
        }
      ],
      "stateMutability": "view",
      "type": "function"
    },
    {
      "inputs": [],
      "name": "extraChallengeTimeBlocks",
      "outputs": [
        {
          "internalType": "uint64",
          "name": "",
          "type": "uint64"
        }
      ],
      "stateMutability": "view",
      "type": "function"
    },
    {
      "inputs": [],
      "name": "firstUnresolvedNode",
      "outputs": [
        {
          "internalType": "uint64",
          "name": "",
          "type": "uint64"
        }
      ],
      "stateMutability": "view",
      "type": "function"
    },
    {
      "inputs": [
        {
          "internalType": "uint64",
          "name": "nodeNum",
          "type": "uint64"
        },
        {
          "internalType": "bytes32",
          "name": "blockHash",
          "type": "bytes32"
        },
        {
          "internalType": "bytes32",
          "name": "sendRoot",
          "type": "bytes32"
        }
      ],
      "name": "forceConfirmNode",
      "outputs": [],
      "stateMutability": "nonpayable",
      "type": "function"
    },
    {
      "inputs": [
        {
          "internalType": "uint64",
          "name": "prevNode",
          "type": "uint64"
        },
        {
          "internalType": "uint256",
          "name": "prevNodeInboxMaxCount",
          "type": "uint256"
        },
        {
          "components": [
            {
              "components": [
                {
                  "components": [
                    {
                      "internalType": "bytes32[2]",
                      "name": "bytes32Vals",
                      "type": "bytes32[2]"
                    },
                    {
                      "internalType": "uint64[3]",
                      "name": "u64Vals",
                      "type": "uint64[3]"
                    }
                  ],
                  "internalType": "struct GlobalState",
                  "name": "globalState",
                  "type": "tuple"
                },
                {
                  "internalType": "enum MachineStatus",
                  "name": "machineStatus",
                  "type": "uint8"
                }
              ],
              "internalType": "struct ExecutionState",
              "name": "beforeState",
              "type": "tuple"
            },
            {
              "components": [
                {
                  "components": [
                    {
                      "internalType": "bytes32[2]",
                      "name": "bytes32Vals",
                      "type": "bytes32[2]"
                    },
                    {
                      "internalType": "uint64[3]",
                      "name": "u64Vals",
                      "type": "uint64[3]"
                    }
                  ],
                  "internalType": "struct GlobalState",
                  "name": "globalState",
                  "type": "tuple"
                },
                {
                  "internalType": "enum MachineStatus",
                  "name": "machineStatus",
                  "type": "uint8"
                }
              ],
              "internalType": "struct ExecutionState",
              "name": "afterState",
              "type": "tuple"
            },
            {
              "internalType": "uint64",
              "name": "numBlocks",
              "type": "uint64"
            }
          ],
          "internalType": "struct Assertion",
          "name": "assertion",
          "type": "tuple"
        },
        {
          "internalType": "bytes32",
          "name": "expectedNodeHash",
          "type": "bytes32"
        }
      ],
      "name": "forceCreateNode",
      "outputs": [],
      "stateMutability": "nonpayable",
      "type": "function"
    },
    {
      "inputs": [
        {
          "internalType": "address[]",
          "name": "staker",
          "type": "address[]"
        }
      ],
      "name": "forceRefundStaker",
      "outputs": [],
      "stateMutability": "nonpayable",
      "type": "function"
    },
    {
      "inputs": [
        {
          "internalType": "address[]",
          "name": "stakerA",
          "type": "address[]"
        },
        {
          "internalType": "address[]",
          "name": "stakerB",
          "type": "address[]"
        }
      ],
      "name": "forceResolveChallenge",
      "outputs": [],
      "stateMutability": "nonpayable",
      "type": "function"
    },
    {
      "inputs": [
        {
          "internalType": "uint64",
          "name": "nodeNum",
          "type": "uint64"
        }
      ],
      "name": "getNode",
      "outputs": [
        {
          "components": [
            {
              "internalType": "bytes32",
              "name": "stateHash",
              "type": "bytes32"
            },
            {
              "internalType": "bytes32",
              "name": "challengeHash",
              "type": "bytes32"
            },
            {
              "internalType": "bytes32",
              "name": "confirmData",
              "type": "bytes32"
            },
            {
              "internalType": "uint64",
              "name": "prevNum",
              "type": "uint64"
            },
            {
              "internalType": "uint64",
              "name": "deadlineBlock",
              "type": "uint64"
            },
            {
              "internalType": "uint64",
              "name": "noChildConfirmedBeforeBlock",
              "type": "uint64"
            },
            {
              "internalType": "uint64",
              "name": "stakerCount",
              "type": "uint64"
            },
            {
              "internalType": "uint64",
              "name": "childStakerCount",
              "type": "uint64"
            },
            {
              "internalType": "uint64",
              "name": "firstChildBlock",
              "type": "uint64"
            },
            {
              "internalType": "uint64",
              "name": "latestChildNumber",
              "type": "uint64"
            },
            {
              "internalType": "uint64",
              "name": "createdAtBlock",
              "type": "uint64"
            },
            {
              "internalType": "bytes32",
              "name": "nodeHash",
              "type": "bytes32"
            }
          ],
          "internalType": "struct Node",
          "name": "",
          "type": "tuple"
        }
      ],
      "stateMutability": "view",
      "type": "function"
    },
    {
      "inputs": [
        {
          "internalType": "uint64",
          "name": "nodeNum",
          "type": "uint64"
        }
      ],
      "name": "getNodeCreationBlockForLogLookup",
      "outputs": [
        {
          "internalType": "uint256",
          "name": "",
          "type": "uint256"
        }
      ],
      "stateMutability": "view",
      "type": "function"
    },
    {
      "inputs": [
        {
          "internalType": "address",
          "name": "staker",
          "type": "address"
        }
      ],
      "name": "getStaker",
      "outputs": [
        {
          "components": [
            {
              "internalType": "uint256",
              "name": "amountStaked",
              "type": "uint256"
            },
            {
              "internalType": "uint64",
              "name": "index",
              "type": "uint64"
            },
            {
              "internalType": "uint64",
              "name": "latestStakedNode",
              "type": "uint64"
            },
            {
              "internalType": "uint64",
              "name": "currentChallenge",
              "type": "uint64"
            },
            {
              "internalType": "bool",
              "name": "isStaked",
              "type": "bool"
            }
          ],
          "internalType": "struct IRollupCore.Staker",
          "name": "",
          "type": "tuple"
        }
      ],
      "stateMutability": "view",
      "type": "function"
    },
    {
      "inputs": [
        {
          "internalType": "uint64",
          "name": "stakerNum",
          "type": "uint64"
        }
      ],
      "name": "getStakerAddress",
      "outputs": [
        {
          "internalType": "address",
          "name": "",
          "type": "address"
        }
      ],
      "stateMutability": "view",
      "type": "function"
    },
    {
      "inputs": [],
      "name": "inbox",
      "outputs": [
        {
          "internalType": "contract IInboxBase",
          "name": "",
          "type": "address"
        }
      ],
      "stateMutability": "view",
      "type": "function"
    },
    {
      "inputs": [
        {
          "components": [
            {
              "internalType": "uint64",
              "name": "confirmPeriodBlocks",
              "type": "uint64"
            },
            {
              "internalType": "uint64",
              "name": "extraChallengeTimeBlocks",
              "type": "uint64"
            },
            {
              "internalType": "address",
              "name": "stakeToken",
              "type": "address"
            },
            {
              "internalType": "uint256",
              "name": "baseStake",
              "type": "uint256"
            },
            {
              "internalType": "bytes32",
              "name": "wasmModuleRoot",
              "type": "bytes32"
            },
            {
              "internalType": "address",
              "name": "owner",
              "type": "address"
            },
            {
              "internalType": "address",
              "name": "loserStakeEscrow",
              "type": "address"
            },
            {
              "internalType": "uint256",
              "name": "chainId",
              "type": "uint256"
            },
            {
              "internalType": "string",
              "name": "chainConfig",
              "type": "string"
            },
            {
              "internalType": "uint64",
              "name": "genesisBlockNum",
              "type": "uint64"
            },
            {
              "components": [
                {
                  "internalType": "uint256",
                  "name": "delayBlocks",
                  "type": "uint256"
                },
                {
                  "internalType": "uint256",
                  "name": "futureBlocks",
                  "type": "uint256"
                },
                {
                  "internalType": "uint256",
                  "name": "delaySeconds",
                  "type": "uint256"
                },
                {
                  "internalType": "uint256",
                  "name": "futureSeconds",
                  "type": "uint256"
                }
              ],
              "internalType": "struct ISequencerInbox.MaxTimeVariation",
              "name": "sequencerInboxMaxTimeVariation",
              "type": "tuple"
            }
          ],
          "internalType": "struct Config",
          "name": "config",
          "type": "tuple"
        },
        {
          "components": [
            {
              "internalType": "contract IBridge",
              "name": "bridge",
              "type": "address"
            },
            {
              "internalType": "contract ISequencerInbox",
              "name": "sequencerInbox",
              "type": "address"
            },
            {
              "internalType": "contract IInboxBase",
              "name": "inbox",
              "type": "address"
            },
            {
              "internalType": "contract IOutbox",
              "name": "outbox",
              "type": "address"
            },
            {
              "internalType": "contract IRollupEventInbox",
              "name": "rollupEventInbox",
              "type": "address"
            },
            {
              "internalType": "contract IChallengeManager",
              "name": "challengeManager",
              "type": "address"
            },
            {
              "internalType": "address",
              "name": "rollupAdminLogic",
              "type": "address"
            },
            {
              "internalType": "contract IRollupUser",
              "name": "rollupUserLogic",
              "type": "address"
            },
            {
              "internalType": "address",
              "name": "validatorUtils",
              "type": "address"
            },
            {
              "internalType": "address",
              "name": "validatorWalletCreator",
              "type": "address"
            }
          ],
          "internalType": "struct ContractDependencies",
          "name": "connectedContracts",
          "type": "tuple"
        }
      ],
      "name": "initialize",
      "outputs": [],
      "stateMutability": "nonpayable",
      "type": "function"
    },
    {
      "inputs": [
        {
          "internalType": "address",
          "name": "staker",
          "type": "address"
        }
      ],
      "name": "isStaked",
      "outputs": [
        {
          "internalType": "bool",
          "name": "",
          "type": "bool"
        }
      ],
      "stateMutability": "view",
      "type": "function"
    },
    {
      "inputs": [
        {
          "internalType": "address",
          "name": "staker",
          "type": "address"
        }
      ],
      "name": "isStakedOnLatestConfirmed",
      "outputs": [
        {
          "internalType": "bool",
          "name": "",
          "type": "bool"
        }
      ],
      "stateMutability": "view",
      "type": "function"
    },
    {
      "inputs": [
        {
          "internalType": "address",
          "name": "",
          "type": "address"
        }
      ],
      "name": "isValidator",
      "outputs": [
        {
          "internalType": "bool",
          "name": "",
          "type": "bool"
        }
      ],
      "stateMutability": "view",
      "type": "function"
    },
    {
      "inputs": [
        {
          "internalType": "address",
          "name": "staker",
          "type": "address"
        }
      ],
      "name": "isZombie",
      "outputs": [
        {
          "internalType": "bool",
          "name": "",
          "type": "bool"
        }
      ],
      "stateMutability": "view",
      "type": "function"
    },
    {
      "inputs": [],
      "name": "lastStakeBlock",
      "outputs": [
        {
          "internalType": "uint64",
          "name": "",
          "type": "uint64"
        }
      ],
      "stateMutability": "view",
      "type": "function"
    },
    {
      "inputs": [],
      "name": "latestConfirmed",
      "outputs": [
        {
          "internalType": "uint64",
          "name": "",
          "type": "uint64"
        }
      ],
      "stateMutability": "view",
      "type": "function"
    },
    {
      "inputs": [],
      "name": "latestNodeCreated",
      "outputs": [
        {
          "internalType": "uint64",
          "name": "",
          "type": "uint64"
        }
      ],
      "stateMutability": "view",
      "type": "function"
    },
    {
      "inputs": [
        {
          "internalType": "address",
          "name": "staker",
          "type": "address"
        }
      ],
      "name": "latestStakedNode",
      "outputs": [
        {
          "internalType": "uint64",
          "name": "",
          "type": "uint64"
        }
      ],
      "stateMutability": "view",
      "type": "function"
    },
    {
      "inputs": [],
      "name": "loserStakeEscrow",
      "outputs": [
        {
          "internalType": "address",
          "name": "",
          "type": "address"
        }
      ],
      "stateMutability": "view",
      "type": "function"
    },
    {
      "inputs": [],
      "name": "minimumAssertionPeriod",
      "outputs": [
        {
          "internalType": "uint256",
          "name": "",
          "type": "uint256"
        }
      ],
      "stateMutability": "view",
      "type": "function"
    },
    {
      "inputs": [
        {
          "internalType": "uint64",
          "name": "nodeNum",
          "type": "uint64"
        },
        {
          "internalType": "address",
          "name": "staker",
          "type": "address"
        }
      ],
      "name": "nodeHasStaker",
      "outputs": [
        {
          "internalType": "bool",
          "name": "",
          "type": "bool"
        }
      ],
      "stateMutability": "view",
      "type": "function"
    },
    {
      "inputs": [],
      "name": "outbox",
      "outputs": [
        {
          "internalType": "contract IOutbox",
          "name": "",
          "type": "address"
        }
      ],
      "stateMutability": "view",
      "type": "function"
    },
    {
      "inputs": [],
      "name": "pause",
      "outputs": [],
      "stateMutability": "nonpayable",
      "type": "function"
    },
    {
      "inputs": [],
      "name": "paused",
      "outputs": [
        {
          "internalType": "bool",
          "name": "",
          "type": "bool"
        }
      ],
      "stateMutability": "view",
      "type": "function"
    },
    {
      "inputs": [],
      "name": "proxiableUUID",
      "outputs": [
        {
          "internalType": "bytes32",
          "name": "",
          "type": "bytes32"
        }
      ],
      "stateMutability": "view",
      "type": "function"
    },
    {
      "inputs": [
        {
          "internalType": "address",
          "name": "_outbox",
          "type": "address"
        }
      ],
      "name": "removeOldOutbox",
      "outputs": [],
      "stateMutability": "nonpayable",
      "type": "function"
    },
    {
      "inputs": [],
      "name": "resume",
      "outputs": [],
      "stateMutability": "nonpayable",
      "type": "function"
    },
    {
      "inputs": [],
      "name": "rollupDeploymentBlock",
      "outputs": [
        {
          "internalType": "uint256",
          "name": "",
          "type": "uint256"
        }
      ],
      "stateMutability": "view",
      "type": "function"
    },
    {
      "inputs": [],
      "name": "rollupEventInbox",
      "outputs": [
        {
          "internalType": "contract IRollupEventInbox",
          "name": "",
          "type": "address"
        }
      ],
      "stateMutability": "view",
      "type": "function"
    },
    {
      "inputs": [],
      "name": "sequencerInbox",
      "outputs": [
        {
          "internalType": "contract ISequencerInbox",
          "name": "",
          "type": "address"
        }
      ],
      "stateMutability": "view",
      "type": "function"
    },
    {
      "inputs": [
        {
          "internalType": "address",
          "name": "_anyTrustFastConfirmer",
          "type": "address"
        }
      ],
      "name": "setAnyTrustFastConfirmer",
      "outputs": [],
      "stateMutability": "nonpayable",
      "type": "function"
    },
    {
      "inputs": [
        {
          "internalType": "uint256",
          "name": "newBaseStake",
          "type": "uint256"
        }
      ],
      "name": "setBaseStake",
      "outputs": [],
      "stateMutability": "nonpayable",
      "type": "function"
    },
    {
      "inputs": [
        {
          "internalType": "uint64",
          "name": "newConfirmPeriod",
          "type": "uint64"
        }
      ],
      "name": "setConfirmPeriodBlocks",
      "outputs": [],
      "stateMutability": "nonpayable",
      "type": "function"
    },
    {
      "inputs": [
        {
          "internalType": "address",
          "name": "_inbox",
          "type": "address"
        },
        {
          "internalType": "bool",
          "name": "_enabled",
          "type": "bool"
        }
      ],
      "name": "setDelayedInbox",
      "outputs": [],
      "stateMutability": "nonpayable",
      "type": "function"
    },
    {
      "inputs": [
        {
          "internalType": "uint64",
          "name": "newExtraTimeBlocks",
          "type": "uint64"
        }
      ],
      "name": "setExtraChallengeTimeBlocks",
      "outputs": [],
      "stateMutability": "nonpayable",
      "type": "function"
    },
    {
      "inputs": [
        {
          "internalType": "contract IInboxBase",
          "name": "newInbox",
          "type": "address"
        }
      ],
      "name": "setInbox",
      "outputs": [],
      "stateMutability": "nonpayable",
      "type": "function"
    },
    {
      "inputs": [
        {
          "internalType": "address",
          "name": "newLoserStakerEscrow",
          "type": "address"
        }
      ],
      "name": "setLoserStakeEscrow",
      "outputs": [],
      "stateMutability": "nonpayable",
      "type": "function"
    },
    {
      "inputs": [
        {
          "internalType": "uint256",
          "name": "newPeriod",
          "type": "uint256"
        }
      ],
      "name": "setMinimumAssertionPeriod",
      "outputs": [],
      "stateMutability": "nonpayable",
      "type": "function"
    },
    {
      "inputs": [
        {
          "internalType": "contract IOutbox",
          "name": "_outbox",
          "type": "address"
        }
      ],
      "name": "setOutbox",
      "outputs": [],
      "stateMutability": "nonpayable",
      "type": "function"
    },
    {
      "inputs": [
        {
          "internalType": "address",
          "name": "newOwner",
          "type": "address"
        }
      ],
      "name": "setOwner",
      "outputs": [],
      "stateMutability": "nonpayable",
      "type": "function"
    },
    {
      "inputs": [
        {
          "internalType": "address",
          "name": "_sequencerInbox",
          "type": "address"
        }
      ],
      "name": "setSequencerInbox",
      "outputs": [],
      "stateMutability": "nonpayable",
      "type": "function"
    },
    {
      "inputs": [
        {
          "internalType": "address",
          "name": "newStakeToken",
          "type": "address"
        }
      ],
      "name": "setStakeToken",
      "outputs": [],
      "stateMutability": "nonpayable",
      "type": "function"
    },
    {
      "inputs": [
        {
          "internalType": "address[]",
          "name": "_validator",
          "type": "address[]"
        },
        {
          "internalType": "bool[]",
          "name": "_val",
          "type": "bool[]"
        }
      ],
      "name": "setValidator",
      "outputs": [],
      "stateMutability": "nonpayable",
      "type": "function"
    },
    {
      "inputs": [
        {
          "internalType": "bool",
          "name": "_validatorWhitelistDisabled",
          "type": "bool"
        }
      ],
      "name": "setValidatorWhitelistDisabled",
      "outputs": [],
      "stateMutability": "nonpayable",
      "type": "function"
    },
    {
      "inputs": [
        {
          "internalType": "bytes32",
          "name": "newWasmModuleRoot",
          "type": "bytes32"
        }
      ],
      "name": "setWasmModuleRoot",
      "outputs": [],
      "stateMutability": "nonpayable",
      "type": "function"
    },
    {
      "inputs": [],
      "name": "stakeToken",
      "outputs": [
        {
          "internalType": "address",
          "name": "",
          "type": "address"
        }
      ],
      "stateMutability": "view",
      "type": "function"
    },
    {
      "inputs": [],
      "name": "stakerCount",
      "outputs": [
        {
          "internalType": "uint64",
          "name": "",
          "type": "uint64"
        }
      ],
      "stateMutability": "view",
      "type": "function"
    },
    {
      "inputs": [],
      "name": "totalWithdrawableFunds",
      "outputs": [
        {
          "internalType": "uint256",
          "name": "",
          "type": "uint256"
        }
      ],
      "stateMutability": "view",
      "type": "function"
    },
    {
      "inputs": [
        {
          "internalType": "address",
          "name": "beacon",
          "type": "address"
        },
        {
          "internalType": "address",
          "name": "newImplementation",
          "type": "address"
        }
      ],
      "name": "upgradeBeacon",
      "outputs": [],
      "stateMutability": "nonpayable",
      "type": "function"
    },
    {
      "inputs": [
        {
          "internalType": "address",
          "name": "newImplementation",
          "type": "address"
        }
      ],
      "name": "upgradeSecondaryTo",
      "outputs": [],
      "stateMutability": "nonpayable",
      "type": "function"
    },
    {
      "inputs": [
        {
          "internalType": "address",
          "name": "newImplementation",
          "type": "address"
        },
        {
          "internalType": "bytes",
          "name": "data",
          "type": "bytes"
        }
      ],
      "name": "upgradeSecondaryToAndCall",
      "outputs": [],
      "stateMutability": "payable",
      "type": "function"
    },
    {
      "inputs": [
        {
          "internalType": "address",
          "name": "newImplementation",
          "type": "address"
        }
      ],
      "name": "upgradeTo",
      "outputs": [],
      "stateMutability": "nonpayable",
      "type": "function"
    },
    {
      "inputs": [
        {
          "internalType": "address",
          "name": "newImplementation",
          "type": "address"
        },
        {
          "internalType": "bytes",
          "name": "data",
          "type": "bytes"
        }
      ],
      "name": "upgradeToAndCall",
      "outputs": [],
      "stateMutability": "payable",
      "type": "function"
    },
    {
      "inputs": [],
      "name": "validatorUtils",
      "outputs": [
        {
          "internalType": "address",
          "name": "",
          "type": "address"
        }
      ],
      "stateMutability": "view",
      "type": "function"
    },
    {
      "inputs": [],
      "name": "validatorWalletCreator",
      "outputs": [
        {
          "internalType": "address",
          "name": "",
          "type": "address"
        }
      ],
      "stateMutability": "view",
      "type": "function"
    },
    {
      "inputs": [],
      "name": "validatorWhitelistDisabled",
      "outputs": [
        {
          "internalType": "bool",
          "name": "",
          "type": "bool"
        }
      ],
      "stateMutability": "view",
      "type": "function"
    },
    {
      "inputs": [],
      "name": "wasmModuleRoot",
      "outputs": [
        {
          "internalType": "bytes32",
          "name": "",
          "type": "bytes32"
        }
      ],
      "stateMutability": "view",
      "type": "function"
    },
    {
      "inputs": [
        {
          "internalType": "address",
          "name": "user",
          "type": "address"
        }
      ],
      "name": "withdrawableFunds",
      "outputs": [
        {
          "internalType": "uint256",
          "name": "",
          "type": "uint256"
        }
      ],
      "stateMutability": "view",
      "type": "function"
    },
    {
      "inputs": [
        {
          "internalType": "uint256",
          "name": "zombieNum",
          "type": "uint256"
        }
      ],
      "name": "zombieAddress",
      "outputs": [
        {
          "internalType": "address",
          "name": "",
          "type": "address"
        }
      ],
      "stateMutability": "view",
      "type": "function"
    },
    {
      "inputs": [],
      "name": "zombieCount",
      "outputs": [
        {
          "internalType": "uint256",
          "name": "",
          "type": "uint256"
        }
      ],
      "stateMutability": "view",
      "type": "function"
    },
    {
      "inputs": [
        {
          "internalType": "uint256",
          "name": "zombieNum",
          "type": "uint256"
        }
      ],
      "name": "zombieLatestStakedNode",
      "outputs": [
        {
          "internalType": "uint64",
          "name": "",
          "type": "uint64"
        }
      ],
      "stateMutability": "view",
      "type": "function"
    }
  ],
  "bytecode": "0x60c0604052620000196200003660201b62002d4f1760201c565b15156080523060a0523480156200002f57600080fd5b5062000111565b60408051600481526024810182526020810180516001600160e01b03166302881c7960e11b179052905160009182918291606491620000769190620000d3565b600060405180830381855afa9150503d8060008114620000b3576040519150601f19603f3d011682016040523d82523d6000602084013e620000b8565b606091505b5091509150818015620000cc575080516020145b9250505090565b6000825160005b81811015620000f65760208186018101518583015201620000da565b8181111562000106576000828501525b509190910192915050565b60805160a051615bc06200018b600039600081816110dc0152818161111c015281816115030152818161154301528181611d6001528181611da001528181611e9f01528181611edf01528181611fd10152818161259601526125d6015260008181612b6001528181613a7501526144ec0152615bc06000f3fe6080604052600436106103b65760003560e01c80637ba9534a116101f9578063bc45e0ae1161011e578063ee35f327116100b6578063f63a434a1161007a578063f63a434a14610e09578063facd743b14610e29578063fb0e722b14610e59578063fc8ffa0314610e79578063ff204f3b14610e9957600080fd5b8063ee35f32714610d53578063ef40a67014610d73578063f065de3f14610da9578063f33e1fac14610dc9578063f38c937914610de957600080fd5b8063bc45e0ae14610bc4578063ce11e6ab14610be4578063ce66d05c14610c04578063d01e660214610c24578063d735e21d14610c44578063dcd030aa14610c69578063dff6978714610c89578063e78cea9214610c9e578063e8bd492214610cbe57600080fd5b8063948d658811610191578063948d6588146109cc5780639846129a146109ec5780639a8a0592146109ff5780639c12c8a314610a15578063a23c44b114610a35578063a2b4f1d814610b44578063a3ffb77214610b64578063aa38a6e714610b84578063aa65af4814610ba457600080fd5b80637ba9534a146108ba5780637c75c298146108cf5780638456cb59146108ef578063848bf918146109045780638640ce5f1461092457806389384960146109495780638ee1a1261461096957806391c657e81461097f57806392c8134c1461099f57600080fd5b806347fb24c5116102df5780636136fe2e116102775780636136fe2e146107685780636177fd181461078857806363721d6b146107cb57806365f7f80d146107e057806369fd251c146107fe5780636ddd37441461084757806371ef232c1461086757806376e7e23b1461087d578063771b2f971461089357600080fd5b806347fb24c5146106635780634f1ef286146106835780634f61f8501461069657806351ed6a30146106b657806352d1902d146106d657806353b60c4a146106eb57806355840a581461070b578063567ca41b146107305780635c975abb1461075057600080fd5b80631b1689e9116103525780631b1689e9146104f257806328ec4e691461051657806328ff127a146105365780632e7acfa6146105565780632f30cabd1461058e5780632f7968e8146105c45780633659cfe6146105e45780633e96576e1461060457806345e38b641461064d57600080fd5b8063014cc92c146103bb578063023a96fe146103f15780630397d45814610411578063046f7da21461043357806306ae5851146104485780630d40a0fd146104685780630d561b371461048857806312ab3d3b146104a857806313af4035146104d2575b600080fd5b3480156103c757600080fd5b50606f546103db906001600160a01b031681565b6040516103e89190614eb7565b60405180910390f35b3480156103fd57600080fd5b50606e546103db906001600160a01b031681565b34801561041d57600080fd5b5061043161042c366004614ee0565b610eb9565b005b34801561043f57600080fd5b5061043161108b565b34801561045457600080fd5b50610431610463366004614efd565b6110af565b34801561047457600080fd5b50610431610483366004614ee0565b6110d1565b34801561049457600080fd5b506104316104a3366004614ee0565b611191565b3480156104b457600080fd5b50607e546104c29060ff1681565b60405190151581526020016103e8565b3480156104de57600080fd5b506104316104ed366004614ee0565b6111ce565b3480156104fe57600080fd5b50610508607d5481565b6040519081526020016103e8565b34801561052257600080fd5b50610431610531366004614f2f565b6111f4565b34801561054257600080fd5b50610431610551366004614f4c565b6114f8565b34801561056257600080fd5b50606554610576906001600160401b031681565b6040516001600160401b0390911681526020016103e8565b34801561059a57600080fd5b506105086105a9366004614ee0565b6001600160a01b03166000908152607b602052604090205490565b3480156105d057600080fd5b506104316105df366004614fc4565b611d09565b3480156105f057600080fd5b506104316105ff366004614ee0565b611d55565b34801561061057600080fd5b5061057661061f366004614ee0565b6001600160a01b0316600090815260796020526040902060010154600160401b90046001600160401b031690565b34801561065957600080fd5b5061050860735481565b34801561066f57600080fd5b5061043161067e366004615005565b611e12565b6104316106913660046150ce565b611e94565b3480156106a257600080fd5b506104316106b1366004614ee0565b611f45565b3480156106c257600080fd5b506072546103db906001600160a01b031681565b3480156106e257600080fd5b50610508611fc4565b3480156106f757600080fd5b50610431610706366004614ee0565b612072565b34801561071757600080fd5b50607e546103db9061010090046001600160a01b031681565b34801561073c57600080fd5b5061043161074b366004614ee0565b6120aa565b34801561075c57600080fd5b5060335460ff166104c2565b34801561077457600080fd5b50610431610783366004615175565b612177565b34801561079457600080fd5b506104c26107a3366004614ee0565b6001600160a01b0316600090815260796020526040902060010154600160c01b900460ff1690565b3480156107d757600080fd5b50607a54610508565b3480156107ec57600080fd5b506075546001600160401b0316610576565b34801561080a57600080fd5b50610576610819366004614ee0565b6001600160a01b0316600090815260796020526040902060010154600160801b90046001600160401b031690565b34801561085357600080fd5b506103db610862366004615175565b6121b9565b34801561087357600080fd5b50610508607c5481565b34801561088957600080fd5b5061050860675481565b34801561089f57600080fd5b5060655461057690600160401b90046001600160401b031681565b3480156108c657600080fd5b506105766121f2565b3480156108db57600080fd5b506104316108ea3660046151db565b612208565b3480156108fb57600080fd5b5061043161237c565b34801561091057600080fd5b5061043161091f36600461521c565b6123a0565b34801561093057600080fd5b50607554600160c01b90046001600160401b0316610576565b34801561095557600080fd5b50610431610964366004614efd565b61241c565b34801561097557600080fd5b5061050860685481565b34801561098b57600080fd5b506104c261099a366004614ee0565b61243e565b3480156109ab57600080fd5b506109bf6109ba366004615175565b6124a2565b6040516103e8919061524a565b3480156109d857600080fd5b506104316109e7366004614efd565b612569565b6104316109fa3660046150ce565b61258b565b348015610a0b57600080fd5b5061050860665481565b348015610a2157600080fd5b50610431610a30366004615346565b612638565b348015610a4157600080fd5b50610aef610a50366004614ee0565b6040805160a081018252600080825260208201819052918101829052606081018290526080810191909152506001600160a01b0316600090815260796020908152604091829020825160a081018452815481526001909101546001600160401b0380821693830193909352600160401b8104831693820193909352600160801b83049091166060820152600160c01b90910460ff161515608082015290565b6040516103e89190600060a0820190508251825260208301516001600160401b038082166020850152806040860151166040850152806060860151166060850152505060808301511515608083015292915050565b348015610b5057600080fd5b50610431610b5f36600461538d565b6126dc565b348015610b7057600080fd5b50610431610b7f3660046153aa565b612707565b348015610b9057600080fd5b50606d546103db906001600160a01b031681565b348015610bb057600080fd5b506104c2610bbf366004615415565b6127fb565b348015610bd057600080fd5b506070546103db906001600160a01b031681565b348015610bf057600080fd5b50606b546103db906001600160a01b031681565b348015610c1057600080fd5b50610431610c1f366004615175565b612832565b348015610c3057600080fd5b506103db610c3f366004614efd565b6128bd565b348015610c5057600080fd5b50607554600160401b90046001600160401b0316610576565b348015610c7557600080fd5b506104c2610c84366004614ee0565b6128d2565b348015610c9557600080fd5b50607854610576565b348015610caa57600080fd5b50606a546103db906001600160a01b031681565b348015610cca57600080fd5b50610d1b610cd9366004614ee0565b607960205260009081526040902080546001909101546001600160401b0380821691600160401b8104821691600160801b82041690600160c01b900460ff1685565b604080519586526001600160401b0394851660208701529284169285019290925290911660608301521515608082015260a0016103e8565b348015610d5f57600080fd5b50606c546103db906001600160a01b031681565b348015610d7f57600080fd5b50610508610d8e366004614ee0565b6001600160a01b031660009081526079602052604090205490565b348015610db557600080fd5b506071546103db906001600160a01b031681565b348015610dd557600080fd5b50610576610de4366004614efd565b612915565b348015610df557600080fd5b50610431610e043660046153aa565b61294c565b348015610e1557600080fd5b50610508610e24366004615175565b612b5c565b348015610e3557600080fd5b506104c2610e44366004614ee0565b60746020526000908152604090205460ff1681565b348015610e6557600080fd5b506069546103db906001600160a01b031681565b348015610e8557600080fd5b50610431610e94366004614ee0565b612c25565b348015610ea557600080fd5b50610431610eb4366004614ee0565b612cb7565b60335460ff16610ee45760405162461bcd60e51b8152600401610edb90615431565b60405180910390fd5b6000806001600160a01b0316826001600160a01b0316141590506000306001600160a01b031663cd205fda6040518163ffffffff1660e01b815260040160206040518083038186803b158015610f3957600080fd5b505afa158015610f4d573d6000803e3d6000fd5b505050506040513d601f19601f82011682018060405250810190610f71919061545f565b905081151581151514610fbe5760405162461bcd60e51b81526020600482015260156024820152741393d7d554d15497d313d1d250d7d4d5541413d495605a1b6044820152606401610edb565b6078546001600160401b03161561100b5760405162461bcd60e51b81526020600482015260116024820152704e4f5f4143544956455f5354414b45525360781b6044820152606401610edb565b607c54156110515760405162461bcd60e51b81526020600482015260136024820152724e4f5f50454e44494e475f574954484452415760681b6044820152606401610edb565b607280546001600160a01b0319166001600160a01b038516179055604051600d90600080516020615b4483398151915290600090a2505050565b611093612de7565b604051600490600080516020615b4483398151915290600090a2565b6067819055604051600c90600080516020615b4483398151915290600090a250565b306001600160a01b037f000000000000000000000000000000000000000000000000000000000000000016141561111a5760405162461bcd60e51b8152600401610edb9061547c565b7f00000000000000000000000000000000000000000000000000000000000000006001600160a01b031661114c612e4d565b6001600160a01b0316146111725760405162461bcd60e51b8152600401610edb906154c8565b6040805160008082526020820190925261118e91839190612e6e565b50565b607e8054610100600160a81b0319166101006001600160a01b03841602179055604051601f90600080516020615b4483398151915290600090a250565b6111d78161300e565b604051600790600080516020615b4483398151915290600090a250565b60335460ff166112165760405162461bcd60e51b8152600401610edb90615431565b600060016112226121f2565b6001600160401b0316156112725760405162461bcd60e51b81526020600482015260176024820152761393d397d1d1539154d254d7d393d11154d7d1561254d5604a1b6044820152606401610edb565b61127b83613062565b6112ba5760405162461bcd60e51b815260206004820152601060248201526f4e4f545f454d5054595f4245464f524560801b6044820152606401610edb565b60016112cc60c0850160a08601615539565b60038111156112dd576112dd615514565b1461132a5760405162461bcd60e51b815260206004820152601b60248201527f4245464f52455f4d414348494e455f4e4f545f46494e495348454400000000006044820152606401610edb565b60e083013582146113715760405162461bcd60e51b81526020600482015260116024820152701393d517d6915493d7d4d153911493d3d5607a1b6044820152606401610edb565b6001600160401b03811661138d61012085016101008601615175565b6001600160401b0316146113d65760405162461bcd60e51b815260206004820152601060248201526f494e424f585f4e4f545f41545f4f4e4560801b6044820152606401610edb565b6113e861014084016101208501615175565b6001600160401b03161561143e5760405162461bcd60e51b815260206004820152601c60248201527f504f534954494f4e5f494e5f4d4553534147455f4e4f545f5a45524f000000006044820152606401610edb565b600161145261018085016101608601615539565b600381111561146357611463615514565b146114b05760405162461bcd60e51b815260206004820152601a60248201527f41465445525f4d414348494e455f4e4f545f46494e49534845440000000000006044820152606401610edb565b60c08301356114cb8460006001600160401b038516816130e0565b506114d8600182856136f4565b604051601d90600080516020615b4483398151915290600090a250505050565b306001600160a01b037f00000000000000000000000000000000000000000000000000000000000000001614156115415760405162461bcd60e51b8152600401610edb9061547c565b7f00000000000000000000000000000000000000000000000000000000000000006001600160a01b0316611573612e4d565b6001600160a01b0316146115995760405162461bcd60e51b8152600401610edb906154c8565b600054610100900460ff166115b45760005460ff16156115b8565b303b155b61161b5760405162461bcd60e51b815260206004820152602e60248201527f496e697469616c697a61626c653a20636f6e747261637420697320616c72656160448201526d191e481a5b9a5d1a585b1a5e995960921b6064820152608401610edb565b600054610100900460ff1615801561163d576000805461ffff19166101011790555b43607d5561164e6020830183614ee0565b606a80546001600160a01b0319166001600160a01b039290921691909117905561167e6040830160208401614ee0565b606c80546001600160a01b0319166001600160a01b03929092169190911790556116ab6020830183614ee0565b6001600160a01b03166347fb24c56116c96060850160408601614ee0565b60016040518363ffffffff1660e01b81526004016116e892919061556a565b600060405180830381600087803b15801561170257600080fd5b505af1158015611716573d6000803e3d6000fd5b50611728925050506020830183614ee0565b6001600160a01b0316634f61f8506117466040850160208601614ee0565b6040518263ffffffff1660e01b81526004016117629190614eb7565b600060405180830381600087803b15801561177c57600080fd5b505af1158015611790573d6000803e3d6000fd5b506117a5925050506060830160408401614ee0565b606980546001600160a01b0319166001600160a01b03929092169190911790556117d56080830160608401614ee0565b606b80546001600160a01b0319166001600160a01b03929092169190911790556118026020830183614ee0565b6001600160a01b031663cee3d7286118206080850160608601614ee0565b60016040518363ffffffff1660e01b815260040161183f92919061556a565b600060405180830381600087803b15801561185957600080fd5b505af115801561186d573d6000803e3d6000fd5b506118829250505060a0830160808401614ee0565b606d80546001600160a01b0319166001600160a01b03929092169190911790556118af6020830183614ee0565b6001600160a01b03166347fb24c56118cd60a0850160808601614ee0565b60016040518363ffffffff1660e01b81526004016118ec92919061556a565b600060405180830381600087803b15801561190657600080fd5b505af115801561191a573d6000803e3d6000fd5b5061192f9250505060a0830160808401614ee0565b6001600160a01b031663cf8d56d660e0850135611950610100870187615585565b6040518463ffffffff1660e01b815260040161196e939291906155cb565b600060405180830381600087803b15801561198857600080fd5b505af115801561199c573d6000803e3d6000fd5b506119b1925050506040830160208401614ee0565b60405163e0bc972960e01b815260006004820181905260c0602483015260c4820181905260016044830181905260648301829052608483019190915260a48201526001600160a01b03919091169063e0bc97299060e401600060405180830381600087803b158015611a2257600080fd5b505af1158015611a36573d6000803e3d6000fd5b50611a4d9250505061012083016101008401614ee0565b606f80546001600160a01b0319166001600160a01b0392909216919091179055611a7f61014083016101208401614ee0565b607080546001600160a01b0319166001600160a01b0392909216919091179055611aaf60c0830160a08401614ee0565b606e80546001600160a01b0319166001600160a01b03929092169190911790556000611ad961384e565b9050611ae4816138a1565b611af16020850185615175565b6065805467ffffffffffffffff19166001600160401b0392909216919091179055611b226040850160208601615175565b606580546001600160401b0392909216600160401b0267ffffffffffffffff60401b1990921691909117905560e084013560665560608401356067556080840135606855604b607355611b73613b39565b6001600160a01b0316611b8c60e0860160c08701614ee0565b6001600160a01b03161415611bda5760405162461bcd60e51b815260206004820152601460248201527324a72b20a624a22fa2a9a1a927abafa0a226a4a760611b6044820152606401610edb565b611bea60c0850160a08601614ee0565b6001600160a01b0316611c0360e0860160c08701614ee0565b6001600160a01b03161415611c515760405162461bcd60e51b815260206004820152601460248201527324a72b20a624a22fa2a9a1a927abafa7aba722a960611b6044820152606401610edb565b611c6160e0850160c08601614ee0565b607180546001600160a01b0319166001600160a01b0392909216919091179055611c916060850160408601614ee0565b607280546001600160a01b0319166001600160a01b0392909216919091179055604080516080860135815260e086013560208201527ffc1b83c11d99d08a938e0b82a0bd45f822f71ff5abf23f999c93c4533d752464910160405180910390a1508015611d04576000805461ff00191690555b505050565b60335460ff16611d2b5760405162461bcd60e51b8152600401610edb90615431565b611d368383836136f4565b604051601890600080516020615b4483398151915290600090a2505050565b306001600160a01b037f0000000000000000000000000000000000000000000000000000000000000000161415611d9e5760405162461bcd60e51b8152600401610edb9061547c565b7f00000000000000000000000000000000000000000000000000000000000000006001600160a01b0316611dd0612e4d565b6001600160a01b031614611df65760405162461bcd60e51b8152600401610edb906154c8565b6040805160008082526020820190925261118e91839190613b61565b606a546040516347fb24c560e01b81526001600160a01b03909116906347fb24c590611e44908590859060040161556a565b600060405180830381600087803b158015611e5e57600080fd5b505af1158015611e72573d6000803e3d6000fd5b505060405160029250600080516020615b448339815191529150600090a25050565b306001600160a01b037f0000000000000000000000000000000000000000000000000000000000000000161415611edd5760405162461bcd60e51b8152600401610edb9061547c565b7f00000000000000000000000000000000000000000000000000000000000000006001600160a01b0316611f0f612e4d565b6001600160a01b031614611f355760405162461bcd60e51b8152600401610edb906154c8565b611f4182826001613b61565b5050565b606a546040516304f61f8560e41b81526001600160a01b0390911690634f61f85090611f75908490600401614eb7565b600060405180830381600087803b158015611f8f57600080fd5b505af1158015611fa3573d6000803e3d6000fd5b5050604051601b9250600080516020615b448339815191529150600090a250565b6000306001600160a01b037f0000000000000000000000000000000000000000000000000000000000000000161461205f5760405162461bcd60e51b815260206004820152603860248201527f555550535570677261646561626c653a206d757374206e6f742062652063616c6044820152771b1959081d1a1c9bdd59da0819195b1959d85d1958d85b1b60421b6064820152608401610edb565b50600080516020615b2483398151915290565b606980546001600160a01b0319166001600160a01b038316179055604051601c90600080516020615b4483398151915290600090a250565b606b546001600160a01b03828116911614156120f55760405162461bcd60e51b815260206004820152600a602482015269086aaa4be9eaaa8849eb60b31b6044820152606401610edb565b606a546040516319dc7ae560e31b81526001600160a01b039091169063cee3d7289061212890849060009060040161556a565b600060405180830381600087803b15801561214257600080fd5b505af1158015612156573d6000803e3d6000fd5b505060405160019250600080516020615b448339815191529150600090a250565b6065805467ffffffffffffffff60401b1916600160401b6001600160401b03841602179055604051600a90600080516020615b4483398151915290600090a250565b60006078826001600160401b0316815481106121d7576121d7615554565b6000918252602090912001546001600160a01b031692915050565b607554600160801b90046001600160401b031690565b60335460ff1661222a5760405162461bcd60e51b8152600401610edb90615431565b806122475760405162461bcd60e51b8152600401610edb90615601565b60005b8181101561235d57600060798185858581811061226957612269615554565b905060200201602081019061227e9190614ee0565b6001600160a01b03168152602081019190915260400160002060010154600160801b90046001600160401b0316146122ea5760405162461bcd60e51b815260206004820152600f60248201526e14d51052d15497d25397d0d2105313608a1b6044820152606401610edb565b61231b8383838181106122ff576122ff615554565b90506020020160208101906123149190614ee0565b6000613cdb565b5061234b83838381811061233157612331615554565b90506020020160208101906123469190614ee0565b613da0565b806123558161563c565b91505061224a565b50604051601690600080516020615b4483398151915290600090a25050565b612384613e46565b604051600390600080516020615b4483398151915290600090a2565b604051631b2ce7f360e11b81526001600160a01b03831690633659cfe6906123cc908490600401614eb7565b600060405180830381600087803b1580156123e657600080fd5b505af11580156123fa573d6000803e3d6000fd5b505060405160149250600080516020615b448339815191529150600090a25050565b6068819055604051601a90600080516020615b4483398151915290600090a250565b6000805b607a5481101561249957607a818154811061245f5761245f615554565b6000918252602090912001546001600160a01b03848116911614156124875750600192915050565b806124918161563c565b915050612442565b50600092915050565b6124aa614d74565b6001600160401b03821660009081526076602052604090206040805161018081018252825481526001830154602082015260028301549181019190915260038201546001600160401b038082166060840152600160401b80830482166080850152600160801b808404831660a0860152600160c01b93849004831660c0860152600486015480841660e0870152918204831661010086015281048216610120850152919091041661014082015260059091015461016082015292915050565b6073819055604051600890600080516020615b4483398151915290600090a250565b306001600160a01b037f00000000000000000000000000000000000000000000000000000000000000001614156125d45760405162461bcd60e51b8152600401610edb9061547c565b7f00000000000000000000000000000000000000000000000000000000000000006001600160a01b0316612606612e4d565b6001600160a01b03161461262c5760405162461bcd60e51b8152600401610edb906154c8565b611f4182826001612e6e565b60335460ff1661265a5760405162461bcd60e51b8152600401610edb90615431565b6075546001600160401b038581169116146126af5760405162461bcd60e51b815260206004820152601560248201527413d3931657d310551154d517d0d3d3919254935151605a1b6044820152606401610edb565b6126bb828585846130e0565b50604051601790600080516020615b4483398151915290600090a250505050565b607e805460ff1916821515179055604051601e90600080516020615b4483398151915290600090a250565b826127245760405162461bcd60e51b8152600401610edb90615601565b8281146127435760405162461bcd60e51b8152600401610edb90615657565b60005b838110156127da5782828281811061276057612760615554565b9050602002016020810190612775919061538d565b6074600087878581811061278b5761278b615554565b90506020020160208101906127a09190614ee0565b6001600160a01b031681526020810191909152604001600020805460ff1916911515919091179055806127d28161563c565b915050612746565b50604051600690600080516020615b4483398151915290600090a250505050565b6001600160401b03821660009081526077602090815260408083206001600160a01b038516845290915290205460ff165b92915050565b6000816001600160401b0316116128845760405162461bcd60e51b81526020600482015260166024820152751253959053125117d0d3d39192549357d411549253d160521b6044820152606401610edb565b6065805467ffffffffffffffff19166001600160401b038316179055604051600990600080516020615b4483398151915290600090a250565b6000607a82815481106121d7576121d7615554565b6001600160a01b038116600090815260796020526040812060010154600160c01b900460ff16801561282c575060755461282c906001600160401b0316836127fb565b6000607a828154811061292a5761292a615554565b600091825260209091200154600160a01b90046001600160401b031692915050565b60335460ff1661296e5760405162461bcd60e51b8152600401610edb90615431565b8261298b5760405162461bcd60e51b8152600401610edb90615601565b8281146129aa5760405162461bcd60e51b8152600401610edb90615657565b60005b83811015612b3b576000612a0d8686848181106129cc576129cc615554565b90506020020160208101906129e19190614ee0565b8585858181106129f3576129f3615554565b9050602002016020810190612a089190614ee0565b613ec1565b90506001600160401b038116612a545760405162461bcd60e51b815260206004820152600c60248201526b1393d517d25397d0d210531360a21b6044820152606401610edb565b612aac868684818110612a6957612a69615554565b9050602002016020810190612a7e9190614ee0565b6001600160a01b03166000908152607960205260409020600101805467ffffffffffffffff60801b19169055565b612ac1848484818110612a6957612a69615554565b606e546040516356e9df9760e01b81526001600160401b03831660048201526001600160a01b03909116906356e9df9790602401600060405180830381600087803b158015612b0f57600080fd5b505af1158015612b23573d6000803e3d6000fd5b50505050508080612b339061563c565b9150506129ad565b50604051601590600080516020615b4483398151915290600090a250505050565b60007f000000000000000000000000000000000000000000000000000000000000000015612bba576001600160401b0382166000908152607f60205260409020548061282c5760405162461bcd60e51b8152600401610edb9061567d565b6001600160401b03821660009081526076602052604081206003810154909150600160401b90046001600160401b0316612c065760405162461bcd60e51b8152600401610edb9061567d565b60040154600160c01b90046001600160401b031692915050565b919050565b612c2d613b39565b6001600160a01b0316816001600160a01b03161415612c7f5760405162461bcd60e51b815260206004820152600e60248201526d494e56414c49445f455343524f5760901b6044820152606401610edb565b607180546001600160a01b0319166001600160a01b038316179055604051601990600080516020615b4483398151915290600090a250565b606b80546001600160a01b0319166001600160a01b0383811691909117909155606a546040516319dc7ae560e31b815291169063cee3d72890612d0190849060019060040161556a565b600060405180830381600087803b158015612d1b57600080fd5b505af1158015612d2f573d6000803e3d6000fd5b505060405160009250600080516020615b4483398151915291508290a250565b60408051600481526024810182526020810180516001600160e01b03166302881c7960e11b179052905160009182918291606491612d8d91906156ca565b600060405180830381855afa9150503d8060008114612dc8576040519150601f19603f3d011682016040523d82523d6000602084013e612dcd565b606091505b5091509150818015612de0575080516020145b9250505090565b60335460ff16612e095760405162461bcd60e51b8152600401610edb90615431565b6033805460ff191690557f5db9ee0a495bf2e6ff9c91a7834c1ba4fdd244a5e8aa4e537bd38aeae4b073aa335b604051612e439190614eb7565b60405180910390a1565b6000600080516020615b248339815191525b546001600160a01b0316919050565b7f49bd798cd84788856140a4cd5030756b4d08a9e4d55db725ec195f232d262a895460ff1615612ea157611d0483613f8f565b826001600160a01b03166352d1902d6040518163ffffffff1660e01b815260040160206040518083038186803b158015612eda57600080fd5b505afa925050508015612f0a575060408051601f3d908101601f19168201909252612f07918101906156e6565b60015b612f775760405162461bcd60e51b815260206004820152603860248201527f45524331393637557067726164653a206e6577207365636f6e6461727920696d604482015277706c656d656e746174696f6e206973206e6f74205555505360401b6064820152608401610edb565b7f2b1dbce74324248c222f0ec2d5ed7bd323cfc425b336f0253c5ccfda7265546d81146130025760405162461bcd60e51b815260206004820152603360248201527f45524331393637557067726164653a20756e737570706f72746564207365636f6044820152721b99185c9e481c1c9bde1a58589b1955555251606a1b6064820152608401610edb565b50611d0483838361404a565b7f7e644d79422f17c01e4894b5f4f588d331ebfa28653d42ae832dc59e38c9798f613037613b39565b604080516001600160a01b03928316815291841660208301520160405180910390a161118e81614075565b6000813515801561307557506020820135155b8015613097575061308c6060830160408401615175565b6001600160401b0316155b80156130b957506130ae6080830160608401615175565b6001600160401b0316155b801561282c57506130d060a0830160808401615175565b6001600160401b03161592915050565b600060016130f661018087016101608801615539565b600381111561310757613107615514565b14806131355750600261312261018087016101608801615539565b600381111561313357613133615514565b145b6131745760405162461bcd60e51b815260206004820152601060248201526f4241445f41465445525f53544154555360801b6044820152606401610edb565b61317c614dd8565b613185856124a2565b6060820152606a54604080516221048360e21b815290516001600160a01b03909216916284120c91600480820192602092909190829003018186803b1580156131cd57600080fd5b505afa1580156131e1573d6000803e3d6000fd5b505050506040513d601f19601f8201168201806040525081019061320591906156e6565b81526060810151516132178786614101565b146132565760405162461bcd60e51b815260206004820152600f60248201526e0a0a48aacbea6a882a88abe9082a69608b1b6044820152606401610edb565b600061327261326d36899003890160c08a016157c1565b61415b565b9050600061328861326d368a90038a018a6157c1565b9050806001600160401b0316826001600160401b031610156132de5760405162461bcd60e51b815260206004820152600f60248201526e494e424f585f4241434b574152445360881b6044820152606401610edb565b806001600160401b0316826001600160401b031614156133845761330f61330a368a90038a018a6157c1565b614170565b6001600160401b031661332d61330a368b90038b0160c08c016157c1565b6001600160401b031610156133845760405162461bcd60e51b815260206004820152601a60248201527f494e424f585f504f535f494e5f4d53475f4241434b57415244530000000000006044820152606401610edb565b60026133986101808a016101608b01615539565b60038111156133a9576133a9615514565b14806133d2575060006133c761330a368b90038b0160c08c016157c1565b6001600160401b0316115b156133e557816133e1816157dd565b9250505b82516001600160401b03831611156134305760405162461bcd60e51b815260206004820152600e60248201526d12539093d617d41054d517d1539160921b6044820152606401610edb565b6001600160401b038216156134d857606a546001600160a01b03166316bf557961345b600185615804565b6040516001600160e01b031960e084901b1681526001600160401b03909116600482015260240160206040518083038186803b15801561349a57600080fd5b505afa1580156134ae573d6000803e3d6000fd5b505050506040513d601f19601f820116820180604052508101906134d291906156e6565b60e08401525b506134f290506134ed3688900388018861586b565b61417f565b604082015260655461350d906001600160401b0316436158da565b6001600160401b0390811660c0830152606082015161012001511615801560a083015261356357606081015161012001516001600160401b03166000908152607660205260409020600501546080820152613573565b6060810151610160015160808201525b6135928160a00151826080015183604001518460e0015160685461421e565b9150828214806135a0575082155b6135e35760405162461bcd60e51b81526020600482015260146024820152730aa9c8ab0a08a86a88a88be9c9e888abe9082a6960631b6044820152606401610edb565b61362b6135f78760c0018360000151614101565b61360883604001514360685461428b565b61361f61361a368b90038b018b61586b565b6142ca565b888560c00151876142f4565b6020820152600061363a6121f2565b6136459060016158da565b90506000613667876001600160401b0316600090815260766020526040902090565b90506136738183614348565b61368083602001516143b9565b505081816060015161016001516136956121f2565b6001600160401b03167ffeec084feceb8522cbaa8647a86ea86caad33f43089346204541dbead500657884604001518a8660e0015160685488600001516040516136e3959493929190615980565b60405180910390a450949350505050565b6001600160401b038316600090815260766020526040902061371683836145a7565b8160020154146137575760405162461bcd60e51b815260206004820152600c60248201526b434f4e4649524d5f4441544160a01b6044820152606401610edb565b606b54604051630502677360e51b815260048101849052602481018590526001600160a01b039091169063a04cee6090604401600060405180830381600087803b1580156137a457600080fd5b505af11580156137b8573d6000803e3d6000fd5b50506075805467ffffffffffffffff19166001600160401b038816179055506137e490508460016158da565b6075805467ffffffffffffffff60401b1916600160401b6001600160401b03938416021790556040805185815260208101859052918616917f22ef0479a7ff660660d1c2fe35f1b632cf31675c2d9378db8cec95b00d8ffa3c91015b60405180910390a250505050565b613856614d74565b61385e614e29565b600061389060405180604001604052808481526020016001600381111561388757613887615514565b905260016145c3565b9050612de0816000808043816142f4565b6138a96145ea565b60008080526076602090815282517fafbc767fed27552cbeceb3d11150dacedabc53b0cc52ac5aa6285a747a181958558201517fafbc767fed27552cbeceb3d11150dacedabc53b0cc52ac5aa6285a747a1819595560408201517fafbc767fed27552cbeceb3d11150dacedabc53b0cc52ac5aa6285a747a18195a5560608201517fafbc767fed27552cbeceb3d11150dacedabc53b0cc52ac5aa6285a747a18195b8054608085015160a086015160c08701516001600160401b039586166001600160801b031994851617600160401b9387168402176001600160801b03908116600160801b93881684026001600160c01b0390811691909117600160c01b93891684021790965560e08901517fafbc767fed27552cbeceb3d11150dacedabc53b0cc52ac5aa6285a747a18195c80546101008c01516101208d01516101408e0151948c169290991691909117908a169096029590951790911694871690920290941692909217919093169091021790556101608201517fafbc767fed27552cbeceb3d11150dacedabc53b0cc52ac5aa6285a747a18195d55613a4d9060016158da565b607560086101000a8154816001600160401b0302191690836001600160401b031602179055507f00000000000000000000000000000000000000000000000000000000000000001561118e5760646001600160a01b031663a3b1b31d6040518163ffffffff1660e01b815260040160206040518083038186803b158015613ad357600080fd5b505afa158015613ae7573d6000803e3d6000fd5b505050506040513d601f19601f82011682018060405250810190613b0b91906156e6565b60008052607f6020527f18b3a2798575d3a428c1f52e616a74b071539854e037e7d7c535365d474f40335550565b60007fb53127684a568b3173ae13b9f8a6016e243e63b6e8ee1178d6a717850b5d6103612e5f565b7f4910fdfa16fed3260ed0e7147f7cc6da11a60208b5b9406d12a635614ffd91435460ff1615613b9457611d048361461b565b826001600160a01b03166352d1902d6040518163ffffffff1660e01b815260040160206040518083038186803b158015613bcd57600080fd5b505afa925050508015613bfd575060408051601f3d908101601f19168201909252613bfa918101906156e6565b60015b613c605760405162461bcd60e51b815260206004820152602e60248201527f45524331393637557067726164653a206e657720696d706c656d656e7461746960448201526d6f6e206973206e6f74205555505360901b6064820152608401610edb565b600080516020615b248339815191528114613ccf5760405162461bcd60e51b815260206004820152602960248201527f45524331393637557067726164653a20756e737570706f727465642070726f786044820152681a58589b195555525160ba1b6064820152608401610edb565b50611d0483838361469d565b6001600160a01b0382166000908152607960205260408120805480841115613d385760405162461bcd60e51b815260206004820152601060248201526f544f4f5f4c4954544c455f5354414b4560801b6044820152606401610edb565b6000613d4485836159e0565b8584559050613d5386826146a6565b60408051838152602081018790526001600160a01b038816917febd093d389ab57f3566918d2c379a2b4d9539e8eb95efad9d5e465457833fde6910160405180910390a295945050505050565b6001600160a01b03808216600081815260796020908152604080832081518083019092529381526001808501546001600160401b03600160401b9091048116938301938452607a8054928301815590945290517ff0440771a29e57e18c66727944770b82cc77924aef333c927ce6bdd2cdb3ae0390910180549251909316600160a01b026001600160e01b031990921694169390931792909217909155611f4182614742565b60335460ff1615613e8c5760405162461bcd60e51b815260206004820152601060248201526f14185d5cd8589b194e881c185d5cd95960821b6044820152606401610edb565b6033805460ff191660011790557f62e78cea01bee320cd4e420270b5ea74000d11b0c9f74754ebdbfc544b05a258612e363390565b6001600160a01b03828116600090815260796020526040808220928416825281206001830154919291600160801b90046001600160401b031680613f315760405162461bcd60e51b81526020600482015260076024820152661393d7d0d2105360ca1b6044820152606401610edb565b60018201546001600160401b03828116600160801b9092041614613f865760405162461bcd60e51b815260206004820152600c60248201526b1112519197d25397d0d2105360a21b6044820152606401610edb565b95945050505050565b6001600160a01b0381163b6140065760405162461bcd60e51b815260206004820152603760248201527f455243313936373a206e6577207365636f6e6461727920696d706c656d656e74604482015276185d1a5bdb881a5cc81b9bdd08184818dbdb9d1c9858dd604a1b6064820152608401610edb565b807f2b1dbce74324248c222f0ec2d5ed7bd323cfc425b336f0253c5ccfda7265546d5b80546001600160a01b0319166001600160a01b039290921691909117905550565b61405383614905565b6000825111806140605750805b15611d045761406f8383614945565b50505050565b6001600160a01b0381166140da5760405162461bcd60e51b815260206004820152602660248201527f455243313936373a206e65772061646d696e20697320746865207a65726f206160448201526564647265737360d01b6064820152608401610edb565b807fb53127684a568b3173ae13b9f8a6016e243e63b6e8ee1178d6a717850b5d6103614029565b600061411a614115368590038501856157c1565b61496a565b8261412b60c0860160a08701615539565b60405160200161413d939291906159f7565b60405160208183030381529060405280519060200120905092915050565b6020810151600090815b602002015192915050565b60208101516000906001614165565b6000614189614e4e565b825160200151819060038111156141a2576141a2615514565b908160038111156141b5576141b5615514565b9052506020838101518101519082019060038111156141d6576141d6615514565b908160038111156141e9576141e9615514565b9052506141f4614e6c565b83515181526020808501515190820152604084015161421690839083906149ef565b949350505050565b6000808661422d576000614230565b60015b6040516001600160f81b031960f883901b1660208201526021810188905260418101879052606181018690526081810185905290915060a1016040516020818303038152906040528051906020012091505095945050505050565b6040805160208101859052908101839052606081018290526000906080015b6040516020818303038152906040528051906020012090505b9392505050565b600061282c6142e0836020015160000151614a99565b6020840151516142ef90614aa4565b6145a7565b6142fc614d74565b614304614d74565b96875250602086019490945260408501929092526001600160401b0390811660608501529081166080840181905260a0840152431661014083015261016082015290565b6004820154600160401b90046001600160401b03166143895760048201805467ffffffffffffffff60401b1916600160401b436001600160401b0316021790555b600490910180546001600160401b03909216600160801b0267ffffffffffffffff60801b19909216919091179055565b60758054600160801b90046001600160401b03169060106143d9836157dd565b825461010092830a6001600160401b03818102199092169282160291909117909255607554600160801b908190048316600090815260766020908152604091829020875181559087015160018201559086015160028201556060860151600382018054608089015160a08a015160c08b01519489166001600160801b031993841617600160401b928a168302176001600160801b03908116918a1688026001600160c01b0390811692909217600160c01b968b1687021790945560e08b0151600487018054998d01516101208e01516101408f0151938d169b9096169a909a17998b16909302989098179093169188169095029091161793909416909302919091179055610160830151600590910155507f00000000000000000000000000000000000000000000000000000000000000001561118e5760646001600160a01b031663a3b1b31d6040518163ffffffff1660e01b815260040160206040518083038186803b15801561454a57600080fd5b505afa15801561455e573d6000803e3d6000fd5b505050506040513d601f19601f8201168201806040525081019061458291906156e6565b607554600160801b90046001600160401b03166000908152607f602052604090205550565b604080516020810184905290810182905260009060600161413d565b60006145d2836000015161496a565b82846020015160405160200161413d939291906159f7565b600054610100900460ff166146115760405162461bcd60e51b8152600401610edb90615a35565b614619614ab0565b565b6001600160a01b0381163b6146885760405162461bcd60e51b815260206004820152602d60248201527f455243313936373a206e657720696d706c656d656e746174696f6e206973206e60448201526c1bdd08184818dbdb9d1c9858dd609a1b6064820152608401610edb565b80600080516020615b24833981519152614029565b61405383614ae3565b6001600160a01b0382166000908152607b6020526040812054906146ca8383615a80565b6001600160a01b0385166000908152607b60205260408120829055607c805492935085929091906146fc908490615a80565b909155505060408051838152602081018390526001600160a01b038616917fa740af14c56e4e04a617b1de1eb20de73270decbaaead14f142aabf3038e5ae29101613840565b6001600160a01b03811660009081526079602052604090206001810154600160c01b900460ff166147a25760405162461bcd60e51b815260206004820152600a6024820152691393d517d4d51052d15160b21b6044820152606401610edb565b600180820154607880546001600160401b039092169290916147c491906159e0565b815481106147d4576147d4615554565b600091825260209091200154607880546001600160a01b03909216916001600160401b03841690811061480957614809615554565b9060005260206000200160006101000a8154816001600160a01b0302191690836001600160a01b0316021790555080607960006078846001600160401b03168154811061485857614858615554565b6000918252602080832091909101546001600160a01b031683528201929092526040019020600101805467ffffffffffffffff19166001600160401b039290921691909117905560788054806148b0576148b0615a98565b60008281526020808220830160001990810180546001600160a01b03191690559092019092556001600160a01b03949094168152607990935250506040812090815560010180546001600160c81b0319169055565b61490e81613f8f565b6040516001600160a01b038216907ff7eed2a7fabbf1bec8d55ed5e785cc76622376dde5df4ff15470551e030b813490600090a250565b60606142c38383604051806060016040528060278152602001615b6460279139614b23565b805180516020918201519282015180518184015160409283015183516c23b637b130b61039ba30ba329d60991b81880152602d810195909552604d8501969096526001600160c01b031960c092831b8116606d86015290821b8116607585015294901b909316607d820152825180820360650181526085909101909252815191012090565b60408051600280825260608201835260009283929190602083019080368337019050508551909150614a3190614a2c8660005b602002015161496a565b614c00565b81600081518110614a4457614a44615554565b6020908102919091010152614a658560016020020151614a2c866001614a22565b81600181518110614a7857614a78615554565b602002602001018181525050613f866000846001600160401b031683614d24565b805160009081614165565b80516000906001614165565b600054610100900460ff16614ad75760405162461bcd60e51b8152600401610edb90615a35565b6033805460ff19169055565b614aec8161461b565b6040516001600160a01b038216907fbc7cd75a20ee27fd9adebab32041f755214dbc6bffa90cc0225b39da2e5c2d3b90600090a250565b60606001600160a01b0384163b614b8b5760405162461bcd60e51b815260206004820152602660248201527f416464726573733a2064656c65676174652063616c6c20746f206e6f6e2d636f6044820152651b9d1c9858dd60d21b6064820152608401610edb565b600080856001600160a01b031685604051614ba691906156ca565b600060405180830381855af49150503d8060008114614be1576040519150601f19603f3d011682016040523d82523d6000602084013e614be6565b606091505b5091509150614bf6828286614d3b565b9695505050505050565b60006001836003811115614c1657614c16615514565b1415614c5c576040516b213637b1b59039ba30ba329d60a11b6020820152602c8101839052604c015b60405160208183030381529060405280519060200120905061282c565b6002836003811115614c7057614c70615514565b1415614ca65760405174213637b1b59039ba30ba32961032b93937b932b21d60591b602082015260358101839052605501614c3f565b6003836003811115614cba57614cba615514565b1415614ce95760405174213637b1b59039ba30ba3296103a37b7903330b91d60591b6020820152603501614c3f565b60405162461bcd60e51b815260206004820152601060248201526f4241445f424c4f434b5f53544154555360801b6044820152606401610edb565b60008383836040516020016142aa93929190615aae565b60608315614d4a5750816142c3565b825115614d5a5782518084602001fd5b8160405162461bcd60e51b8152600401610edb9190615af0565b6040805161018081018252600080825260208201819052918101829052606081018290526080810182905260a0810182905260c0810182905260e0810182905261010081018290526101208101829052610140810182905261016081019190915290565b60405180610100016040528060008152602001614df3614d74565b815260006020820152604001614e07614d74565b8152600060208201819052604082018190526060820181905260809091015290565b6040518060400160405280614e3c614e4e565b8152602001614e49614e99565b905290565b60405180604001604052806002906020820280368337509192915050565b60405180604001604052806002905b614e83614e29565b815260200190600190039081614e7b5790505090565b60405180606001604052806003906020820280368337509192915050565b6001600160a01b0391909116815260200190565b6001600160a01b038116811461118e57600080fd5b600060208284031215614ef257600080fd5b81356142c381614ecb565b600060208284031215614f0f57600080fd5b5035919050565b60006101a08284031215614f2957600080fd5b50919050565b60006101a08284031215614f4257600080fd5b6142c38383614f16565b600080828403610160811215614f6157600080fd5b83356001600160401b03811115614f7757600080fd5b84016101c08187031215614f8a57600080fd5b9250610140601f1982011215614f9f57600080fd5b506020830190509250929050565b80356001600160401b0381168114612c2057600080fd5b600080600060608486031215614fd957600080fd5b614fe284614fad565b95602085013595506040909401359392505050565b801515811461118e57600080fd5b6000806040838503121561501857600080fd5b823561502381614ecb565b9150602083013561503381614ff7565b809150509250929050565b634e487b7160e01b600052604160045260246000fd5b604080519081016001600160401b03811182821017156150765761507661503e565b60405290565b604051606081016001600160401b03811182821017156150765761507661503e565b604051601f8201601f191681016001600160401b03811182821017156150c6576150c661503e565b604052919050565b600080604083850312156150e157600080fd5b82356150ec81614ecb565b91506020838101356001600160401b038082111561510957600080fd5b818601915086601f83011261511d57600080fd5b81358181111561512f5761512f61503e565b615141601f8201601f1916850161509e565b9150808252878482850101111561515757600080fd5b80848401858401376000848284010152508093505050509250929050565b60006020828403121561518757600080fd5b6142c382614fad565b60008083601f8401126151a257600080fd5b5081356001600160401b038111156151b957600080fd5b6020830191508360208260051b85010111156151d457600080fd5b9250929050565b600080602083850312156151ee57600080fd5b82356001600160401b0381111561520457600080fd5b61521085828601615190565b90969095509350505050565b6000806040838503121561522f57600080fd5b823561523a81614ecb565b9150602083013561503381614ecb565b600061018082019050825182526020830151602083015260408301516040830152606083015161528560608401826001600160401b03169052565b5060808301516152a060808401826001600160401b03169052565b5060a08301516152bb60a08401826001600160401b03169052565b5060c08301516152d660c08401826001600160401b03169052565b5060e08301516152f160e08401826001600160401b03169052565b50610100838101516001600160401b038116848301525050610120838101516001600160401b038116848301525050610140838101516001600160401b03811684830152505061016092830151919092015290565b600080600080610200858703121561535d57600080fd5b61536685614fad565b93506020850135925061537c8660408701614f16565b939692955092936101e00135925050565b60006020828403121561539f57600080fd5b81356142c381614ff7565b600080600080604085870312156153c057600080fd5b84356001600160401b03808211156153d757600080fd5b6153e388838901615190565b909650945060208701359150808211156153fc57600080fd5b5061540987828801615190565b95989497509550505050565b6000806040838503121561542857600080fd5b61523a83614fad565b60208082526014908201527314185d5cd8589b194e881b9bdd081c185d5cd95960621b604082015260600190565b60006020828403121561547157600080fd5b81516142c381614ff7565b6020808252602c908201527f46756e6374696f6e206d7573742062652063616c6c6564207468726f7567682060408201526b19195b1959d85d1958d85b1b60a21b606082015260800190565b6020808252602c908201527f46756e6374696f6e206d7573742062652063616c6c6564207468726f7567682060408201526b6163746976652070726f787960a01b606082015260800190565b634e487b7160e01b600052602160045260246000fd5b803560048110612c2057600080fd5b60006020828403121561554b57600080fd5b6142c38261552a565b634e487b7160e01b600052603260045260246000fd5b6001600160a01b039290921682521515602082015260400190565b6000808335601e1984360301811261559c57600080fd5b8301803591506001600160401b038211156155b657600080fd5b6020019150368190038213156151d457600080fd5b83815260406020820152816040820152818360608301376000818301606090810191909152601f909201601f1916010192915050565b6020808252600b908201526a454d5054595f415252415960a81b604082015260600190565b634e487b7160e01b600052601160045260246000fd5b600060001982141561565057615650615626565b5060010190565b6020808252600c908201526b0aea49e9c8ebe988a9c8ea8960a31b604082015260600190565b6020808252600790820152664e4f5f4e4f444560c81b604082015260600190565b60005b838110156156b95781810151838201526020016156a1565b8381111561406f5750506000910152565b600082516156dc81846020870161569e565b9190910192915050565b6000602082840312156156f857600080fd5b5051919050565b600060a0828403121561571157600080fd5b615719615054565b905082601f83011261572a57600080fd5b615732615054565b80604084018581111561574457600080fd5b845b8181101561575e578035845260209384019301615746565b5081845285605f86011261577157600080fd5b61577961507c565b925082915060a085018681111561578f57600080fd5b808210156157b3576157a082614fad565b845260208401935060208201915061578f565b505060208301525092915050565b600060a082840312156157d357600080fd5b6142c383836156ff565b60006001600160401b03808316818114156157fa576157fa615626565b6001019392505050565b60006001600160401b038381169083168181101561582457615824615626565b039392505050565b600060c0828403121561583e57600080fd5b615846615054565b905061585283836156ff565b815261586060a0830161552a565b602082015292915050565b60006101a0828403121561587e57600080fd5b604051606081018181106001600160401b03821117156158a0576158a061503e565b6040526158ad848461582c565b81526158bc8460c0850161582c565b60208201526158ce6101808401614fad565b60408201529392505050565b60006001600160401b038083168185168083038211156158fc576158fc615626565b01949350505050565b604081833760006040838101828152908301915b6003811015615948576001600160401b0361593384614fad565b16825260209283019290910190600101615919565b50505061595760a0820161552a565b6004811061597557634e487b7160e01b600052602160045260246000fd5b8060a0840152505050565b85815261022081016159956020830187615905565b6159a560e0830160c08801615905565b6001600160401b036159ba6101808801614fad565b166101a0830152846101c0830152836101e0830152826102008301529695505050505050565b6000828210156159f2576159f2615626565b500390565b838152826020820152600060048310615a2057634e487b7160e01b600052602160045260246000fd5b5060f89190911b604082015260410192915050565b6020808252602b908201527f496e697469616c697a61626c653a20636f6e7472616374206973206e6f74206960408201526a6e697469616c697a696e6760a81b606082015260800190565b60008219821115615a9357615a93615626565b500190565b634e487b7160e01b600052603160045260246000fd5b83815260006020848184015260408301845182860160005b82811015615ae257815184529284019290840190600101615ac6565b509198975050505050505050565b6020815260008251806020840152615b0f81604085016020870161569e565b601f01601f1916919091016040019291505056fe360894a13ba1a3210667c828492db98dca3e2076cc3735a920a3ca505d382bbcea8787f128d10b2cc0317b0c3960f9ad447f7f6c1ed189db1083ccffd20f456e416464726573733a206c6f772d6c6576656c2064656c65676174652063616c6c206661696c6564a2646970667358221220572fb245498b15cc9bd41dadd969c3e1cc386712a39f927ec7478e13e0d764d564736f6c63430008090033",
  "linkReferences": {},
  "deployedLinkReferences": {}
}