{
  "_format": "hh-sol-artifact-1",
  "contractName": "OneStepProverHostIo",
  "sourceName": "src/osp/OneStepProverHostIo.sol",
  "abi": [
    {
      "inputs": [
        {
          "internalType": "address",
          "name": "hotshotAddr",
          "type": "address"
        }
      ],
      "stateMutability": "nonpayable",
      "type": "constructor"
    },
    {
      "inputs": [
        {
          "internalType": "uint256",
          "name": "h",
          "type": "uint256"
        }
      ],
      "name": "_getHotShotCommitment",
      "outputs": [
        {
          "internalType": "uint256",
          "name": "",
          "type": "uint256"
        }
      ],
      "stateMutability": "view",
      "type": "function"
    },
    {
      "inputs": [
        {
          "components": [
            {
              "internalType": "uint256",
              "name": "maxInboxMessagesRead",
              "type": "uint256"
            },
            {
              "internalType": "contract IBridge",
              "name": "bridge",
              "type": "address"
            }
          ],
          "internalType": "struct ExecutionContext",
          "name": "execCtx",
          "type": "tuple"
        },
        {
          "components": [
            {
              "internalType": "enum MachineStatus",
              "name": "status",
              "type": "uint8"
            },
            {
              "components": [
                {
                  "components": [
                    {
                      "components": [
                        {
                          "internalType": "enum ValueType",
                          "name": "valueType",
                          "type": "uint8"
                        },
                        {
                          "internalType": "uint256",
                          "name": "contents",
                          "type": "uint256"
                        }
                      ],
                      "internalType": "struct Value[]",
                      "name": "inner",
                      "type": "tuple[]"
                    }
                  ],
                  "internalType": "struct ValueArray",
                  "name": "proved",
                  "type": "tuple"
                },
                {
                  "internalType": "bytes32",
                  "name": "remainingHash",
                  "type": "bytes32"
                }
              ],
              "internalType": "struct ValueStack",
              "name": "valueStack",
              "type": "tuple"
            },
            {
              "components": [
                {
                  "internalType": "bytes32",
                  "name": "inactiveStackHash",
                  "type": "bytes32"
                },
                {
                  "internalType": "bytes32",
                  "name": "remainingHash",
                  "type": "bytes32"
                }
              ],
              "internalType": "struct MultiStack",
              "name": "valueMultiStack",
              "type": "tuple"
            },
            {
              "components": [
                {
                  "components": [
                    {
                      "components": [
                        {
                          "internalType": "enum ValueType",
                          "name": "valueType",
                          "type": "uint8"
                        },
                        {
                          "internalType": "uint256",
                          "name": "contents",
                          "type": "uint256"
                        }
                      ],
                      "internalType": "struct Value[]",
                      "name": "inner",
                      "type": "tuple[]"
                    }
                  ],
                  "internalType": "struct ValueArray",
                  "name": "proved",
                  "type": "tuple"
                },
                {
                  "internalType": "bytes32",
                  "name": "remainingHash",
                  "type": "bytes32"
                }
              ],
              "internalType": "struct ValueStack",
              "name": "internalStack",
              "type": "tuple"
            },
            {
              "components": [
                {
                  "components": [
                    {
                      "components": [
                        {
                          "internalType": "enum ValueType",
                          "name": "valueType",
                          "type": "uint8"
                        },
                        {
                          "internalType": "uint256",
                          "name": "contents",
                          "type": "uint256"
                        }
                      ],
                      "internalType": "struct Value",
                      "name": "returnPc",
                      "type": "tuple"
                    },
                    {
                      "internalType": "bytes32",
                      "name": "localsMerkleRoot",
                      "type": "bytes32"
                    },
                    {
                      "internalType": "uint32",
                      "name": "callerModule",
                      "type": "uint32"
                    },
                    {
                      "internalType": "uint32",
                      "name": "callerModuleInternals",
                      "type": "uint32"
                    }
                  ],
                  "internalType": "struct StackFrame[]",
                  "name": "proved",
                  "type": "tuple[]"
                },
                {
                  "internalType": "bytes32",
                  "name": "remainingHash",
                  "type": "bytes32"
                }
              ],
              "internalType": "struct StackFrameWindow",
              "name": "frameStack",
              "type": "tuple"
            },
            {
              "components": [
                {
                  "internalType": "bytes32",
                  "name": "inactiveStackHash",
                  "type": "bytes32"
                },
                {
                  "internalType": "bytes32",
                  "name": "remainingHash",
                  "type": "bytes32"
                }
              ],
              "internalType": "struct MultiStack",
              "name": "frameMultiStack",
              "type": "tuple"
            },
            {
              "internalType": "bytes32",
              "name": "globalStateHash",
              "type": "bytes32"
            },
            {
              "internalType": "uint32",
              "name": "moduleIdx",
              "type": "uint32"
            },
            {
              "internalType": "uint32",
              "name": "functionIdx",
              "type": "uint32"
            },
            {
              "internalType": "uint32",
              "name": "functionPc",
              "type": "uint32"
            },
            {
              "internalType": "bytes32",
              "name": "recoveryPc",
              "type": "bytes32"
            },
            {
              "internalType": "bytes32",
              "name": "modulesRoot",
              "type": "bytes32"
            }
          ],
          "internalType": "struct Machine",
          "name": "startMach",
          "type": "tuple"
        },
        {
          "components": [
            {
              "internalType": "bytes32",
              "name": "globalsMerkleRoot",
              "type": "bytes32"
            },
            {
              "components": [
                {
                  "internalType": "uint64",
                  "name": "size",
                  "type": "uint64"
                },
                {
                  "internalType": "uint64",
                  "name": "maxSize",
                  "type": "uint64"
                },
                {
                  "internalType": "bytes32",
                  "name": "merkleRoot",
                  "type": "bytes32"
                }
              ],
              "internalType": "struct ModuleMemory",
              "name": "moduleMemory",
              "type": "tuple"
            },
            {
              "internalType": "bytes32",
              "name": "tablesMerkleRoot",
              "type": "bytes32"
            },
            {
              "internalType": "bytes32",
              "name": "functionsMerkleRoot",
              "type": "bytes32"
            },
            {
              "internalType": "bytes32",
              "name": "extraHash",
              "type": "bytes32"
            },
            {
              "internalType": "uint32",
              "name": "internalsOffset",
              "type": "uint32"
            }
          ],
          "internalType": "struct Module",
          "name": "startMod",
          "type": "tuple"
        },
        {
          "components": [
            {
              "internalType": "uint16",
              "name": "opcode",
              "type": "uint16"
            },
            {
              "internalType": "uint256",
              "name": "argumentData",
              "type": "uint256"
            }
          ],
          "internalType": "struct Instruction",
          "name": "inst",
          "type": "tuple"
        },
        {
          "internalType": "bytes",
          "name": "proof",
          "type": "bytes"
        }
      ],
      "name": "executeOneStep",
      "outputs": [
        {
          "components": [
            {
              "internalType": "enum MachineStatus",
              "name": "status",
              "type": "uint8"
            },
            {
              "components": [
                {
                  "components": [
                    {
                      "components": [
                        {
                          "internalType": "enum ValueType",
                          "name": "valueType",
                          "type": "uint8"
                        },
                        {
                          "internalType": "uint256",
                          "name": "contents",
                          "type": "uint256"
                        }
                      ],
                      "internalType": "struct Value[]",
                      "name": "inner",
                      "type": "tuple[]"
                    }
                  ],
                  "internalType": "struct ValueArray",
                  "name": "proved",
                  "type": "tuple"
                },
                {
                  "internalType": "bytes32",
                  "name": "remainingHash",
                  "type": "bytes32"
                }
              ],
              "internalType": "struct ValueStack",
              "name": "valueStack",
              "type": "tuple"
            },
            {
              "components": [
                {
                  "internalType": "bytes32",
                  "name": "inactiveStackHash",
                  "type": "bytes32"
                },
                {
                  "internalType": "bytes32",
                  "name": "remainingHash",
                  "type": "bytes32"
                }
              ],
              "internalType": "struct MultiStack",
              "name": "valueMultiStack",
              "type": "tuple"
            },
            {
              "components": [
                {
                  "components": [
                    {
                      "components": [
                        {
                          "internalType": "enum ValueType",
                          "name": "valueType",
                          "type": "uint8"
                        },
                        {
                          "internalType": "uint256",
                          "name": "contents",
                          "type": "uint256"
                        }
                      ],
                      "internalType": "struct Value[]",
                      "name": "inner",
                      "type": "tuple[]"
                    }
                  ],
                  "internalType": "struct ValueArray",
                  "name": "proved",
                  "type": "tuple"
                },
                {
                  "internalType": "bytes32",
                  "name": "remainingHash",
                  "type": "bytes32"
                }
              ],
              "internalType": "struct ValueStack",
              "name": "internalStack",
              "type": "tuple"
            },
            {
              "components": [
                {
                  "components": [
                    {
                      "components": [
                        {
                          "internalType": "enum ValueType",
                          "name": "valueType",
                          "type": "uint8"
                        },
                        {
                          "internalType": "uint256",
                          "name": "contents",
                          "type": "uint256"
                        }
                      ],
                      "internalType": "struct Value",
                      "name": "returnPc",
                      "type": "tuple"
                    },
                    {
                      "internalType": "bytes32",
                      "name": "localsMerkleRoot",
                      "type": "bytes32"
                    },
                    {
                      "internalType": "uint32",
                      "name": "callerModule",
                      "type": "uint32"
                    },
                    {
                      "internalType": "uint32",
                      "name": "callerModuleInternals",
                      "type": "uint32"
                    }
                  ],
                  "internalType": "struct StackFrame[]",
                  "name": "proved",
                  "type": "tuple[]"
                },
                {
                  "internalType": "bytes32",
                  "name": "remainingHash",
                  "type": "bytes32"
                }
              ],
              "internalType": "struct StackFrameWindow",
              "name": "frameStack",
              "type": "tuple"
            },
            {
              "components": [
                {
                  "internalType": "bytes32",
                  "name": "inactiveStackHash",
                  "type": "bytes32"
                },
                {
                  "internalType": "bytes32",
                  "name": "remainingHash",
                  "type": "bytes32"
                }
              ],
              "internalType": "struct MultiStack",
              "name": "frameMultiStack",
              "type": "tuple"
            },
            {
              "internalType": "bytes32",
              "name": "globalStateHash",
              "type": "bytes32"
            },
            {
              "internalType": "uint32",
              "name": "moduleIdx",
              "type": "uint32"
            },
            {
              "internalType": "uint32",
              "name": "functionIdx",
              "type": "uint32"
            },
            {
              "internalType": "uint32",
              "name": "functionPc",
              "type": "uint32"
            },
            {
              "internalType": "bytes32",
              "name": "recoveryPc",
              "type": "bytes32"
            },
            {
              "internalType": "bytes32",
              "name": "modulesRoot",
              "type": "bytes32"
            }
          ],
          "internalType": "struct Machine",
          "name": "mach",
          "type": "tuple"
        },
        {
          "components": [
            {
              "internalType": "bytes32",
              "name": "globalsMerkleRoot",
              "type": "bytes32"
            },
            {
              "components": [
                {
                  "internalType": "uint64",
                  "name": "size",
                  "type": "uint64"
                },
                {
                  "internalType": "uint64",
                  "name": "maxSize",
                  "type": "uint64"
                },
                {
                  "internalType": "bytes32",
                  "name": "merkleRoot",
                  "type": "bytes32"
                }
              ],
              "internalType": "struct ModuleMemory",
              "name": "moduleMemory",
              "type": "tuple"
            },
            {
              "internalType": "bytes32",
              "name": "tablesMerkleRoot",
              "type": "bytes32"
            },
            {
              "internalType": "bytes32",
              "name": "functionsMerkleRoot",
              "type": "bytes32"
            },
            {
              "internalType": "bytes32",
              "name": "extraHash",
              "type": "bytes32"
            },
            {
              "internalType": "uint32",
              "name": "internalsOffset",
              "type": "uint32"
            }
          ],
          "internalType": "struct Module",
          "name": "mod",
          "type": "tuple"
        }
      ],
      "stateMutability": "view",
      "type": "function"
    },
    {
      "inputs": [],
      "name": "hotshot",
      "outputs": [
        {
          "internalType": "contract IHotShot",
          "name": "",
          "type": "address"
        }
      ],
      "stateMutability": "view",
      "type": "function"
    }
  ],
  "bytecode": "0x60806040523480156200001157600080fd5b506040516200425c3803806200425c83398101604081905262000034916200005a565b600080546001600160a01b0319166001600160a01b03929092169190911790556200008c565b6000602082840312156200006d57600080fd5b81516001600160a01b03811681146200008557600080fd5b9392505050565b6141c0806200009c6000396000f3fe608060405234801561001057600080fd5b50600436106100415760003560e01c80632adc8b76146100465780633604366f1461007657806382ee522214610097575b600080fd5b600054610059906001600160a01b031681565b6040516001600160a01b0390911681526020015b60405180910390f35b6100896100843660046133aa565b6100b8565b60405161006d9291906135be565b6100aa6100a5366004613736565b61026c565b60405190815260200161006d565b6100c06131f4565b6100c86132d5565b6100d187613aff565b91506100e236879003870187613c3c565b905060006100f36020870187613ce4565b905061332d61801061ffff831610801590610114575061801361ffff831611155b1561012257506102f261024d565b61ffff82166180201415610139575061043a61024d565b61ffff821661802114156101505750610af761024d565b61ffff821661802214156101675750610e1c61024d565b61ffff8216618023141561017e5750610e2861024d565b61ffff821661802414156101955750610f4e61024d565b61ffff821661803014156101ac5750610ff661024d565b61ffff821661803114156101c3575061103d61024d565b61ffff821661803214156101da575061109461024d565b61ffff821661900114156101f1575061110861024d565b61ffff82166190021415610208575061129f61024d565b60405162461bcd60e51b8152602060048201526015602482015274494e56414c49445f4d454d4f52595f4f50434f444560581b60448201526064015b60405180910390fd5b61025f8a85858a8a8a8763ffffffff16565b5050965096945050505050565b60008054604051638584d23f60e01b8152600481018490526001600160a01b0390911690638584d23f90602401604080518083038186803b1580156102b057600080fd5b505afa1580156102c4573d6000803e3d6000fd5b505050506040513d601f19601f820116820180604052508101906102e89190613d08565b6020015192915050565b60006103016020850185613ce4565b905061030b613337565b600061031885858361133a565b60c08a0151919350915061032b83611415565b1461036b5760405162461bcd60e51b815260206004820152601060248201526f4241445f474c4f42414c5f535441544560801b6044820152606401610244565b61ffff83166180101480610384575061ffff8316618011145b156103a6576103a18888848961039c8987818d613d5f565b6114a4565b61041e565b61ffff831661801214156103be576103a18883611629565b61ffff831661801314156103d6576103a188836116d7565b60405162461bcd60e51b815260206004820152601a60248201527f494e56414c49445f474c4f42414c53544154455f4f50434f44450000000000006044820152606401610244565b61042782611415565b60c0909801979097525050505050505050565b600061045161044c876020015161174d565b611772565b63ffffffff169050600061046b61044c886020015161174d565b63ffffffff16905061047e602083613d9f565b1515806104a45750602080870151516001600160401b0316906104a2908390613dc9565b115b806104b857506104b5602082613d9f565b15155b156104df578660025b908160038111156104d4576104d461348f565b815250505050610aef565b60006104ec602083613de1565b90506000806105076040518060200160405280606081525090565b60208a015161051990858a8a87611803565b90945090925090506060600089898681811061053757610537613df5565b919091013560f81c915085905061054d81613e0b565b95505060208b01356106285760ff8116610610573660006105708b88818f613d5f565b91509150858282604051610585929190613e26565b6040518091039020146105aa5760405162461bcd60e51b815260040161024490613e36565b60006105b78b6020613dc9565b9050818111156105c45750805b6105d0818c8486613d5f565b8080601f016020809104026020016040519081016040528093929190818152602001838380828437600092019190915250929750610a7395505050505050565b60405162461bcd60e51b815260040161024490613e5c565b8a60200135600114156106d95760ff8116156106565760405162461bcd60e51b815260040161024490613e5c565b3660006106658b88818f613d5f565b91509150856002838360405161067c929190613e26565b602060405180830381855afa158015610699573d6000803e3d6000fd5b5050506040513d601f19601f820116820180604052508101906106bc9190613e8c565b146105aa5760405162461bcd60e51b815260040161024490613e36565b8a6020013560021415610a335760ff8116156107075760405162461bcd60e51b815260040161024490613e5c565b3660006107168b88818f613d5f565b90925090508561072a602060008486613d5f565b61073391613ea5565b146107775760405162461bcd60e51b8152602060048201526014602482015273096b48ebea0a49e9e8cbeaea49e9c8ebe9082a6960631b6044820152606401610244565b600080600080600a6001600160a01b03168686604051610798929190613e26565b600060405180830381855afa9150503d80600081146107d3576040519150601f19603f3d011682016040523d82523d6000602084013e6107d8565b606091505b50915091508161081e5760405162461bcd60e51b815260206004820152601160248201527024a72b20a624a22fa5ad23afa82927a7a360791b6044820152606401610244565b60008151116108685760405162461bcd60e51b81526020600482015260166024820152754b5a475f505245434f4d50494c455f4d495353494e4760501b6044820152606401610244565b8080602001905181019061087c9190613ec3565b9094509250507f73eda753299d7d483339d80809a1d80553bda402fffe5bfeffffffff00000001821490506108e95760405162461bcd60e51b8152602060048201526013602482015272554e4b4e4f574e5f424c535f4d4f44554c555360681b6044820152606401610244565b6108f4826020613ee7565b8c1015610a2a5760008061090960208f613de1565b905060015b8481101561093857600192831b92828116141561092c576001831792505b600191821c911b61090e565b50600061094a85640100000000613de1565b90506109568382613ee7565b905060006109857f16a2a19edfe81f20d09b681922c813b4b63683508c2280b93829971f439f0d2b838761189d565b905080610996604060208a8c613d5f565b61099f91613ea5565b146109e05760405162461bcd60e51b815260206004820152601160248201527025ad23afa82927a7a32faba927a723afad60791b6044820152606401610244565b6109ee60606040898b613d5f565b8080601f016020809104026020016040519081016040528093929190818152602001838380828437600092019190915250929c50505050505050505b50505050610a73565b60405162461bcd60e51b8152602060048201526015602482015274554e4b4e4f574e5f505245494d4147455f5459504560581b6044820152606401610244565b60005b8251811015610ab757610aa38582858481518110610a9657610a96613df5565b016020015160f81c6119d1565b945080610aaf81613e0b565b915050610a76565b50610ac3838786611a56565b60208d0151604001528151610ae690610adb90611ad5565b60208f015190611b08565b50505050505050505b505050505050565b6000610b0961044c876020015161174d565b63ffffffff1690506000610b2361044c886020015161174d565b63ffffffff1690506000610b42610b3d896020015161174d565b611b18565b6001600160401b031690506020860135158015610b60575088358110155b15610b88578760035b90816003811115610b7c57610b7c61348f565b81525050505050610aef565b602080880151516001600160401b031690610ba4908490613dc9565b1180610bb95750610bb6602083613d9f565b15155b15610bc657876002610b69565b6000610bd3602084613de1565b9050600080610bee6040518060200160405280606081525090565b60208b0151610c0090858b8b87611803565b9094509092509050888884818110610c1a57610c1a613df5565b909101356001600160f81b031916159050610c6d5760405162461bcd60e51b81526020600482015260136024820152722aa725a727aba72fa4a72127ac2fa82927a7a360691b6044820152606401610244565b82610c7781613e0b565b93505061332d6000808c602001351415610c9557611ba99150610cd5565b60018c602001351415610cac57611eaa9150610cd5565b8d60025b90816003811115610cc357610cc361348f565b81525050505050505050505050610aef565b610cf58f888d8d89908092610cec93929190613d5f565b8663ffffffff16565b905080610d04578d6002610cb0565b505082881015610d4a5760405162461bcd60e51b81526020600482015260116024820152702120a22fa6a2a9a9a0a3a2afa82927a7a360791b6044820152606401610244565b6000610d56848a613f06565b905060005b60208163ffffffff16108015610d7f575081610d7d63ffffffff83168b613dc9565b105b15610dd857610dc48463ffffffff83168d8d82610d9c8f8c613dc9565b610da69190613dc9565b818110610db557610db5613df5565b919091013560f81c90506119d1565b935080610dd081613f1d565b915050610d5b565b610de3838786611a56565b60208e015160400152610e0b610df882611ad5565b8f60200151611b0890919063ffffffff16565b505050505050505050505050505050565b50506001909252505050565b60006040518060400160405280601381526020017226b7b23ab6329036b2b935b632903a3932b29d60691b8152509050600086610160015190506000610e7461044c896020015161174d565b63ffffffff169050610e9381886020015161214c90919063ffffffff16565b610e9f57876002610b69565b600080610ebf610eb0602085613de1565b60208b01519089896000611803565b5091509150600080610ed38c848b8b612181565b92505091506000610eef836001610eea9190613dc9565b612361565b90508015610f1a57610f0f87610f06856001613dc9565b8760008c612381565b6101608e0152610f38565b610f31610f28846001613dc9565b8390878b61242b565b6101608e01525b610ae6610adb610f49856001613dc9565b611ad5565b60408051808201909152601381527226b7b23ab6329036b2b935b632903a3932b29d60691b6020820152600080610f8788828787612181565b50915091506000610f9783612361565b90508015610fd65781518051610faf90600190613f06565b81518110610fbf57610fbf613df5565b602002602001015189610160018181525050610fea565b610fe3828460008761242b565b6101608a01525b50505050505050505050565b61014085015160001914611023578460025b9081600381111561101b5761101b61348f565b905250610aef565b6110308560a00151612535565b610aef8560400151612535565b6101408501516000191461105357846002611008565b60a085015151600019141561106a57846002611008565b61107985604001518383612578565b60a0850151610aef9061108f8360408187613d5f565b612578565b60a08501515160001914156110ab57846002611008565b60208301356110d95761014085015160001914156110cb57846002611008565b6000196101408601526110ff565b610140850151600019146110ef57846002611008565b6110fd856020850135612666565b505b610aef856126d9565b600061111a610b3d876020015161174d565b6001600160401b03169050600061113761044c886020015161174d565b63ffffffff1690508560200151600001516001600160401b031681602061115e9190613dc9565b11806111735750611170602082613d9f565b15155b15611180578660026104c1565b600061118d602083613de1565b90506000806111a86040518060200160405280606081525090565b60208a01516111ba90858a8a87611803565b909450909250905036600089858a6111d3826020613dc9565b926111e093929190613d5f565b9150915060006111f28f8a858561275d565b90508061123c5760405162461bcd60e51b815260206004820152601860248201527711549493d497d213d514d213d517d0d3d35352551351539560421b6044820152606401610244565b60005b60208163ffffffff161015611279576112658663ffffffff83168e8e610da6838d613dc9565b95508061127181613f1d565b91505061123f565b50611285848887611a56565b60208e015160400152505050505050505050505050505050565b60006112b1610b3d876020015161174d565b6001600160401b0316905060036000848482816112d0576112d0613df5565b919091013560f81c91506112ea90508984848415156128e5565b61132f5760405162461bcd60e51b815260206004820152601660248201527557524f4e475f484f5453484f545f4c4956454e45535360501b6044820152606401610244565b505050505050505050565b611342613337565b8161134b61335c565b61135361337a565b60005b600260ff8216101561139e5761136d88888661297b565b848360ff166002811061138257611382613df5565b602002019190915293508061139681613f41565b915050611356565b5060005b600360ff821610156113f8576113b9888886612997565b838360ff16600381106113ce576113ce613df5565b6001600160401b0390931660209390930201919091529350806113f081613f41565b9150506113a2565b506040805180820190915291825260208201529590945092505050565b805180516020918201518284015180518185015160409283015192516c23b637b130b61039ba30ba329d60991b96810196909652602d860194909452604d8501929092526001600160c01b031960c092831b8116606d86015292821b83166075850152901b16607d8201526000906085015b604051602081830303815290604052805190602001209050919050565b60006114b661044c886020015161174d565b63ffffffff16905060006114d061044c896020015161174d565b9050600263ffffffff8216106114e8578760026104c1565b60208701516114f7908361214c565b611503578760026104c1565b6000611510602084613de1565b905060008061152b6040518060200160405280606081525090565b60208b015161153d90858a8a87611803565b909450909250905061801061155560208b018b613ce4565b61ffff16141561159a5761158c848b600001518763ffffffff166002811061157f5761157f613df5565b6020020151839190611a56565b60208c01516040015261161b565b6180116115aa60208b018b613ce4565b61ffff1614156115d9578951829063ffffffff8716600281106115cf576115cf613df5565b602002015261161b565b60405162461bcd60e51b81526020600482015260176024820152764241445f474c4f42414c5f53544154455f4f50434f444560481b6044820152606401610244565b505050505050505050505050565b600061163b61044c846020015161174d565b9050600363ffffffff82161061166a578260025b908160038111156116625761166261348f565b905250505050565b6116d26116c783602001518363ffffffff166003811061168c5761168c613df5565b602002015160408051808201909152600080825260208201525060408051808201909152600181526001600160401b03909116602082015290565b602085015190611b08565b505050565b60006116e9610b3d846020015161174d565b905060006116fd61044c856020015161174d565b9050600363ffffffff821610611717575050600290915250565b8183602001518263ffffffff166003811061173457611734613df5565b6001600160401b03909216602092909202015250505050565b6040805180820190915260008082526020820152815161176c906129fe565b92915050565b6020810151600090818351600681111561178e5761178e61348f565b146117c55760405162461bcd60e51b81526020600482015260076024820152662727aa2fa4999960c91b6044820152606401610244565b640100000000811061176c5760405162461bcd60e51b81526020600482015260076024820152662120a22fa4999960c91b6044820152606401610244565b60008061181c6040518060200160405280606081525090565b83915061182a86868461297b565b909350915061183a868684612b0e565b92509050600061184b828986611a56565b9050886040015181146118915760405162461bcd60e51b815260206004820152600e60248201526d15d493d391d7d3515357d493d3d560921b6044820152606401610244565b50955095509592505050565b60408051602080820181905281830181905260608201526080810185905260a0810184905260c08082018490528251808303909101815260e090910191829052600091829081906005906118f2908590613f91565b600060405180830381855afa9150503d806000811461192d576040519150601f19603f3d011682016040523d82523d6000602084013e611932565b606091505b5091509150816119745760405162461bcd60e51b815260206004820152600d60248201526c1353d111561417d19052531151609a1b6044820152606401610244565b80516020146119bb5760405162461bcd60e51b815260206004820152601360248201527209a9e888ab0a0beaea49e9c8ebe988a9c8ea89606b1b6044820152606401610244565b6119c481613fad565b93505050505b9392505050565b600060208310611a1b5760405162461bcd60e51b81526020600482015260156024820152740848288bea68aa8be988a828cbe84b2a88abe9288b605b1b6044820152606401610244565b600083611a2a60016020613f06565b611a349190613f06565b611a3f906008613ee7565b60ff848116821b911b198616179150509392505050565b6040516b26b2b6b7b93c903632b0b31d60a11b6020820152602c81018290526000908190604c01604051602081830303815290604052805190602001209050611acc8585836040518060400160405280601381526020017226b2b6b7b93c9036b2b935b632903a3932b29d60691b81525061242b565b95945050505050565b604080518082019091526000808252602082015250604080518082019091526000815263ffffffff909116602082015290565b8151611b149082612be8565b5050565b6020810151600090600183516006811115611b3557611b3561348f565b14611b6c5760405162461bcd60e51b81526020600482015260076024820152661393d517d24d8d60ca1b6044820152606401610244565b600160401b811061176c5760405162461bcd60e51b815260206004820152600760248201526610905117d24d8d60ca1b6044820152606401610244565b60006028821015611bf15760405162461bcd60e51b81526020600482015260126024820152712120a22fa9a2a8a4a72127ac2fa82927a7a360711b6044820152606401610244565b6000611bff84846020612997565b508091505060008484604051611c16929190613e26565b60405190819003902090506000806001600160401b03881615611cd657611c4360408a0160208b01613fd1565b6001600160a01b03166316bf5579611c5c60018b613ffa565b6040516001600160e01b031960e084901b1681526001600160401b03909116600482015260240160206040518083038186803b158015611c9b57600080fd5b505afa158015611caf573d6000803e3d6000fd5b505050506040513d601f19601f82011682018060405250810190611cd39190613e8c565b91505b6001600160401b03841615611d8857611cf560408a0160208b01613fd1565b6001600160a01b031663d5719dc2611d0e600187613ffa565b6040516001600160e01b031960e084901b1681526001600160401b03909116600482015260240160206040518083038186803b158015611d4d57600080fd5b505afa158015611d61573d6000803e3d6000fd5b505050506040513d601f19601f82011682018060405250810190611d859190613e8c565b90505b604080516020810184905290810184905260608101829052600090608001604051602081830303815290604052805190602001209050896020016020810190611dd19190613fd1565b6040516316bf557960e01b81526001600160401b038b1660048201526001600160a01b0391909116906316bf55799060240160206040518083038186803b158015611e1b57600080fd5b505afa158015611e2f573d6000803e3d6000fd5b505050506040513d601f19601f82011682018060405250810190611e539190613e8c565b8114611e985760405162461bcd60e51b81526020600482015260146024820152734241445f534551494e424f585f4d45535341474560601b6044820152606401610244565b6001955050505050505b949350505050565b60006071821015611ef15760405162461bcd60e51b81526020600482015260116024820152702120a22fa222a620aca2a22fa82927a7a360791b6044820152606401610244565b60006001600160401b03851615611fa557611f126040870160208801613fd1565b6001600160a01b031663d5719dc2611f2b600188613ffa565b6040516001600160e01b031960e084901b1681526001600160401b03909116600482015260240160206040518083038186803b158015611f6a57600080fd5b505afa158015611f7e573d6000803e3d6000fd5b505050506040513d601f19601f82011682018060405250810190611fa29190613e8c565b90505b6000611fb48460718188613d5f565b604051611fc2929190613e26565b60405180910390209050600085856000818110611fe157611fe1613df5565b9050013560f81c60f81b90506000611ffb87876001612cdb565b50905060008282612010607160218b8d613d5f565b87604051602001612025959493929190614022565b60408051601f1981840301815282825280516020918201208382018990528383018190528251808503840181526060909401909252825192019190912090915061207560408c0160208d01613fd1565b604051636ab8cee160e11b81526001600160401b038c1660048201526001600160a01b03919091169063d5719dc29060240160206040518083038186803b1580156120bf57600080fd5b505afa1580156120d3573d6000803e3d6000fd5b505050506040513d601f19601f820116820180604052508101906120f79190613e8c565b811461213b5760405162461bcd60e51b81526020600482015260136024820152724241445f44454c415945445f4d45535341474560681b6044820152606401610244565b5060019a9950505050505050505050565b81516000906001600160401b0316612165836020613dc9565b111580156119ca5750612179602083613d9f565b159392505050565b60006121996040518060200160405280606081525090565b60408051602081019091526060815260408051808201909152601381527226b7b23ab6329036b2b935b632903a3932b29d60691b60208201526101608801516121e06132d5565b60006121ed89898c612d30565b9a5091506121fc89898c612df4565b9a50905061220b89898c612b0e565b9a5063ffffffff808316985090965060009061222d9088908a908690612e4f16565b90508381146122745760405162461bcd60e51b81526020600482015260136024820152722ba927a723afa927a7aa2fa327a92fa622a0a360691b6044820152606401610244565b5050506000612289866001610eea9190613dc9565b905080156122e25761229c866001613dc9565b8551516001901b146122dd5760405162461bcd60e51b815260206004820152600a6024820152692ba927a723afa622a0a360b11b6044820152606401610244565b612354565b6122ed88888b612b0e565b99509350600061230b612301886001613dc9565b869060008761242b565b90508281146123525760405162461bcd60e51b815260206004820152601360248201527257524f4e475f524f4f545f464f525f5a45524f60681b6044820152606401610244565b505b5050509450945094915050565b6000811580159061176c5750612378600183613f06565b82161592915050565b600083855b60018111156123f3578382866040516020016123a493929190614061565b6040516020818303038152906040528051906020012091508385866040516020016123d193929190614061565b60408051601f198184030181529190528051602090910120945060011c612386565b83888360405160200161240893929190614061565b604051602081830303815290604052805190602001209250505095945050505050565b8160005b8551518110156124f457600185166124905782828760000151838151811061245957612459613df5565b602002602001015160405160200161247393929190614061565b6040516020818303038152906040528051906020012091506124db565b82866000015182815181106124a7576124a7613df5565b6020026020010151836040516020016124c293929190614061565b6040516020818303038152906040528051906020012091505b60019490941c93806124ec81613e0b565b91505061242f565b508315611ea25760405162461bcd60e51b815260206004820152600f60248201526e141493d3d197d513d3d7d4d213d495608a1b6044820152606401610244565b805160001914612572578051602080830151604051612555939201614088565b60408051601f198184030181529190528051602091820120908201525b60009052565b6000808061258785858561297b565b9350915061259685858561297b565b935090506000198214156125e95780156125c25760405162461bcd60e51b8152600401610244906140aa565b6020860151156125e45760405162461bcd60e51b8152600401610244906140aa565b612659565b85602001518282604051602001612601929190614088565b60405160208183030381529060405280519060200120146126595760405162461bcd60e51b8152602060048201526012602482015271057524f4e475f434f5448524541445f504f560741b6044820152606401610244565b6020860152909352505050565b6101408201516000906000191461267f5750600061176c565b600060408460e0015163ffffffff16901b9050602084610100015163ffffffff16901b811790506001838561012001516126b991906140d8565b6126c39190614100565b63ffffffff161761014084015250600192915050565b60408101515160a0820151516000198114806126f6575060001982145b156127035782600261164f565b6127108360800151612e90565b60a084015152602083015161272490612f29565b604084015152608083015161273f9082602082015260609052565b50602091820151808301919091526040805192830190526060825252565b60008054604051638584d23f60e01b81526004810186905282916001600160a01b031690638584d23f90602401604080518083038186803b1580156127a157600080fd5b505afa1580156127b5573d6000803e3d6000fd5b505050506040513d601f19601f820116820180604052508101906127d99190613d08565b602001519050806128275760405162461bcd60e51b81526020600482015260186024820152771153541516481213d514d213d50810d3d35352551351539560421b6044820152606401610244565b6040805160208082528183019092526000916020820181803683375050506020818101849052909150841461286157600092505050611ea2565b60005b81518110156128d75785858281811061287f5761287f613df5565b9050013560f81c60f81b6001600160f81b0319168282815181106128a5576128a5613df5565b01602001516001600160f81b031916146128c55760009350505050611ea2565b806128cf81613e0b565b915050612864565b506001979650505050505050565b6000805460405163e030330160e01b8152600481018690526024810185905282916001600160a01b03169063e03033019060440160206040518083038186803b15801561293157600080fd5b505afa158015612945573d6000803e3d6000fd5b505050506040513d601f19601f82011682018060405250810190612969919061411d565b83151590151514915050949350505050565b6000818161298a868684612cdb565b9097909650945050505050565b600081815b60088110156129f5576008836001600160401b0316901b92508585838181106129c7576129c7613df5565b919091013560f81c939093179250816129df81613e0b565b92505080806129ed90613e0b565b91505061299c565b50935093915050565b604080518082019091526000808252602082015281518051612a2290600190613f06565b81518110612a3257612a32613df5565b6020026020010151905060006001836000015151612a509190613f06565b6001600160401b03811115612a6757612a6761374f565b604051908082528060200260200182016040528015612aac57816020015b6040805180820190915260008082526020820152815260200190600190039081612a855790505b50905060005b8151811015612b07578351805182908110612acf57612acf613df5565b6020026020010151828281518110612ae957612ae9613df5565b60200260200101819052508080612aff90613e0b565b915050612ab2565b5090915290565b604080516020810190915260608152816000612b2b868684612fae565b92509050600060ff82166001600160401b03811115612b4c57612b4c61374f565b604051908082528060200260200182016040528015612b75578160200160208202803683370190505b50905060005b8260ff168160ff161015612bcc57612b9488888661297b565b838360ff1681518110612ba957612ba9613df5565b602002602001018196508281525050508080612bc490613f41565b915050612b7b565b5060405180602001604052808281525093505050935093915050565b815151600090612bf9906001613dc9565b6001600160401b03811115612c1057612c1061374f565b604051908082528060200260200182016040528015612c5557816020015b6040805180820190915260008082526020820152815260200190600190039081612c2e5790505b50905060005b835151811015612cb1578351805182908110612c7957612c79613df5565b6020026020010151828281518110612c9357612c93613df5565b60200260200101819052508080612ca990613e0b565b915050612c5b565b50818184600001515181518110612cca57612cca613df5565b602090810291909101015290915250565b600081815b60208110156129f557600883901b9250858583818110612d0257612d02613df5565b919091013560f81c93909317925081612d1a81613e0b565b9250508080612d2890613e0b565b915050612ce0565b612d386132d5565b60408051606081018252600080825260208201819052918101829052839190600080600080612d688b8b8961297b565b97509550612d778b8b89612fe4565b97509450612d868b8b8961297b565b97509350612d958b8b8961297b565b97509250612da48b8b8961297b565b97509150612db38b8b89612df4565b6040805160c081018252988952602089019790975295870194909452506060850191909152608084015263ffffffff1660a083015290969095509350505050565b600081815b60048110156129f55760088363ffffffff16901b9250858583818110612e2157612e21613df5565b919091013560f81c93909317925081612e3981613e0b565b9250508080612e4790613e0b565b915050612df9565b6000611ea28484612e5f8561305f565b6040518060400160405280601381526020017226b7b23ab6329036b2b935b632903a3932b29d60691b81525061242b565b602081015160005b825151811015612f2357612ec883600001518281518110612ebb57612ebb613df5565b60200260200101516130db565b6040517129ba30b1b590333930b6b29039ba30b1b59d60711b60208201526032810191909152605281018390526072016040516020818303038152906040528051906020012091508080612f1b90613e0b565b915050612e98565b50919050565b60208101518151515160005b81811015612fa7578351612f5290612f4d908361314b565b613183565b6040516b2b30b63ab29039ba30b1b59d60a11b6020820152602c810191909152604c8101849052606c016040516020818303038152906040528051906020012092508080612f9f90613e0b565b915050612f35565b5050919050565b600081848482818110612fc357612fc3613df5565b919091013560f81c9250819050612fd981613e0b565b915050935093915050565b60408051606081018252600080825260208201819052918101919091528160008080613011888886612997565b94509250613020888886612997565b9450915061302f88888661297b565b604080516060810182526001600160401b0396871681529490951660208501529383015250969095509350505050565b6000816000015161307383602001516131a0565b6040808501516060860151608087015160a08801519351611487969594906020016626b7b23ab6329d60c91b81526007810196909652602786019490945260478501929092526067840152608783015260e01b6001600160e01b03191660a782015260ab0190565b60006130ea8260000151613183565b602080840151604080860151606087015191516b29ba30b1b590333930b6b29d60a11b94810194909452602c840194909452604c8301919091526001600160e01b031960e093841b8116606c840152921b9091166070820152607401611487565b6040805180820190915260008082526020820152825180518390811061317357613173613df5565b6020026020010151905092915050565b60008160000151826020015160405160200161148792919061413f565b805160208083015160408085015190516626b2b6b7b93c9d60c91b938101939093526001600160c01b031960c094851b811660278501529190931b16602f8201526037810191909152600090605701611487565b604080516101808101909152806000815260200161322960408051606080820183529181019182529081526000602082015290565b815260408051808201825260008082526020808301919091528301520161326760408051606080820183529181019182529081526000602082015290565b815260200161328c604051806040016040528060608152602001600080191681525090565b815260408051808201825260008082526020808301829052840191909152908201819052606082018190526080820181905260a0820181905260c0820181905260e09091015290565b6040805160c08101909152600081526020810161330b604080516060810182526000808252602082018190529181019190915290565b8152600060208201819052604082018190526060820181905260809091015290565b613335614174565b565b604051806040016040528061334a61335c565b815260200161335761337a565b905290565b60405180604001604052806002906020820280368337509192915050565b60405180606001604052806003906020820280368337509192915050565b600060408284031215612f2357600080fd5b6000806000806000808688036101c0808212156133c657600080fd5b6133d08a8a613398565b975060408901356001600160401b03808211156133ec57600080fd5b818b01915082828d03121561340057600080fd5b819850610100605f198501121561341657600080fd5b60608b01975061342a8c6101608d01613398565b96506101a08b013593508084111561344157600080fd5b838b0193508b601f85011261345557600080fd5b833592508083111561346657600080fd5b505089602082840101111561347a57600080fd5b60208201935080925050509295509295509295565b634e487b7160e01b600052602160045260246000fd5b600481106134b5576134b561348f565b9052565b8051600781106134cb576134cb61348f565b8252602090810151910152565b805160408084529051602084830181905281516060860181905260009392820191849160808801905b80841015613528576135148286516134b9565b938201936001939093019290850190613501565b509581015196019590955250919392505050565b8051604080845281518482018190526000926060916020918201918388019190865b828110156135a75784516135738582516134b9565b80830151858901528781015163ffffffff90811688870152908701511660808501529381019360a09093019260010161355e565b509687015197909601969096525093949350505050565b60006101208083526135d381840186516134a5565b60208501516101c061014081818701526135f16102e08701846134d8565b925060408801516101606136118189018380518252602090810151910152565b60608a0151915061011f1980898703016101a08a015261363186846134d8565b955060808b015192508089870301858a01525061364e858361353c565b60a08b015180516101e08b015260208101516102008b0152909550935060c08a015161022089015260e08a015163ffffffff81166102408a015293506101008a015163ffffffff81166102608a015293509489015163ffffffff811661028089015294918901516102a0880152508701516102c08601525091506119ca905060208301848051825260208101516001600160401b0380825116602085015280602083015116604085015250604081015160608401525060408101516080830152606081015160a0830152608081015160c083015263ffffffff60a08201511660e08301525050565b60006020828403121561374857600080fd5b5035919050565b634e487b7160e01b600052604160045260246000fd5b604080519081016001600160401b03811182821017156137875761378761374f565b60405290565b604051602081016001600160401b03811182821017156137875761378761374f565b604051608081016001600160401b03811182821017156137875761378761374f565b60405161018081016001600160401b03811182821017156137875761378761374f565b60405160c081016001600160401b03811182821017156137875761378761374f565b604051606081016001600160401b03811182821017156137875761378761374f565b604051601f8201601f191681016001600160401b03811182821017156138605761386061374f565b604052919050565b80356004811061387757600080fd5b919050565b60006001600160401b038211156138955761389561374f565b5060051b60200190565b6000604082840312156138b157600080fd5b6138b9613765565b90508135600781106138ca57600080fd5b808252506020820135602082015292915050565b600060408083850312156138f157600080fd5b6138f9613765565b915082356001600160401b038082111561391257600080fd5b8185019150602080838803121561392857600080fd5b61393061378d565b83358381111561393f57600080fd5b80850194505087601f85011261395457600080fd5b833592506139696139648461387c565b613838565b83815260069390931b8401820192828101908985111561398857600080fd5b948301945b848610156139ae5761399f8a8761389f565b8252948601949083019061398d565b8252508552948501359484019490945250909392505050565b6000604082840312156139d957600080fd5b6139e1613765565b9050813581526020820135602082015292915050565b803563ffffffff8116811461387757600080fd5b60006040808385031215613a1e57600080fd5b613a26613765565b915082356001600160401b03811115613a3e57600080fd5b8301601f81018513613a4f57600080fd5b80356020613a5f6139648361387c565b82815260a09283028401820192828201919089851115613a7e57600080fd5b948301945b84861015613ae75780868b031215613a9b5760008081fd5b613aa36137af565b613aad8b8861389f565b815287870135858201526060613ac48189016139f7565b89830152613ad4608089016139f7565b9082015283529485019491830191613a83565b50808752505080860135818601525050505092915050565b60006101c08236031215613b1257600080fd5b613b1a6137d1565b613b2383613868565b815260208301356001600160401b0380821115613b3f57600080fd5b613b4b368387016138de565b6020840152613b5d36604087016139c7565b60408401526080850135915080821115613b7657600080fd5b613b82368387016138de565b606084015260a0850135915080821115613b9b57600080fd5b50613ba836828601613a0b565b608083015250613bbb3660c085016139c7565b60a08201526101008084013560c0830152610120613bda8186016139f7565b60e0840152610140613bed8187016139f7565b838501526101609250613c018387016139f7565b91840191909152610180850135908301526101a090930135928101929092525090565b6001600160401b0381168114613c3957600080fd5b50565b6000818303610100811215613c5057600080fd5b613c586137f4565b833581526060601f1983011215613c6e57600080fd5b613c76613816565b91506020840135613c8681613c24565b82526040840135613c9681613c24565b80602084015250606084013560408301528160208201526080840135604082015260a0840135606082015260c08401356080820152613cd760e085016139f7565b60a0820152949350505050565b600060208284031215613cf657600080fd5b813561ffff811681146119ca57600080fd5b600060408284031215613d1a57600080fd5b604051604081018181106001600160401b0382111715613d3c57613d3c61374f565b6040528251613d4a81613c24565b81526020928301519281019290925250919050565b60008085851115613d6f57600080fd5b83861115613d7c57600080fd5b5050820193919092039150565b634e487b7160e01b600052601260045260246000fd5b600082613dae57613dae613d89565b500690565b634e487b7160e01b600052601160045260246000fd5b60008219821115613ddc57613ddc613db3565b500190565b600082613df057613df0613d89565b500490565b634e487b7160e01b600052603260045260246000fd5b6000600019821415613e1f57613e1f613db3565b5060010190565b8183823760009101908152919050565b6020808252600c908201526b4241445f505245494d41474560a01b604082015260600190565b6020808252601690820152752aa725a727aba72fa82922a4a6a0a3a2afa82927a7a360511b604082015260600190565b600060208284031215613e9e57600080fd5b5051919050565b8035602083101561176c57600019602084900360031b1b1692915050565b60008060408385031215613ed657600080fd5b505080516020909101519092909150565b6000816000190483118215151615613f0157613f01613db3565b500290565b600082821015613f1857613f18613db3565b500390565b600063ffffffff80831681811415613f3757613f37613db3565b6001019392505050565b600060ff821660ff811415613f5857613f58613db3565b60010192915050565b60005b83811015613f7c578181015183820152602001613f64565b83811115613f8b576000848401525b50505050565b60008251613fa3818460208701613f61565b9190910192915050565b80516020808301519190811015612f235760001960209190910360031b1b16919050565b600060208284031215613fe357600080fd5b81356001600160a01b03811681146119ca57600080fd5b60006001600160401b038381169083168181101561401a5761401a613db3565b039392505050565b6001600160f81b031986168152606085901b6bffffffffffffffffffffffff191660018201528284601583013760159201918201526035019392505050565b60008451614073818460208901613f61565b91909101928352506020820152604001919050565b6831b7ba343932b0b21d60b91b81526009810192909252602982015260490190565b60208082526014908201527357524f4e475f434f5448524541445f454d50545960601b604082015260600190565b600063ffffffff8083168185168083038211156140f7576140f7613db3565b01949350505050565b600063ffffffff8381169083168181101561401a5761401a613db3565b60006020828403121561412f57600080fd5b815180151581146119ca57600080fd5b652b30b63ab29d60d11b815260006007841061415d5761415d61348f565b5060f89290921b6006830152600782015260270190565b634e487b7160e01b600052605160045260246000fdfea2646970667358221220d5faf9231989ae4d56a0e2dbe51daeb71511aebb22f64ea083f8da153f24f95364736f6c63430008090033",
  "linkReferences": {},
  "deployedLinkReferences": {}
}