{
  "_format": "hh-sol-artifact-1",
  "contractName": "ERC20RollupUserLogic",
  "sourceName": "src/rollup/RollupUserLogic.sol",
  "abi": [
    {
      "anonymous": false,
      "inputs": [
        {
          "indexed": false,
          "internalType": "address",
          "name": "previousAdmin",
          "type": "address"
        },
        {
          "indexed": false,
          "internalType": "address",
          "name": "newAdmin",
          "type": "address"
        }
      ],
      "name": "AdminChanged",
      "type": "event"
    },
    {
      "anonymous": false,
      "inputs": [
        {
          "indexed": true,
          "internalType": "address",
          "name": "beacon",
          "type": "address"
        }
      ],
      "name": "BeaconUpgraded",
      "type": "event"
    },
    {
      "anonymous": false,
      "inputs": [
        {
          "indexed": true,
          "internalType": "uint64",
          "name": "nodeNum",
          "type": "uint64"
        },
        {
          "indexed": false,
          "internalType": "bytes32",
          "name": "blockHash",
          "type": "bytes32"
        },
        {
          "indexed": false,
          "internalType": "bytes32",
          "name": "sendRoot",
          "type": "bytes32"
        }
      ],
      "name": "NodeConfirmed",
      "type": "event"
    },
    {
      "anonymous": false,
      "inputs": [
        {
          "indexed": true,
          "internalType": "uint64",
          "name": "nodeNum",
          "type": "uint64"
        },
        {
          "indexed": true,
          "internalType": "bytes32",
          "name": "parentNodeHash",
          "type": "bytes32"
        },
        {
          "indexed": true,
          "internalType": "bytes32",
          "name": "nodeHash",
          "type": "bytes32"
        },
        {
          "indexed": false,
          "internalType": "bytes32",
          "name": "executionHash",
          "type": "bytes32"
        },
        {
          "components": [
            {
              "components": [
                {
                  "components": [
                    {
                      "internalType": "bytes32[2]",
                      "name": "bytes32Vals",
                      "type": "bytes32[2]"
                    },
                    {
                      "internalType": "uint64[3]",
                      "name": "u64Vals",
                      "type": "uint64[3]"
                    }
                  ],
                  "internalType": "struct GlobalState",
                  "name": "globalState",
                  "type": "tuple"
                },
                {
                  "internalType": "enum MachineStatus",
                  "name": "machineStatus",
                  "type": "uint8"
                }
              ],
              "internalType": "struct ExecutionState",
              "name": "beforeState",
              "type": "tuple"
            },
            {
              "components": [
                {
                  "components": [
                    {
                      "internalType": "bytes32[2]",
                      "name": "bytes32Vals",
                      "type": "bytes32[2]"
                    },
                    {
                      "internalType": "uint64[3]",
                      "name": "u64Vals",
                      "type": "uint64[3]"
                    }
                  ],
                  "internalType": "struct GlobalState",
                  "name": "globalState",
                  "type": "tuple"
                },
                {
                  "internalType": "enum MachineStatus",
                  "name": "machineStatus",
                  "type": "uint8"
                }
              ],
              "internalType": "struct ExecutionState",
              "name": "afterState",
              "type": "tuple"
            },
            {
              "internalType": "uint64",
              "name": "numBlocks",
              "type": "uint64"
            }
          ],
          "indexed": false,
          "internalType": "struct Assertion",
          "name": "assertion",
          "type": "tuple"
        },
        {
          "indexed": false,
          "internalType": "bytes32",
          "name": "afterInboxBatchAcc",
          "type": "bytes32"
        },
        {
          "indexed": false,
          "internalType": "bytes32",
          "name": "wasmModuleRoot",
          "type": "bytes32"
        },
        {
          "indexed": false,
          "internalType": "uint256",
          "name": "inboxMaxCount",
          "type": "uint256"
        }
      ],
      "name": "NodeCreated",
      "type": "event"
    },
    {
      "anonymous": false,
      "inputs": [
        {
          "indexed": true,
          "internalType": "uint64",
          "name": "nodeNum",
          "type": "uint64"
        }
      ],
      "name": "NodeRejected",
      "type": "event"
    },
    {
      "anonymous": false,
      "inputs": [
        {
          "indexed": false,
          "internalType": "address",
          "name": "account",
          "type": "address"
        }
      ],
      "name": "Paused",
      "type": "event"
    },
    {
      "anonymous": false,
      "inputs": [
        {
          "indexed": true,
          "internalType": "uint64",
          "name": "challengeIndex",
          "type": "uint64"
        },
        {
          "indexed": false,
          "internalType": "address",
          "name": "asserter",
          "type": "address"
        },
        {
          "indexed": false,
          "internalType": "address",
          "name": "challenger",
          "type": "address"
        },
        {
          "indexed": false,
          "internalType": "uint64",
          "name": "challengedNode",
          "type": "uint64"
        }
      ],
      "name": "RollupChallengeStarted",
      "type": "event"
    },
    {
      "anonymous": false,
      "inputs": [
        {
          "indexed": false,
          "internalType": "bytes32",
          "name": "machineHash",
          "type": "bytes32"
        },
        {
          "indexed": false,
          "internalType": "uint256",
          "name": "chainId",
          "type": "uint256"
        }
      ],
      "name": "RollupInitialized",
      "type": "event"
    },
    {
      "anonymous": false,
      "inputs": [
        {
          "indexed": false,
          "internalType": "address",
          "name": "account",
          "type": "address"
        }
      ],
      "name": "Unpaused",
      "type": "event"
    },
    {
      "anonymous": false,
      "inputs": [
        {
          "indexed": true,
          "internalType": "address",
          "name": "implementation",
          "type": "address"
        }
      ],
      "name": "Upgraded",
      "type": "event"
    },
    {
      "anonymous": false,
      "inputs": [
        {
          "indexed": true,
          "internalType": "address",
          "name": "implementation",
          "type": "address"
        }
      ],
      "name": "UpgradedSecondary",
      "type": "event"
    },
    {
      "anonymous": false,
      "inputs": [
        {
          "indexed": true,
          "internalType": "address",
          "name": "user",
          "type": "address"
        },
        {
          "indexed": false,
          "internalType": "uint256",
          "name": "initialBalance",
          "type": "uint256"
        },
        {
          "indexed": false,
          "internalType": "uint256",
          "name": "finalBalance",
          "type": "uint256"
        }
      ],
      "name": "UserStakeUpdated",
      "type": "event"
    },
    {
      "anonymous": false,
      "inputs": [
        {
          "indexed": true,
          "internalType": "address",
          "name": "user",
          "type": "address"
        },
        {
          "indexed": false,
          "internalType": "uint256",
          "name": "initialBalance",
          "type": "uint256"
        },
        {
          "indexed": false,
          "internalType": "uint256",
          "name": "finalBalance",
          "type": "uint256"
        }
      ],
      "name": "UserWithdrawableFundsUpdated",
      "type": "event"
    },
    {
      "inputs": [],
      "name": "VALIDATOR_AFK_BLOCKS",
      "outputs": [
        {
          "internalType": "uint256",
          "name": "",
          "type": "uint256"
        }
      ],
      "stateMutability": "view",
      "type": "function"
    },
    {
      "inputs": [
        {
          "internalType": "address",
          "name": "",
          "type": "address"
        }
      ],
      "name": "_stakerMap",
      "outputs": [
        {
          "internalType": "uint256",
          "name": "amountStaked",
          "type": "uint256"
        },
        {
          "internalType": "uint64",
          "name": "index",
          "type": "uint64"
        },
        {
          "internalType": "uint64",
          "name": "latestStakedNode",
          "type": "uint64"
        },
        {
          "internalType": "uint64",
          "name": "currentChallenge",
          "type": "uint64"
        },
        {
          "internalType": "bool",
          "name": "isStaked",
          "type": "bool"
        }
      ],
      "stateMutability": "view",
      "type": "function"
    },
    {
      "inputs": [
        {
          "internalType": "address",
          "name": "stakerAddress",
          "type": "address"
        },
        {
          "internalType": "uint256",
          "name": "tokenAmount",
          "type": "uint256"
        }
      ],
      "name": "addToDeposit",
      "outputs": [],
      "stateMutability": "nonpayable",
      "type": "function"
    },
    {
      "inputs": [
        {
          "internalType": "address",
          "name": "staker",
          "type": "address"
        }
      ],
      "name": "amountStaked",
      "outputs": [
        {
          "internalType": "uint256",
          "name": "",
          "type": "uint256"
        }
      ],
      "stateMutability": "view",
      "type": "function"
    },
    {
      "inputs": [],
      "name": "anyTrustFastConfirmer",
      "outputs": [
        {
          "internalType": "address",
          "name": "",
          "type": "address"
        }
      ],
      "stateMutability": "view",
      "type": "function"
    },
    {
      "inputs": [],
      "name": "baseStake",
      "outputs": [
        {
          "internalType": "uint256",
          "name": "",
          "type": "uint256"
        }
      ],
      "stateMutability": "view",
      "type": "function"
    },
    {
      "inputs": [],
      "name": "bridge",
      "outputs": [
        {
          "internalType": "contract IBridge",
          "name": "",
          "type": "address"
        }
      ],
      "stateMutability": "view",
      "type": "function"
    },
    {
      "inputs": [],
      "name": "chainId",
      "outputs": [
        {
          "internalType": "uint256",
          "name": "",
          "type": "uint256"
        }
      ],
      "stateMutability": "view",
      "type": "function"
    },
    {
      "inputs": [],
      "name": "challengeManager",
      "outputs": [
        {
          "internalType": "contract IChallengeManager",
          "name": "",
          "type": "address"
        }
      ],
      "stateMutability": "view",
      "type": "function"
    },
    {
      "inputs": [
        {
          "internalType": "uint256",
          "name": "challengeIndex",
          "type": "uint256"
        },
        {
          "internalType": "address",
          "name": "winningStaker",
          "type": "address"
        },
        {
          "internalType": "address",
          "name": "losingStaker",
          "type": "address"
        }
      ],
      "name": "completeChallenge",
      "outputs": [],
      "stateMutability": "nonpayable",
      "type": "function"
    },
    {
      "inputs": [
        {
          "internalType": "bytes32",
          "name": "blockHash",
          "type": "bytes32"
        },
        {
          "internalType": "bytes32",
          "name": "sendRoot",
          "type": "bytes32"
        }
      ],
      "name": "confirmNextNode",
      "outputs": [],
      "stateMutability": "nonpayable",
      "type": "function"
    },
    {
      "inputs": [],
      "name": "confirmPeriodBlocks",
      "outputs": [
        {
          "internalType": "uint64",
          "name": "",
          "type": "uint64"
        }
      ],
      "stateMutability": "view",
      "type": "function"
    },
    {
      "inputs": [
        {
          "internalType": "uint64",
          "name": "nodeNum",
          "type": "uint64"
        }
      ],
      "name": "countStakedZombies",
      "outputs": [
        {
          "internalType": "uint256",
          "name": "",
          "type": "uint256"
        }
      ],
      "stateMutability": "view",
      "type": "function"
    },
    {
      "inputs": [
        {
          "internalType": "uint64",
          "name": "nodeNum",
          "type": "uint64"
        }
      ],
      "name": "countZombiesStakedOnChildren",
      "outputs": [
        {
          "internalType": "uint256",
          "name": "",
          "type": "uint256"
        }
      ],
      "stateMutability": "view",
      "type": "function"
    },
    {
      "inputs": [
        {
          "internalType": "address[2]",
          "name": "stakers",
          "type": "address[2]"
        },
        {
          "internalType": "uint64[2]",
          "name": "nodeNums",
          "type": "uint64[2]"
        },
        {
          "internalType": "enum MachineStatus[2]",
          "name": "machineStatuses",
          "type": "uint8[2]"
        },
        {
          "components": [
            {
              "internalType": "bytes32[2]",
              "name": "bytes32Vals",
              "type": "bytes32[2]"
            },
            {
              "internalType": "uint64[3]",
              "name": "u64Vals",
              "type": "uint64[3]"
            }
          ],
          "internalType": "struct GlobalState[2]",
          "name": "globalStates",
          "type": "tuple[2]"
        },
        {
          "internalType": "uint64",
          "name": "numBlocks",
          "type": "uint64"
        },
        {
          "internalType": "bytes32",
          "name": "secondExecutionHash",
          "type": "bytes32"
        },
        {
          "internalType": "uint256[2]",
          "name": "proposedBlocks",
          "type": "uint256[2]"
        },
        {
          "internalType": "bytes32[2]",
          "name": "wasmModuleRoots",
          "type": "bytes32[2]"
        }
      ],
      "name": "createChallenge",
      "outputs": [],
      "stateMutability": "nonpayable",
      "type": "function"
    },
    {
      "inputs": [
        {
          "internalType": "address",
          "name": "staker",
          "type": "address"
        }
      ],
      "name": "currentChallenge",
      "outputs": [
        {
          "internalType": "uint64",
          "name": "",
          "type": "uint64"
        }
      ],
      "stateMutability": "view",
      "type": "function"
    },
    {
      "inputs": [],
      "name": "currentRequiredStake",
      "outputs": [
        {
          "internalType": "uint256",
          "name": "",
          "type": "uint256"
        }
      ],
      "stateMutability": "view",
      "type": "function"
    },
    {
      "inputs": [],
      "name": "extraChallengeTimeBlocks",
      "outputs": [
        {
          "internalType": "uint64",
          "name": "",
          "type": "uint64"
        }
      ],
      "stateMutability": "view",
      "type": "function"
    },
    {
      "inputs": [
        {
          "internalType": "bytes32",
          "name": "blockHash",
          "type": "bytes32"
        },
        {
          "internalType": "bytes32",
          "name": "sendRoot",
          "type": "bytes32"
        }
      ],
      "name": "fastConfirmNextNode",
      "outputs": [],
      "stateMutability": "nonpayable",
      "type": "function"
    },
    {
      "inputs": [],
      "name": "firstUnresolvedNode",
      "outputs": [
        {
          "internalType": "uint64",
          "name": "",
          "type": "uint64"
        }
      ],
      "stateMutability": "view",
      "type": "function"
    },
    {
      "inputs": [
        {
          "internalType": "uint64",
          "name": "nodeNum",
          "type": "uint64"
        }
      ],
      "name": "getNode",
      "outputs": [
        {
          "components": [
            {
              "internalType": "bytes32",
              "name": "stateHash",
              "type": "bytes32"
            },
            {
              "internalType": "bytes32",
              "name": "challengeHash",
              "type": "bytes32"
            },
            {
              "internalType": "bytes32",
              "name": "confirmData",
              "type": "bytes32"
            },
            {
              "internalType": "uint64",
              "name": "prevNum",
              "type": "uint64"
            },
            {
              "internalType": "uint64",
              "name": "deadlineBlock",
              "type": "uint64"
            },
            {
              "internalType": "uint64",
              "name": "noChildConfirmedBeforeBlock",
              "type": "uint64"
            },
            {
              "internalType": "uint64",
              "name": "stakerCount",
              "type": "uint64"
            },
            {
              "internalType": "uint64",
              "name": "childStakerCount",
              "type": "uint64"
            },
            {
              "internalType": "uint64",
              "name": "firstChildBlock",
              "type": "uint64"
            },
            {
              "internalType": "uint64",
              "name": "latestChildNumber",
              "type": "uint64"
            },
            {
              "internalType": "uint64",
              "name": "createdAtBlock",
              "type": "uint64"
            },
            {
              "internalType": "bytes32",
              "name": "nodeHash",
              "type": "bytes32"
            }
          ],
          "internalType": "struct Node",
          "name": "",
          "type": "tuple"
        }
      ],
      "stateMutability": "view",
      "type": "function"
    },
    {
      "inputs": [
        {
          "internalType": "uint64",
          "name": "nodeNum",
          "type": "uint64"
        }
      ],
      "name": "getNodeCreationBlockForLogLookup",
      "outputs": [
        {
          "internalType": "uint256",
          "name": "",
          "type": "uint256"
        }
      ],
      "stateMutability": "view",
      "type": "function"
    },
    {
      "inputs": [
        {
          "internalType": "address",
          "name": "staker",
          "type": "address"
        }
      ],
      "name": "getStaker",
      "outputs": [
        {
          "components": [
            {
              "internalType": "uint256",
              "name": "amountStaked",
              "type": "uint256"
            },
            {
              "internalType": "uint64",
              "name": "index",
              "type": "uint64"
            },
            {
              "internalType": "uint64",
              "name": "latestStakedNode",
              "type": "uint64"
            },
            {
              "internalType": "uint64",
              "name": "currentChallenge",
              "type": "uint64"
            },
            {
              "internalType": "bool",
              "name": "isStaked",
              "type": "bool"
            }
          ],
          "internalType": "struct IRollupCore.Staker",
          "name": "",
          "type": "tuple"
        }
      ],
      "stateMutability": "view",
      "type": "function"
    },
    {
      "inputs": [
        {
          "internalType": "uint64",
          "name": "stakerNum",
          "type": "uint64"
        }
      ],
      "name": "getStakerAddress",
      "outputs": [
        {
          "internalType": "address",
          "name": "",
          "type": "address"
        }
      ],
      "stateMutability": "view",
      "type": "function"
    },
    {
      "inputs": [],
      "name": "inbox",
      "outputs": [
        {
          "internalType": "contract IInboxBase",
          "name": "",
          "type": "address"
        }
      ],
      "stateMutability": "view",
      "type": "function"
    },
    {
      "inputs": [
        {
          "internalType": "address",
          "name": "_stakeToken",
          "type": "address"
        }
      ],
      "name": "initialize",
      "outputs": [],
      "stateMutability": "view",
      "type": "function"
    },
    {
      "inputs": [],
      "name": "isERC20Enabled",
      "outputs": [
        {
          "internalType": "bool",
          "name": "",
          "type": "bool"
        }
      ],
      "stateMutability": "view",
      "type": "function"
    },
    {
      "inputs": [
        {
          "internalType": "address",
          "name": "staker",
          "type": "address"
        }
      ],
      "name": "isStaked",
      "outputs": [
        {
          "internalType": "bool",
          "name": "",
          "type": "bool"
        }
      ],
      "stateMutability": "view",
      "type": "function"
    },
    {
      "inputs": [
        {
          "internalType": "address",
          "name": "staker",
          "type": "address"
        }
      ],
      "name": "isStakedOnLatestConfirmed",
      "outputs": [
        {
          "internalType": "bool",
          "name": "",
          "type": "bool"
        }
      ],
      "stateMutability": "view",
      "type": "function"
    },
    {
      "inputs": [
        {
          "internalType": "address",
          "name": "",
          "type": "address"
        }
      ],
      "name": "isValidator",
      "outputs": [
        {
          "internalType": "bool",
          "name": "",
          "type": "bool"
        }
      ],
      "stateMutability": "view",
      "type": "function"
    },
    {
      "inputs": [
        {
          "internalType": "address",
          "name": "staker",
          "type": "address"
        }
      ],
      "name": "isZombie",
      "outputs": [
        {
          "internalType": "bool",
          "name": "",
          "type": "bool"
        }
      ],
      "stateMutability": "view",
      "type": "function"
    },
    {
      "inputs": [],
      "name": "lastStakeBlock",
      "outputs": [
        {
          "internalType": "uint64",
          "name": "",
          "type": "uint64"
        }
      ],
      "stateMutability": "view",
      "type": "function"
    },
    {
      "inputs": [],
      "name": "latestConfirmed",
      "outputs": [
        {
          "internalType": "uint64",
          "name": "",
          "type": "uint64"
        }
      ],
      "stateMutability": "view",
      "type": "function"
    },
    {
      "inputs": [],
      "name": "latestNodeCreated",
      "outputs": [
        {
          "internalType": "uint64",
          "name": "",
          "type": "uint64"
        }
      ],
      "stateMutability": "view",
      "type": "function"
    },
    {
      "inputs": [
        {
          "internalType": "address",
          "name": "staker",
          "type": "address"
        }
      ],
      "name": "latestStakedNode",
      "outputs": [
        {
          "internalType": "uint64",
          "name": "",
          "type": "uint64"
        }
      ],
      "stateMutability": "view",
      "type": "function"
    },
    {
      "inputs": [],
      "name": "loserStakeEscrow",
      "outputs": [
        {
          "internalType": "address",
          "name": "",
          "type": "address"
        }
      ],
      "stateMutability": "view",
      "type": "function"
    },
    {
      "inputs": [],
      "name": "minimumAssertionPeriod",
      "outputs": [
        {
          "internalType": "uint256",
          "name": "",
          "type": "uint256"
        }
      ],
      "stateMutability": "view",
      "type": "function"
    },
    {
      "inputs": [
        {
          "internalType": "uint256",
          "name": "tokenAmount",
          "type": "uint256"
        },
        {
          "internalType": "uint64",
          "name": "nodeNum",
          "type": "uint64"
        },
        {
          "internalType": "bytes32",
          "name": "nodeHash",
          "type": "bytes32"
        }
      ],
      "name": "newStakeOnExistingNode",
      "outputs": [],
      "stateMutability": "nonpayable",
      "type": "function"
    },
    {
      "inputs": [
        {
          "internalType": "uint256",
          "name": "tokenAmount",
          "type": "uint256"
        },
        {
          "components": [
            {
              "components": [
                {
                  "components": [
                    {
                      "internalType": "bytes32[2]",
                      "name": "bytes32Vals",
                      "type": "bytes32[2]"
                    },
                    {
                      "internalType": "uint64[3]",
                      "name": "u64Vals",
                      "type": "uint64[3]"
                    }
                  ],
                  "internalType": "struct GlobalState",
                  "name": "globalState",
                  "type": "tuple"
                },
                {
                  "internalType": "enum MachineStatus",
                  "name": "machineStatus",
                  "type": "uint8"
                }
              ],
              "internalType": "struct ExecutionState",
              "name": "beforeState",
              "type": "tuple"
            },
            {
              "components": [
                {
                  "components": [
                    {
                      "internalType": "bytes32[2]",
                      "name": "bytes32Vals",
                      "type": "bytes32[2]"
                    },
                    {
                      "internalType": "uint64[3]",
                      "name": "u64Vals",
                      "type": "uint64[3]"
                    }
                  ],
                  "internalType": "struct GlobalState",
                  "name": "globalState",
                  "type": "tuple"
                },
                {
                  "internalType": "enum MachineStatus",
                  "name": "machineStatus",
                  "type": "uint8"
                }
              ],
              "internalType": "struct ExecutionState",
              "name": "afterState",
              "type": "tuple"
            },
            {
              "internalType": "uint64",
              "name": "numBlocks",
              "type": "uint64"
            }
          ],
          "internalType": "struct Assertion",
          "name": "assertion",
          "type": "tuple"
        },
        {
          "internalType": "bytes32",
          "name": "expectedNodeHash",
          "type": "bytes32"
        },
        {
          "internalType": "uint256",
          "name": "prevNodeInboxMaxCount",
          "type": "uint256"
        }
      ],
      "name": "newStakeOnNewNode",
      "outputs": [],
      "stateMutability": "nonpayable",
      "type": "function"
    },
    {
      "inputs": [
        {
          "internalType": "uint64",
          "name": "nodeNum",
          "type": "uint64"
        },
        {
          "internalType": "address",
          "name": "staker",
          "type": "address"
        }
      ],
      "name": "nodeHasStaker",
      "outputs": [
        {
          "internalType": "bool",
          "name": "",
          "type": "bool"
        }
      ],
      "stateMutability": "view",
      "type": "function"
    },
    {
      "inputs": [],
      "name": "outbox",
      "outputs": [
        {
          "internalType": "contract IOutbox",
          "name": "",
          "type": "address"
        }
      ],
      "stateMutability": "view",
      "type": "function"
    },
    {
      "inputs": [],
      "name": "owner",
      "outputs": [
        {
          "internalType": "address",
          "name": "",
          "type": "address"
        }
      ],
      "stateMutability": "view",
      "type": "function"
    },
    {
      "inputs": [],
      "name": "paused",
      "outputs": [
        {
          "internalType": "bool",
          "name": "",
          "type": "bool"
        }
      ],
      "stateMutability": "view",
      "type": "function"
    },
    {
      "inputs": [],
      "name": "proxiableUUID",
      "outputs": [
        {
          "internalType": "bytes32",
          "name": "",
          "type": "bytes32"
        }
      ],
      "stateMutability": "view",
      "type": "function"
    },
    {
      "inputs": [
        {
          "internalType": "uint256",
          "name": "target",
          "type": "uint256"
        }
      ],
      "name": "reduceDeposit",
      "outputs": [],
      "stateMutability": "nonpayable",
      "type": "function"
    },
    {
      "inputs": [
        {
          "internalType": "address",
          "name": "stakerAddress",
          "type": "address"
        }
      ],
      "name": "rejectNextNode",
      "outputs": [],
      "stateMutability": "nonpayable",
      "type": "function"
    },
    {
      "inputs": [
        {
          "internalType": "uint256",
          "name": "startIndex",
          "type": "uint256"
        }
      ],
      "name": "removeOldZombies",
      "outputs": [],
      "stateMutability": "nonpayable",
      "type": "function"
    },
    {
      "inputs": [],
      "name": "removeWhitelistAfterFork",
      "outputs": [],
      "stateMutability": "nonpayable",
      "type": "function"
    },
    {
      "inputs": [],
      "name": "removeWhitelistAfterValidatorAfk",
      "outputs": [],
      "stateMutability": "nonpayable",
      "type": "function"
    },
    {
      "inputs": [
        {
          "internalType": "uint256",
          "name": "zombieNum",
          "type": "uint256"
        },
        {
          "internalType": "uint256",
          "name": "maxNodes",
          "type": "uint256"
        }
      ],
      "name": "removeZombie",
      "outputs": [],
      "stateMutability": "nonpayable",
      "type": "function"
    },
    {
      "inputs": [
        {
          "internalType": "uint256",
          "name": "nodeNum",
          "type": "uint256"
        }
      ],
      "name": "requireUnresolved",
      "outputs": [],
      "stateMutability": "view",
      "type": "function"
    },
    {
      "inputs": [],
      "name": "requireUnresolvedExists",
      "outputs": [],
      "stateMutability": "view",
      "type": "function"
    },
    {
      "inputs": [
        {
          "internalType": "uint256",
          "name": "blockNumber",
          "type": "uint256"
        },
        {
          "internalType": "uint64",
          "name": "firstUnresolvedNodeNum",
          "type": "uint64"
        },
        {
          "internalType": "uint64",
          "name": "latestCreatedNode",
          "type": "uint64"
        }
      ],
      "name": "requiredStake",
      "outputs": [
        {
          "internalType": "uint256",
          "name": "",
          "type": "uint256"
        }
      ],
      "stateMutability": "view",
      "type": "function"
    },
    {
      "inputs": [
        {
          "internalType": "address",
          "name": "stakerAddress",
          "type": "address"
        }
      ],
      "name": "returnOldDeposit",
      "outputs": [],
      "stateMutability": "nonpayable",
      "type": "function"
    },
    {
      "inputs": [],
      "name": "rollupDeploymentBlock",
      "outputs": [
        {
          "internalType": "uint256",
          "name": "",
          "type": "uint256"
        }
      ],
      "stateMutability": "view",
      "type": "function"
    },
    {
      "inputs": [],
      "name": "rollupEventInbox",
      "outputs": [
        {
          "internalType": "contract IRollupEventInbox",
          "name": "",
          "type": "address"
        }
      ],
      "stateMutability": "view",
      "type": "function"
    },
    {
      "inputs": [],
      "name": "sequencerInbox",
      "outputs": [
        {
          "internalType": "contract ISequencerInbox",
          "name": "",
          "type": "address"
        }
      ],
      "stateMutability": "view",
      "type": "function"
    },
    {
      "inputs": [
        {
          "internalType": "uint64",
          "name": "nodeNum",
          "type": "uint64"
        },
        {
          "internalType": "bytes32",
          "name": "nodeHash",
          "type": "bytes32"
        }
      ],
      "name": "stakeOnExistingNode",
      "outputs": [],
      "stateMutability": "nonpayable",
      "type": "function"
    },
    {
      "inputs": [
        {
          "components": [
            {
              "components": [
                {
                  "components": [
                    {
                      "internalType": "bytes32[2]",
                      "name": "bytes32Vals",
                      "type": "bytes32[2]"
                    },
                    {
                      "internalType": "uint64[3]",
                      "name": "u64Vals",
                      "type": "uint64[3]"
                    }
                  ],
                  "internalType": "struct GlobalState",
                  "name": "globalState",
                  "type": "tuple"
                },
                {
                  "internalType": "enum MachineStatus",
                  "name": "machineStatus",
                  "type": "uint8"
                }
              ],
              "internalType": "struct ExecutionState",
              "name": "beforeState",
              "type": "tuple"
            },
            {
              "components": [
                {
                  "components": [
                    {
                      "internalType": "bytes32[2]",
                      "name": "bytes32Vals",
                      "type": "bytes32[2]"
                    },
                    {
                      "internalType": "uint64[3]",
                      "name": "u64Vals",
                      "type": "uint64[3]"
                    }
                  ],
                  "internalType": "struct GlobalState",
                  "name": "globalState",
                  "type": "tuple"
                },
                {
                  "internalType": "enum MachineStatus",
                  "name": "machineStatus",
                  "type": "uint8"
                }
              ],
              "internalType": "struct ExecutionState",
              "name": "afterState",
              "type": "tuple"
            },
            {
              "internalType": "uint64",
              "name": "numBlocks",
              "type": "uint64"
            }
          ],
          "internalType": "struct Assertion",
          "name": "assertion",
          "type": "tuple"
        },
        {
          "internalType": "bytes32",
          "name": "expectedNodeHash",
          "type": "bytes32"
        },
        {
          "internalType": "uint256",
          "name": "prevNodeInboxMaxCount",
          "type": "uint256"
        }
      ],
      "name": "stakeOnNewNode",
      "outputs": [],
      "stateMutability": "nonpayable",
      "type": "function"
    },
    {
      "inputs": [],
      "name": "stakeToken",
      "outputs": [
        {
          "internalType": "address",
          "name": "",
          "type": "address"
        }
      ],
      "stateMutability": "view",
      "type": "function"
    },
    {
      "inputs": [],
      "name": "stakerCount",
      "outputs": [
        {
          "internalType": "uint64",
          "name": "",
          "type": "uint64"
        }
      ],
      "stateMutability": "view",
      "type": "function"
    },
    {
      "inputs": [],
      "name": "totalWithdrawableFunds",
      "outputs": [
        {
          "internalType": "uint256",
          "name": "",
          "type": "uint256"
        }
      ],
      "stateMutability": "view",
      "type": "function"
    },
    {
      "inputs": [],
      "name": "validatorUtils",
      "outputs": [
        {
          "internalType": "address",
          "name": "",
          "type": "address"
        }
      ],
      "stateMutability": "view",
      "type": "function"
    },
    {
      "inputs": [],
      "name": "validatorWalletCreator",
      "outputs": [
        {
          "internalType": "address",
          "name": "",
          "type": "address"
        }
      ],
      "stateMutability": "view",
      "type": "function"
    },
    {
      "inputs": [],
      "name": "validatorWhitelistDisabled",
      "outputs": [
        {
          "internalType": "bool",
          "name": "",
          "type": "bool"
        }
      ],
      "stateMutability": "view",
      "type": "function"
    },
    {
      "inputs": [],
      "name": "wasmModuleRoot",
      "outputs": [
        {
          "internalType": "bytes32",
          "name": "",
          "type": "bytes32"
        }
      ],
      "stateMutability": "view",
      "type": "function"
    },
    {
      "inputs": [],
      "name": "withdrawStakerFunds",
      "outputs": [
        {
          "internalType": "uint256",
          "name": "",
          "type": "uint256"
        }
      ],
      "stateMutability": "nonpayable",
      "type": "function"
    },
    {
      "inputs": [
        {
          "internalType": "address",
          "name": "user",
          "type": "address"
        }
      ],
      "name": "withdrawableFunds",
      "outputs": [
        {
          "internalType": "uint256",
          "name": "",
          "type": "uint256"
        }
      ],
      "stateMutability": "view",
      "type": "function"
    },
    {
      "inputs": [
        {
          "internalType": "uint256",
          "name": "zombieNum",
          "type": "uint256"
        }
      ],
      "name": "zombieAddress",
      "outputs": [
        {
          "internalType": "address",
          "name": "",
          "type": "address"
        }
      ],
      "stateMutability": "view",
      "type": "function"
    },
    {
      "inputs": [],
      "name": "zombieCount",
      "outputs": [
        {
          "internalType": "uint256",
          "name": "",
          "type": "uint256"
        }
      ],
      "stateMutability": "view",
      "type": "function"
    },
    {
      "inputs": [
        {
          "internalType": "uint256",
          "name": "zombieNum",
          "type": "uint256"
        }
      ],
      "name": "zombieLatestStakedNode",
      "outputs": [
        {
          "internalType": "uint64",
          "name": "",
          "type": "uint64"
        }
      ],
      "stateMutability": "view",
      "type": "function"
    }
  ],
  "bytecode": "0x60e060405261000c61002b565b15156080523060a0524660c05234801561002557600080fd5b506100f2565b60408051600481526024810182526020810180516001600160e01b03166302881c7960e11b17905290516000918291829160649161006991906100c3565b600060405180830381855afa9150503d80600081146100a4576040519150601f19603f3d011682016040523d82523d6000602084013e6100a9565b606091505b50915091508180156100bc575080516020145b9250505090565b6000825160005b818110156100e457602081860181015185830152016100ca565b506000920191825250919050565b60805160a05160c051615d396101366000396000611e1c0152600081816111d801528181611e890152611f0e01526000818161287b01526148560152615d396000f3fe608060405234801561001057600080fd5b506004361061035d5760003560e01c8063771b2f97116101cb578063ce11e6ab11610100578063ce11e6ab14610806578063d01e660214610819578063d735e21d1461082c578063dcd030aa14610834578063dff6978714610847578063e78cea921461084f578063e8bd492214610862578063eb2055bb146108ea578063edfd03ed146108fd578063ee35f32714610910578063ef40a67014610923578063f065de3f14610936578063f33e1fac14610949578063f3f0a03e1461095c578063f63a434a1461096f578063facd743b14610982578063fb0e722b146109a5578063fb154eb8146109b857600080fd5b8063771b2f97146105de578063773d984e146105f85780637ba9534a1461060b5780637e2d2155146106135780638640ce5f146106265780638da5cb5b1461063e5780638ee1a1261461064657806391c657e81461064f57806392c8134c146106625780639a8a059214610682578063a23c44b11461068b578063aa38a6e714610797578063aa65af48146107aa578063b0ebedc7146107bd578063bc45e0ae146107d0578063c2c2e68e146107e3578063c4d66de8146107eb578063cd205fda146107fe57600080fd5b806351ed6a30116102a157806351ed6a30146104d657806352d1902d146104e957806355840a58146104f15780635c617e94146105095780635c975abb1461051c5780635eb405d514610527578063613739191461053a5780636177fd181461054257806363721d6b1461055557806365f7f80d1461055d57806367425daf1461056557806369fd251c1461056d5780636b94c33b146105805780636d08d0a2146105935780636ddd3744146105a657806371ef232c146105b95780637427be51146105c257806376e7e23b146105d557600080fd5b8063014cc92c14610362578063023a96fe146103925780630357aa49146103a557806312ab3d3b146103ba57806318baaab9146103d75780631aeb55a0146103df5780631b1689e9146103f25780631cf8d986146104095780631e83d30f1461041c5780632b2af0ab1461042f5780632e7acfa6146104425780632f30cabd1461046d5780633e96576e1461049657806345e38b64146104a95780634a7a8010146104b25780634ceccfe5146104c55780634d26732d146104ce575b600080fd5b606f54610375906001600160a01b031681565b6040516001600160a01b0390911681526020015b60405180910390f35b606e54610375906001600160a01b031681565b6103b86103b3366004615098565b6109cb565b005b607e546103c79060ff1681565b6040519015158152602001610389565b6103b8610a9e565b6103b86103ed3660046150ef565b610b18565b6103fb607d5481565b604051908152602001610389565b6103b8610417366004615134565b610cd8565b6103b861042a36600461516b565b610f3b565b6103b861043d36600461516b565b611044565b606554610455906001600160401b031681565b6040516001600160401b039091168152602001610389565b6103fb61047b366004615191565b6001600160a01b03166000908152607b602052604090205490565b6104556104a4366004615191565b6110e8565b6103fb60735481565b6103b86104c03660046151ae565b611116565b6103fb61b2fa81565b6103fb61119d565b607254610375906001600160a01b031681565b6103fb6111cb565b607e546103759061010090046001600160a01b031681565b6103fb6105173660046151d0565b61128e565b60335460ff166103c7565b6103b86105353660046151ae565b6112d8565b6103fb611343565b6103c7610550366004615191565b6114e5565b607a546103fb565b61045561150d565b6103b861151c565b61045561057b366004615191565b61159c565b6103b861058e366004615191565b6115ca565b6103fb6105a13660046151d0565b6118f7565b6103756105b43660046151d0565b611970565b6103fb607c5481565b6103b86105d0366004615191565b6119a9565b6103fb60675481565b60655461045590600160401b90046001600160401b031681565b6103b86106063660046151ed565b611af7565b610455611b13565b6103b86106213660046151ae565b611b29565b607554600160c01b90046001600160401b0316610455565b610375611c83565b6103fb60685481565b6103c761065d366004615191565b611c8d565b6106756106703660046151d0565b611ce7565b6040516103899190615225565b6103fb60665481565b610738610699366004615191565b6040805160a081018252600080825260208201819052918101829052606081018290526080810191909152506001600160a01b0316600090815260796020908152604091829020825160a081018452815481526001909101546001600160401b0380821693830193909352600160401b8104831693820193909352600160801b83049091166060820152600160c01b90910460ff161515608082015290565b6040516103899190600060a082019050825182526001600160401b0360208401511660208301526001600160401b0360408401511660408301526001600160401b03606084015116606083015260808301511515608083015292915050565b606d54610375906001600160a01b031681565b6103c76107b83660046152f3565b611d9f565b6103fb6107cb36600461532c565b611dd6565b607054610375906001600160a01b031681565b6103b8611df6565b6103b86107f9366004615191565b611e7f565b6103c7612038565b606b54610375906001600160a01b031681565b61037561082736600461516b565b612049565b61045561205e565b6103c7610842366004615191565b612074565b607854610455565b606a54610375906001600160a01b031681565b6108b2610870366004615191565b607960205260009081526040902080546001909101546001600160401b0380821691600160401b8104821691600160801b82041690600160c01b900460ff1685565b604080519586526001600160401b0394851660208701529284169285019290925290911660608301521515608082015260a001610389565b6103b86108f8366004615374565b6120b7565b6103b861090b36600461516b565b6126de565b606c54610375906001600160a01b031681565b6103fb610931366004615191565b6127b3565b607154610375906001600160a01b031681565b61045561095736600461516b565b6127ce565b6103b861096a366004615414565b612805565b6103fb61097d3660046151d0565b612877565b6103c7610990366004615191565b60746020526000908152604090205460ff1681565b606954610375906001600160a01b031681565b6103b86109c6366004615432565b612936565b60335460ff16156109f75760405162461bcd60e51b81526004016109ee90615471565b60405180910390fd5b606e546001600160a01b03163314610a405760405162461bcd60e51b815260206004820152600c60248201526b2ba927a723afa9a2a72222a960a11b60448201526064016109ee565b610a4a8282612953565b6001600160401b03168314610a8f5760405162461bcd60e51b815260206004820152600b60248201526a1393d517d25397d0d2105360aa1b60448201526064016109ee565b610a998282612a21565b505050565b607e5460ff1615610ac15760405162461bcd60e51b81526004016109ee9061549b565b610ac9612ad6565b610b095760405162461bcd60e51b815260206004820152601160248201527056414c494441544f525f4e4f545f41464b60781b60448201526064016109ee565b607e805460ff19166001179055565b3360009081526074602052604090205460ff1680610b385750607e5460ff165b610b545760405162461bcd60e51b81526004016109ee906154c7565b60335460ff1615610b775760405162461bcd60e51b81526004016109ee90615471565b610b8033612074565b610b9c5760405162461bcd60e51b81526004016109ee906154ee565b610ba461205e565b6001600160401b0316826001600160401b031610158015610bde5750610bc8611b13565b6001600160401b0316826001600160401b031611155b610c225760405162461bcd60e51b81526020600482015260156024820152744e4f44455f4e554d5f4f55545f4f465f52414e474560581b60448201526064016109ee565b6000610c2d83612be3565b905081816005015414610c6f5760405162461bcd60e51b815260206004820152600a6024820152694e4f44455f52454f524760b01b60448201526064016109ee565b60038101546001600160401b0316610c86336110e8565b6001600160401b031614610cce5760405162461bcd60e51b815260206004820152600f60248201526e2727aa2fa9aa20a5a2a22fa82922ab60891b60448201526064016109ee565b610a993384612bfd565b3360009081526074602052604090205460ff1680610cf85750607e5460ff165b610d145760405162461bcd60e51b81526004016109ee906154c7565b60335460ff1615610d375760405162461bcd60e51b81526004016109ee90615471565b610d4033612074565b610d5c5760405162461bcd60e51b81526004016109ee906154ee565b6000610d67336110e8565b90506000610d7482611ce7565b6101400151610d8c906001600160401b031643615528565b9050607354811015610dcd5760405162461bcd60e51b815260206004820152600a60248201526954494d455f44454c544160b01b60448201526064016109ee565b6002610de161018087016101608801615560565b6003811115610df257610df261553b565b1480610e20575082610e14610e0f36889003880160c089016156b5565b612c4d565b6001600160401b031610155b610e585760405162461bcd60e51b81526020600482015260096024820152681513d3d7d4d350531360ba1b60448201526064016109ee565b6000610e6c6101a0870161018088016151d0565b6001600160401b031611610eb45760405162461bcd60e51b815260206004820152600f60248201526e22a6a82a2cafa0a9a9a2a92a24a7a760891b60448201526064016109ee565b6001610ec660c0870160a08801615560565b6003811115610ed757610ed761553b565b14610f165760405162461bcd60e51b815260206004820152600f60248201526e4241445f505245565f53544154555360881b60448201526064016109ee565b50610f2384828486612c62565b50610f3533610f30611b13565b612bfd565b50505050565b3360009081526074602052604090205460ff1680610f5b5750607e5460ff165b610f775760405162461bcd60e51b81526004016109ee906154c7565b60335460ff161580610ffd5750606a546040805163cb23bcb560e01b8152905130926001600160a01b03169163cb23bcb59160048083019260209291908290030181865afa158015610fcd573d6000803e3d6000fd5b505050506040513d601f19601f82011682018060405250810190610ff191906156d1565b6001600160a01b031614155b6110195760405162461bcd60e51b81526004016109ee906156ee565b6110223361322b565b600061102c61119d565b90508082101561103a578091505b610a99338361329b565b61104c61205e565b6001600160401b03168110156110965760405162461bcd60e51b815260206004820152600f60248201526e1053149150511657d11150d2511151608a1b60448201526064016109ee565b61109e611b13565b6001600160401b03168111156110e55760405162461bcd60e51b815260206004820152600c60248201526b1113d154d39517d1561254d560a21b60448201526064016109ee565b50565b6001600160a01b0316600090815260796020526040902060010154600160401b90046001600160401b031690565b60335460ff16156111395760405162461bcd60e51b81526004016109ee90615471565b607e5461010090046001600160a01b0316331461118d5760405162461bcd60e51b81526020600482015260126024820152712727aa2fa320a9aa2fa1a7a72324a926a2a960711b60448201526064016109ee565b6111998282600161334e565b5050565b6000806111a861205e565b90506111c543826111b7611b13565b6001600160401b0316613616565b91505090565b6000306001600160a01b037f000000000000000000000000000000000000000000000000000000000000000016146112695760405162461bcd60e51b815260206004820152603b60248201527f555550534e6f745570677261646561626c653a206d757374206e6f742062652060448201527a18d85b1b1959081d1a1c9bdd59da0819195b1959d85d1958d85b1b602a1b60648201526084016109ee565b507f2b1dbce74324248c222f0ec2d5ed7bd323cfc425b336f0253c5ccfda7265546d90565b60008061129a607a5490565b90506000805b828110156112d0576112b5856107b883612049565b156112c857816112c481615719565b9250505b6001016112a0565b509392505050565b3360009081526074602052604090205460ff16806112f85750607e5460ff165b6113145760405162461bcd60e51b81526004016109ee906154c7565b60335460ff16156113375760405162461bcd60e51b81526004016109ee90615471565b6111998282600061334e565b3360009081526074602052604081205460ff16806113635750607e5460ff165b61137f5760405162461bcd60e51b81526004016109ee906154c7565b60335460ff1615806114055750606a546040805163cb23bcb560e01b8152905130926001600160a01b03169163cb23bcb59160048083019260209291908290030181865afa1580156113d5573d6000803e3d6000fd5b505050506040513d601f19601f820116820180604052508101906113f991906156d1565b6001600160a01b031614155b6114215760405162461bcd60e51b81526004016109ee906156ee565b600061142c33613880565b60725460405163a9059cbb60e01b8152336004820152602481018390529192506001600160a01b03169063a9059cbb906044016020604051808303816000875af115801561147e573d6000803e3d6000fd5b505050506040513d601f19601f820116820180604052508101906114a29190615732565b6114e05760405162461bcd60e51b815260206004820152600f60248201526e1514905394d1915497d19052531151608a1b60448201526064016109ee565b905090565b6001600160a01b0316600090815260796020526040902060010154600160c01b900460ff1690565b6075546001600160401b031690565b600061152661205e565b6001600160401b0316905061153961150d565b6001600160401b0316811180156115605750611553611b13565b6001600160401b03168111155b6110e55760405162461bcd60e51b815260206004820152600d60248201526c1393d7d553949154d3d3159151609a1b60448201526064016109ee565b6001600160a01b0316600090815260796020526040902060010154600160801b90046001600160401b031690565b3360009081526074602052604090205460ff16806115ea5750607e5460ff165b6116065760405162461bcd60e51b81526004016109ee906154c7565b60335460ff16156116295760405162461bcd60e51b81526004016109ee90615471565b61163161151c565b600061163b61150d565b9050600061164761205e565b9050600061165482612be3565b60038101549091506001600160401b038085169116036118b55761167784612074565b6116935760405162461bcd60e51b81526004016109ee906154ee565b6116ad61169f856110e8565b6001600160401b0316611044565b6116b78285611d9f565b156116f75760405162461bcd60e51b815260206004820152601060248201526f14d51052d15117d3d397d5105491d15560821b60448201526064016109ee565b6040805161018081018252825481526001830154602082015260028301549181019190915260038201546001600160401b038082166060840152600160401b80830482166080850152600160801b808404831660a0860152600160c01b93849004831660c0860152600486015480841660e0870152918204831661010086015281048216610120850152919091041661014082015260058201546101608201526117a090613901565b6118526117ac84612be3565b6040805161018081018252825481526001830154602082015260028301549181019190915260038201546001600160401b038082166060840152600160401b80830482166080850152600160801b808404831660a0860152600160c01b93849004831660c0860152600486015480841660e08701529182048316610100860152810482166101208501529190910416610140820152600590910154610160820152613950565b61185c60006126de565b6118658261128e565b6003820154600160c01b90046001600160401b0316146118b55760405162461bcd60e51b815260206004820152600b60248201526a4841535f5354414b45525360a81b60448201526064016109ee565b6118bd6139a0565b6040516001600160401b038316907feaffa3d968707ec919a2fc9f31d5ab2b86c905881ff561725d5a82fc95ad464090600090a250505050565b600080611903607a5490565b90506000805b828110156112d057600061191c826139e7565b80549091506001600160401b03878116600160a01b9092041614801590611954575080546119549087906001600160a01b0316611d9f565b15611967578261196381615719565b9350505b50600101611909565b60006078826001600160401b03168154811061198e5761198e615754565b6000918252602090912001546001600160a01b031692915050565b3360009081526074602052604090205460ff16806119c95750607e5460ff165b6119e55760405162461bcd60e51b81526004016109ee906154c7565b60335460ff161580611a6b5750606a546040805163cb23bcb560e01b8152905130926001600160a01b03169163cb23bcb59160048083019260209291908290030181865afa158015611a3b573d6000803e3d6000fd5b505050506040513d601f19601f82011682018060405250810190611a5f91906156d1565b6001600160a01b031614155b611a875760405162461bcd60e51b81526004016109ee906156ee565b611a8f61150d565b6001600160401b0316611aa1826110e8565b6001600160401b03161115611ae55760405162461bcd60e51b815260206004820152600a6024820152691513d3d7d49150d1539560b21b60448201526064016109ee565b611aee8161322b565b6110e581613a0d565b611b0083613abd565b611b0a8282610b18565b610a9983613bdf565b607554600160801b90046001600160401b031690565b3360009081526074602052604090205460ff1680611b495750607e5460ff165b611b655760405162461bcd60e51b81526004016109ee906154c7565b60335460ff1615611b885760405162461bcd60e51b81526004016109ee90615471565b607a548210611bca5760405162461bcd60e51b815260206004820152600e60248201526d4e4f5f535543485f5a4f4d42494560901b60448201526064016109ee565b6000611bd583612049565b90506000611be2846127ce565b9050600080611bef61150d565b6001600160401b031690505b80836001600160401b031610158015611c1357508482105b15611c52576000611c2384612be3565b9050611c2f8486613c96565b60038101546001600160401b0316935082611c4981615719565b93505050611bfb565b80836001600160401b03161015611c7157611c6c86613de0565b611c7b565b611c7b8684613ea6565b505050505050565b60006114e0613eef565b6000805b607a54811015611cde57607a8181548110611cae57611cae615754565b6000918252602090912001546001600160a01b0390811690841603611cd65750600192915050565b600101611c91565b50600092915050565b611cef614f33565b611cf882612be3565b6040805161018081018252825481526001830154602082015260028301549181019190915260038201546001600160401b038082166060840152600160401b80830482166080850152600160801b808404831660a0860152600160c01b93849004831660c0860152600486015480841660e0870152918204831661010086015281048216610120850152919091041661014082015260059091015461016082015292915050565b6001600160401b03821660009081526077602090815260408083206001600160a01b038516845290915290205460ff165b92915050565b6000611dec8484846001600160401b0316613616565b90505b9392505050565b607e5460ff1615611e195760405162461bcd60e51b81526004016109ee9061549b565b467f000000000000000000000000000000000000000000000000000000000000000003610b095760405162461bcd60e51b815260206004820152601460248201527310d210525397d25117d393d517d0d2105391d15160621b60448201526064016109ee565b6001600160a01b037f0000000000000000000000000000000000000000000000000000000000000000163003611f0c5760405162461bcd60e51b815260206004820152602c60248201527f46756e6374696f6e206d7573742062652063616c6c6564207468726f7567682060448201526b19195b1959d85d1958d85b1b60a21b60648201526084016109ee565b7f00000000000000000000000000000000000000000000000000000000000000006001600160a01b0316611f3e613f22565b6001600160a01b031614611fa95760405162461bcd60e51b815260206004820152602c60248201527f46756e6374696f6e206d7573742062652063616c6c6564207468726f7567682060448201526b6163746976652070726f787960a01b60648201526084016109ee565b6001600160a01b038116611ff25760405162461bcd60e51b815260206004820152601060248201526f2722a2a22fa9aa20a5a2afaa27a5a2a760811b60448201526064016109ee565b611ffa612038565b6110e55760405162461bcd60e51b815260206004820152600f60248201526e046414345545f4e4f545f455243323608c1b60448201526064016109ee565b6072546001600160a01b0316151590565b6000607a828154811061198e5761198e615754565b607554600160401b90046001600160401b031690565b6001600160a01b038116600090815260796020526040812060010154600160c01b900460ff168015611dd05750607554611dd0906001600160401b031683611d9f565b3360009081526074602052604090205460ff16806120d75750607e5460ff165b6120f35760405162461bcd60e51b81526004016109ee906154c7565b60335460ff16156121165760405162461bcd60e51b81526004016109ee90615471565b61212660408801602089016151d0565b6001600160401b031661213c60208901896151d0565b6001600160401b0316106121805760405162461bcd60e51b815260206004820152600b60248201526a2ba927a723afa7a92222a960a91b60448201526064016109ee565b612188611b13565b6001600160401b03166121a16040890160208a016151d0565b6001600160401b031611156121e75760405162461bcd60e51b815260206004820152600c60248201526b1393d517d41493d413d4d15160a21b60448201526064016109ee565b6121f460208801886151d0565b6001600160401b031661220561150d565b6001600160401b03161061224f5760405162461bcd60e51b81526020600482015260116024820152701053149150511657d0d3d3919254935151607a1b60448201526064016109ee565b600061226f88825b60200201602081019061226a91906151d0565b612be3565b9050600061227e896001612257565b600380820154908401549192506001600160401b039182169116146122d15760405162461bcd60e51b81526020600482015260096024820152682224a3232fa82922ab60b91b60448201526064016109ee565b6122f08a60005b6020020160208101906122eb9190615191565b61322b565b6122fb8a60016122d8565b61232261230b60208b018b6151d0565b8b60005b6020020160208101906107b89190615191565b6123635760405162461bcd60e51b815260206004820152601260248201527114d51052d1548c57d393d517d4d51052d15160721b60448201526064016109ee565b61237e61237660408b0160208c016151d0565b8b600161230f565b6123bf5760405162461bcd60e51b815260206004820152601260248201527114d51052d1548c97d393d517d4d51052d15160721b60448201526064016109ee565b6040805180820182526124409161243091908b90600290839083908082843760009201829052506040805180820190915292508c9150600290835b828210156124265761241760a083028501368190038101906156b5565b815260200190600101906123fa565b5050505089613f4a565b85358560005b6020020135613ff4565b82600101541461247f5760405162461bcd60e51b815260206004820152600a6024820152694348414c5f484153483160b01b60448201526064016109ee565b612490856020860135856001612436565b8160010154146124cf5760405162461bcd60e51b815260206004820152600a60248201526921a420a62fa420a9a41960b11b60448201526064016109ee565b60655460038301546000916001600160401b03600160401b918290048116926124fd92893592910416615528565b6003850154612514906001600160401b0316612be3565b600401546125329190600160401b90046001600160401b031661576a565b61253c919061576a565b905060208501358110156125775761256f61255a60208d018d615191565b61256a60408e0160208f01615191565b612a21565b5050506126d4565b60006125b78c8b8b8b89600c61258e8d358a615528565b612598919061577d565b600c6125a860208f01358b615528565b6125b2919061577d565b614032565b90506126396125c960208e018e615191565b8d60016020020160208101906125df9190615191565b6001600160a01b03918216600090815260796020526040808220600190810180546001600160401b038916600160801b02600160801b600160c01b0319918216811790925594909516835291200180549091169091179055565b6001600160401b0381167f6db7dc2f507647d135035469b27aa79cea90582779d084a7821d6cd092cbd87361267160208f018f615191565b8e60016020020160208101906126879190615191565b8e600060200201602081019061269d91906151d0565b604080516001600160a01b0394851681529390921660208401526001600160401b03169082015260600160405180910390a2505050505b5050505050505050565b3360009081526074602052604090205460ff16806126fe5750607e5460ff165b61271a5760405162461bcd60e51b81526004016109ee906154c7565b60335460ff161561273d5760405162461bcd60e51b81526004016109ee90615471565b6000612748607a5490565b9050600061275461150d565b6001600160401b03169050825b82811015610f35575b81612774826127ce565b6001600160401b031610156127ab5761278c81613de0565b8261279681615794565b9350508281106127a65750505050565b61276a565b600101612761565b6001600160a01b031660009081526079602052604090205490565b6000607a82815481106127e3576127e3615754565b600091825260209091200154600160a01b90046001600160401b031692915050565b3360009081526074602052604090205460ff16806128255750607e5460ff165b6128415760405162461bcd60e51b81526004016109ee906154c7565b60335460ff16156128645760405162461bcd60e51b81526004016109ee90615471565b61286e82826140e2565b61119981613bdf565b60007f0000000000000000000000000000000000000000000000000000000000000000156128d5576001600160401b0382166000908152607f602052604090205480611dd05760405162461bcd60e51b81526004016109ee906157ab565b60006128e083612be3565b6003810154909150600160401b90046001600160401b03166000036129175760405162461bcd60e51b81526004016109ee906157ab565b60040154600160c01b90046001600160401b031692915050565b919050565b61293f84613abd565b61294a838383610cd8565b610f3584613bdf565b6001600160a01b03828116600090815260796020526040808220928416825281206001830154919291600160801b90046001600160401b0316806129c35760405162461bcd60e51b81526020600482015260076024820152661393d7d0d2105360ca1b60448201526064016109ee565b60018201546001600160401b03828116600160801b9092041614612a185760405162461bcd60e51b815260206004820152600c60248201526b1112519197d25397d0d2105360a21b60448201526064016109ee565b95945050505050565b6000612a2c826127b3565b90506000612a39846127b3565b905080821115612a5a57612a4d838261329b565b612a579083615528565b91505b6000612a676002846157e2565b9050612a738582614150565b612a7d8184615528565b9250612ab0856001600160a01b031660009081526079602052604090206001018054600160801b600160c01b0319169055565b607154612ac6906001600160a01b0316846141b5565b612acf84614251565b5050505050565b600080612ae461226a611b13565b6040805161018081018252825481526001830154602082015260028301549181019190915260038201546001600160401b038082166060840152600160401b80830482166080850152600160801b808404831660a0860152600160c01b93849004831660c0860152600486015480841660e0870152918204831661010086015281048216610120850152919091041661014082018190526005909201546101608201529150600003612b9857600091505090565b606554610140820151439161b2fa91612bba916001600160401b0316906157f6565b6001600160401b0316612bcd919061576a565b1015612bdb57600191505090565b600091505090565b6001600160401b0316600090815260766020526040902090565b6001600160a01b0382166000908152607960205260409020612c1f82846142f7565b60010180546001600160401b03909216600160401b02600160401b600160801b031990921691909117905550565b6020810151600090815b602002015192915050565b60006001612c7861018087016101608801615560565b6003811115612c8957612c8961553b565b1480612cb757506002612ca461018087016101608801615560565b6003811115612cb557612cb561553b565b145b612cf65760405162461bcd60e51b815260206004820152601060248201526f4241445f41465445525f53544154555360801b60448201526064016109ee565b612cfe614f97565b612d0785611ce7565b6060820152606a54604080516221048360e21b815290516001600160a01b03909216916284120c916004808201926020929091908290030181865afa158015612d54573d6000803e3d6000fd5b505050506040513d601f19601f82011682018060405250810190612d789190615815565b8152606081015151612d8a87866144be565b14612dc95760405162461bcd60e51b815260206004820152600f60248201526e0a0a48aacbea6a882a88abe9082a69608b1b60448201526064016109ee565b6000612de0610e0f36899003890160c08a016156b5565b90506000612df6610e0f368a90038a018a6156b5565b9050806001600160401b0316826001600160401b03161015612e4c5760405162461bcd60e51b815260206004820152600f60248201526e494e424f585f4241434b574152445360881b60448201526064016109ee565b806001600160401b0316826001600160401b031603612eee57612e7c612e77368a90038a018a6156b5565b614518565b6001600160401b0316612e9a612e77368b90038b0160c08c016156b5565b6001600160401b03161015612eee5760405162461bcd60e51b815260206004820152601a602482015279494e424f585f504f535f494e5f4d53475f4241434b574152445360301b60448201526064016109ee565b6002612f026101808a016101608b01615560565b6003811115612f1357612f1361553b565b1480612f3c57506000612f31612e77368b90038b0160c08c016156b5565b6001600160401b0316115b15612f4f5781612f4b8161582e565b9250505b82516001600160401b0383161115612f9a5760405162461bcd60e51b815260206004820152600e60248201526d12539093d617d41054d517d1539160921b60448201526064016109ee565b6001600160401b0382161561303357606a546001600160a01b03166316bf5579612fc5600185615859565b6040516001600160e01b031960e084901b1681526001600160401b039091166004820152602401602060405180830381865afa158015613009573d6000803e3d6000fd5b505050506040513d601f19601f8201168201806040525081019061302d9190615815565b60e08401525b5061304d9050613048368890038801886158b7565b614527565b6040820152606554613068906001600160401b0316436157f6565b6001600160401b0390811660c0830152606082015161012001511615801560a08301526130af576130a181606001516101200151612be3565b6005015460808201526130bf565b6060810151610160015160808201525b6130de8160a00151826080015183604001518460e001516068546145c6565b9150828214806130ec575082155b61312f5760405162461bcd60e51b81526020600482015260146024820152730aa9c8ab0a08a86a88a88be9c9e888abe9082a6960631b60448201526064016109ee565b6131776131438760c00183600001516144be565b613154836040015143606854613ff4565b61316b613166368b90038b018b6158b7565b614633565b888560c001518761465d565b60208201526000613186611b13565b6131919060016157f6565b9050600061319e87612be3565b90506131aa81836146b1565b6131b78360200151614723565b505081816060015161016001516131cc611b13565b6001600160401b03167ffeec084feceb8522cbaa8647a86ea86caad33f43089346204541dbead500657884604001518a8660e00151606854886000015160405161321a9594939291906159b1565b60405180910390a450949350505050565b613234816114e5565b6132505760405162461bcd60e51b81526004016109ee906154ee565b600061325b8261159c565b6001600160401b0316146110e55760405162461bcd60e51b8152602060048201526007602482015266125397d0d2105360ca1b60448201526064016109ee565b6001600160a01b03821660009081526079602052604081208054808411156132f85760405162461bcd60e51b815260206004820152601060248201526f544f4f5f4c4954544c455f5354414b4560801b60448201526064016109ee565b60006133048583615528565b858455905061331386826141b5565b60408051838152602081018790526001600160a01b03881691600080516020615ce4833981519152910160405180910390a295945050505050565b61335661151c565b600061336061205e565b9050600061336d82612be3565b90508261341d576040805161018081018252825481526001830154602082015260028301549181019190915260038201546001600160401b038082166060840152600160401b80830482166080850152600160801b808404831660a0860152600160c01b93849004831660c0860152600486015480841660e08701529182048316610100860152810482166101208501529190910416610140820152600582015461016082015261341d90613901565b61342561150d565b60038201546001600160401b0390811691161461344457613444615a13565b600381015460009061345e906001600160401b0316612be3565b90508361350e576040805161018081018252825481526001830154602082015260028301549181019190915260038201546001600160401b038082166060840152600160401b80830482166080850152600160801b808404831660a0860152600160c01b93849004831660c0860152600486015480841660e08701529182048316610100860152810482166101208501529190910416610140820152600582015461016082015261350e90613950565b61351860006126de565b60006135238461128e565b60038401549091506000908290613542906001600160401b03166118f7565b61354c9190615528565b6003850154909150600160c01b90046001600160401b0316821061359f5760405162461bcd60e51b815260206004820152600a6024820152694e4f5f5354414b45525360b01b60448201526064016109ee565b60038401546135bf908290600160c01b90046001600160401b031661576a565b60048401546001600160401b03161461360b5760405162461bcd60e51b815260206004820152600e60248201526d1393d517d0531317d4d51052d15160921b60448201526064016109ee565b6126d4858989614902565b600081613624600185615859565b6001600160401b03160361363b5750606754611def565b600061364684612be3565b60030154600160401b90046001600160401b031690508085101561366e575050606754611def565b6000604051806101400160405280600162ffffff1681526020016201e05b62ffffff1681526020016201f7d162ffffff1681526020016201389162ffffff168152602001620329e162ffffff1681526020016201be4362ffffff1681526020016204cb8c62ffffff1681526020016201fbc462ffffff16815260200162036d3262ffffff1681526020016202797362ffffff1681525090506000604051806101400160405280600162ffffff1681526020016201c03062ffffff1681526020016201b69962ffffff16815260200161fde262ffffff168152602001620265c662ffffff16815260200162013b8e62ffffff168152602001620329e162ffffff1681526020016201389162ffffff1681526020016201f7d162ffffff1681526020016201537562ffffff168152509050600083886137ab9190615528565b6065549091506000906001600160401b03166137c883600a61577d565b6137d291906157e2565b905060006137e1600a836157e2565b6137ec906002615b10565b90506000856137fc600a85615b1c565b600a811061380c5761380c615754565b60200201516138209062ffffff168361577d565b9050600085613830600a86615b1c565b600a811061384057613840615754565b60200201516138549062ffffff16836157e2565b905080600003613862575060015b80606754613870919061577d565b9c9b505050505050505050505050565b6001600160a01b0381166000908152607b60205260408120805490829055607c805482919084906138b2908490615528565b909155505060408051828152600060208201526001600160a01b038516917fa740af14c56e4e04a617b1de1eb20de73270decbaaead14f142aabf3038e5ae2910160405180910390a292915050565b80608001516001600160401b03164310156110e55760405162461bcd60e51b815260206004820152600f60248201526e4245464f52455f444541444c494e4560881b60448201526064016109ee565b8060a001516001600160401b03164310156110e55760405162461bcd60e51b815260206004820152601060248201526f10d212531117d513d3d7d49150d1539560821b60448201526064016109ee565b60758054600160401b90046001600160401b03169060086139c08361582e565b91906101000a8154816001600160401b0302191690836001600160401b0316021790555050565b6000607a82815481106139fc576139fc615754565b906000526020600020019050919050565b6001600160a01b038116600090815260796020526040812090613a2e61150d565b9050613a3a8184611d9f565b15613a6f5760018201546001600160401b03828116600160401b9092041614613a6557613a65615a13565b613a6f8184613c96565b8154613a7b84826141b5565b613a8484614a45565b60408051828152600060208201526001600160a01b03861691600080516020615ce483398151915291015b60405180910390a250505050565b3360009081526074602052604090205460ff1680613add5750607e5460ff165b613af95760405162461bcd60e51b81526004016109ee906154c7565b60335460ff1615613b1c5760405162461bcd60e51b81526004016109ee90615471565b613b25336114e5565b15613b425760405162461bcd60e51b81526004016109ee90615b30565b613b4b33611c8d565b15613b8b5760405162461bcd60e51b815260206004820152601060248201526f5354414b45525f49535f5a4f4d42494560801b60448201526064016109ee565b613b9361119d565b811015613bd55760405162461bcd60e51b815260206004820152601060248201526f4e4f545f454e4f5547485f5354414b4560801b60448201526064016109ee565b6110e53382614bea565b6072546040516323b872dd60e01b8152336004820152306024820152604481018390526001600160a01b03909116906323b872dd906064016020604051808303816000875af1158015613c36573d6000803e3d6000fd5b505050506040513d601f19601f82011682018060405250810190613c5a9190615732565b6110e55760405162461bcd60e51b815260206004820152600d60248201526c1514905394d1915497d1905253609a1b60448201526064016109ee565b6001600160401b03821660009081526077602090815260408083206001600160a01b038516845290915290205460ff16613ce25760405162461bcd60e51b81526004016109ee906154ee565b6001600160401b03821660009081526077602090815260408083206001600160a01b03851684529091528120805460ff19169055613d1f83612be3565b600381018054919250600160c01b9091046001600160401b0316906018613d4583615b58565b91906101000a8154816001600160401b0302191690836001600160401b031602179055505060006001600160401b0316836001600160401b03161115610a99576003810154613d9c906001600160401b0316612be3565b60040180546001600160401b0316906000613db683615b58565b91906101000a8154816001600160401b0302191690836001600160401b0316021790555050505050565b607a8054613df090600190615528565b81548110613e0057613e00615754565b90600052602060002001607a8281548110613e1d57613e1d615754565b600091825260209091208254910180546001600160a01b039092166001600160a01b031983168117825592546001600160e01b0319909216909217600160a01b918290046001600160401b0316909102179055607a805480613e8157613e81615b7b565b600082815260209020810160001990810180546001600160e01b031916905501905550565b80607a8381548110613eba57613eba615754565b9060005260206000200160000160146101000a8154816001600160401b0302191690836001600160401b031602179055505050565b60007fb53127684a568b3173ae13b9f8a6016e243e63b6e8ee1178d6a717850b5d61035b546001600160a01b0316919050565b60007f2b1dbce74324248c222f0ec2d5ed7bd323cfc425b336f0253c5ccfda7265546d613f13565b60408051600280825260608201835260009283929190602083019080368337019050508551909150613f8c90613f878660005b6020020151614d43565b614dc8565b81600081518110613f9f57613f9f615754565b6020908102919091010152613fc08560016020020151613f87866001613f7d565b81600181518110613fd357613fd3615754565b602002602001018181525050612a186000846001600160401b031683614ee9565b6040805160208101859052908101839052606081018290526000906080015b6040516020818303038152906040528051906020012090509392505050565b606e546000906001600160a01b0316639f799f34853589898961405860208f018f615191565b8e600160200201602081019061406e9190615191565b8a8a6040518963ffffffff1660e01b8152600401614093989796959493929190615b91565b6020604051808303816000875af11580156140b2573d6000803e3d6000fd5b505050506040513d601f19601f820116820180604052508101906140d69190615c45565b98975050505050505050565b3360009081526074602052604090205460ff16806141025750607e5460ff165b61411e5760405162461bcd60e51b81526004016109ee906154c7565b60335460ff16156141415760405162461bcd60e51b81526004016109ee90615471565b61414a8261322b565b61119982825b6001600160a01b038216600090815260796020526040812080549091614176848361576a565b80845560408051848152602081018390529192506001600160a01b03871691600080516020615ce4833981519152910160405180910390a25050505050565b6001600160a01b0382166000908152607b6020526040812054906141d9838361576a565b6001600160a01b0385166000908152607b60205260408120829055607c8054929350859290919061420b90849061576a565b909155505060408051838152602081018390526001600160a01b038616917fa740af14c56e4e04a617b1de1eb20de73270decbaaead14f142aabf3038e5ae29101613aaf565b6001600160a01b03808216600081815260796020908152604080832081518083019092529381526001808501546001600160401b03600160401b9091048116938301938452607a8054928301815590945290517ff0440771a29e57e18c66727944770b82cc77924aef333c927ce6bdd2cdb3ae0390910180549251909316600160a01b026001600160e01b03199092169416939093179290921790915561119982614a45565b6001600160401b03821660009081526077602090815260408083206001600160a01b038516845290915290205460ff16156143445760405162461bcd60e51b81526004016109ee90615b30565b6001600160401b03821660009081526077602090815260408083206001600160a01b03851684529091528120805460ff1916600117905561438483612be3565b6003810154909150600160401b90046001600160401b03166000036143bb5760405162461bcd60e51b81526004016109ee906157ab565b6003810154600160c01b90046001600160401b03166143db8160016157f6565b6003830180546001600160c01b0316600160c01b6001600160401b0393841602179055841615610f3557600382015460009061441f906001600160401b0316612be3565b6004810180549192506001600160401b0390911690600061443f8361582e565b91906101000a8154816001600160401b0302191690836001600160401b0316021790555050816001600160401b0316600003612acf57606554612acf9061448f906001600160401b0316436157f6565b600383018054600160801b600160c01b031916600160801b6001600160401b0390931692909202919091179055565b60006144d76144d2368590038501856156b5565b614d43565b826144e860c0860160a08701615560565b6040516020016144fa93929190615c62565b60405160208183030381529060405280519060200120905092915050565b60208101516000906001612c57565b6000614531614fe8565b8251602001518190600381111561454a5761454a61553b565b9081600381111561455d5761455d61553b565b90525060208381015181015190820190600381111561457e5761457e61553b565b908160038111156145915761459161553b565b90525061459c615006565b8351518152602080850151519082015260408401516145be9083908390613f4a565b949350505050565b600080866145d55760006145d8565b60015b6040516001600160f81b031960f883901b1660208201526021810188905260418101879052606181018690526081810185905290915060a1016040516020818303038152906040528051906020012091505095945050505050565b6000611dd0614649836020015160000151614f00565b60208401515161465890614f0b565b614f17565b614665614f33565b61466d614f33565b96875250602086019490945260408501929092526001600160401b0390811660608501529081166080840181905260a0840152431661014083015261016082015290565b6004820154600160401b90046001600160401b03166000036146f457600482018054600160401b600160801b031916600160401b436001600160401b0316021790555b600490910180546001600160401b03909216600160801b02600160801b600160c01b0319909216919091179055565b60758054600160801b90046001600160401b03169060106147438361582e565b825461010092830a6001600160401b03818102199092169282160291909117909255607554600160801b908190048316600090815260766020908152604091829020875181559087015160018201559086015160028201556060860151600382018054608089015160a08a015160c08b01519489166001600160801b031993841617600160401b928a168302176001600160801b03908116918a1688026001600160c01b0390811692909217600160c01b968b1687021790945560e08b0151600487018054998d01516101208e01516101408f0151938d169b9096169a909a17998b16909302989098179093169188169095029091161793909416909302919091179055610160830151600590910155507f0000000000000000000000000000000000000000000000000000000000000000156110e55760646001600160a01b031663a3b1b31d6040518163ffffffff1660e01b8152600401602060405180830381865afa1580156148b9573d6000803e3d6000fd5b505050506040513d601f19601f820116820180604052508101906148dd9190615815565b607554600160801b90046001600160401b03166000908152607f602052604090205550565b600061490d84612be3565b90506149198383614f17565b81600201541461495a5760405162461bcd60e51b815260206004820152600c60248201526b434f4e4649524d5f4441544160a01b60448201526064016109ee565b606b54604051630502677360e51b815260048101849052602481018590526001600160a01b039091169063a04cee6090604401600060405180830381600087803b1580156149a757600080fd5b505af11580156149bb573d6000803e3d6000fd5b5050607580546001600160401b0319166001600160401b038816179055506149e690508460016157f6565b60758054600160401b600160801b031916600160401b6001600160401b03938416021790556040805185815260208101859052918616917f22ef0479a7ff660660d1c2fe35f1b632cf31675c2d9378db8cec95b00d8ffa3c9101613aaf565b6001600160a01b03811660009081526079602052604090206001810154600160c01b900460ff16614a885760405162461bcd60e51b81526004016109ee906154ee565b600180820154607880546001600160401b03909216929091614aaa9190615528565b81548110614aba57614aba615754565b600091825260209091200154607880546001600160a01b03909216916001600160401b038416908110614aef57614aef615754565b9060005260206000200160006101000a8154816001600160a01b0302191690836001600160a01b0316021790555080607960006078846001600160401b031681548110614b3e57614b3e615754565b6000918252602080832091909101546001600160a01b03168352820192909252604001902060010180546001600160401b0319166001600160401b03929092169190911790556078805480614b9557614b95615b7b565b60008281526020808220830160001990810180546001600160a01b03191690559092019092556001600160a01b03949094168152607990935250506040812090815560010180546001600160c81b0319169055565b6078805460018082019092557f8dc6fb69531d98d70dc0420e638d2dfd04e09e1ec783ede9aac77da9c5a0dac4810180546001600160a01b0319166001600160a01b0386169081179091556040805160a0810182528581526001600160401b038085166020808401918252607580548416858701908152600060608701818152608088018c81528a835260798652898320985189559551978c0180549351915196519888166001600160801b031990941693909317600160401b9188169190910217600160801b600160c81b031916600160801b9587169590950260ff60c01b191694909417600160c01b9615158702179055805484168352607782528583208784528252858320805460ff191690991790985587546001600160c01b031643909316909302919091179095558151948552840185905291929091600080516020615ce4833981519152910160405180910390a2505050565b805180516020918201519282015180518184015160409283015183516c23b637b130b61039ba30ba329d60991b81880152602d810195909552604d8501969096526001600160c01b031960c092831b8116606d86015290821b8116607585015294901b909316607d820152825180820360650181526085909101909252815191012090565b60006001836003811115614dde57614dde61553b565b03614e23576040516b213637b1b59039ba30ba329d60a11b6020820152602c8101839052604c015b604051602081830303815290604052805190602001209050611dd0565b6002836003811115614e3757614e3761553b565b03614e6c5760405174213637b1b59039ba30ba32961032b93937b932b21d60591b602082015260358101839052605501614e06565b6003836003811115614e8057614e8061553b565b03614eae5760405174213637b1b59039ba30ba3296103a37b7903330b91d60591b6020820152603501614e06565b60405162461bcd60e51b815260206004820152601060248201526f4241445f424c4f434b5f53544154555360801b60448201526064016109ee565b600083838360405160200161401393929190615ca0565b805160009081612c57565b80516000906001612c57565b60408051602081018490529081018290526000906060016144fa565b6040805161018081018252600080825260208201819052918101829052606081018290526080810182905260a0810182905260c0810182905260e0810182905261010081018290526101208101829052610140810182905261016081019190915290565b60405180610100016040528060008152602001614fb2614f33565b815260006020820152604001614fc6614f33565b8152600060208201819052604082018190526060820181905260809091015290565b60405180604001604052806002906020820280368337509192915050565b60405180604001604052806002905b61501d615033565b8152602001906001900390816150155790505090565b6040518060400160405280615046614fe8565b8152602001615053615058565b905290565b60405180606001604052806003906020820280368337509192915050565b6001600160a01b03169052565b6001600160a01b03811681146110e557600080fd5b6000806000606084860312156150ad57600080fd5b8335925060208401356150bf81615083565b915060408401356150cf81615083565b809150509250925092565b6001600160401b03811681146110e557600080fd5b6000806040838503121561510257600080fd5b823561510d816150da565b946020939093013593505050565b60006101a0828403121561512e57600080fd5b50919050565b60008060006101e0848603121561514a57600080fd5b615154858561511b565b956101a085013595506101c0909401359392505050565b60006020828403121561517d57600080fd5b5035919050565b6001600160401b03169052565b6000602082840312156151a357600080fd5b8135611def81615083565b600080604083850312156151c157600080fd5b50508035926020909101359150565b6000602082840312156151e257600080fd5b8135611def816150da565b60008060006060848603121561520257600080fd5b833592506020840135615214816150da565b929592945050506040919091013590565b60006101808201905082518252602083015160208301526040830151604083015260608301516152586060840182615184565b50608083015161526b6080840182615184565b5060a083015161527e60a0840182615184565b5060c083015161529160c0840182615184565b5060e08301516152a460e0840182615184565b506101008301516152b9610100840182615184565b506101208301516152ce610120840182615184565b506101408301516152e3610140840182615184565b5061016092830151919092015290565b6000806040838503121561530657600080fd5b8235615311816150da565b9150602083013561532181615083565b809150509250929050565b60008060006060848603121561534157600080fd5b833592506020840135615353816150da565b915060408401356150cf816150da565b8060408101831015611dd057600080fd5b6000806000806000806000806102c0898b03121561539157600080fd5b61539b8a8a615363565b97506153aa8a60408b01615363565b96506153b98a60808b01615363565b955061020089018a8111156153cd57600080fd5b60c08a019550356153dd816150da565b935061022089013592506153f58a6102408b01615363565b91506154058a6102808b01615363565b90509295985092959890939650565b6000806040838503121561542757600080fd5b823561510d81615083565b600080600080610200858703121561544957600080fd5b8435935061545a866020870161511b565b93969395505050506101c0820135916101e0013590565b60208082526010908201526f14185d5cd8589b194e881c185d5cd95960821b604082015260600190565b60208082526012908201527115d2125511531254d517d11254d05093115160721b604082015260600190565b6020808252600d908201526c2727aa2fab20a624a220aa27a960991b604082015260600190565b6020808252600a90820152691393d517d4d51052d15160b21b604082015260600190565b634e487b7160e01b600052601160045260246000fd5b81810381811115611dd057611dd0615512565b634e487b7160e01b600052602160045260246000fd5b80356004811061293157600080fd5b60006020828403121561557257600080fd5b611def82615551565b634e487b7160e01b600052604160045260246000fd5b604080519081016001600160401b03811182821017156155b3576155b361557b565b60405290565b604051601f8201601f191681016001600160401b03811182821017156155e1576155e161557b565b604052919050565b600060a082840312156155fb57600080fd5b615603615591565b905082601f83011261561457600080fd5b61561e60406155b9565b80604084018581111561563057600080fd5b845b8181101561564a578035845260209384019301615632565b508184526000925085601f820112615660578283fd5b6060915061566d826155b9565b9150816060820187811115615680578485fd5b808310156156a5578235615693816150da565b84526020938401939290920191615680565b5060208501525091949350505050565b600060a082840312156156c757600080fd5b611def83836155e9565b6000602082840312156156e357600080fd5b8151611def81615083565b6020808252601190820152705041555345445f414e445f41435449564560781b604082015260600190565b60006001820161572b5761572b615512565b5060010190565b60006020828403121561574457600080fd5b81518015158114611def57600080fd5b634e487b7160e01b600052603260045260246000fd5b80820180821115611dd057611dd0615512565b8082028115828204841417611dd057611dd0615512565b6000816157a3576157a3615512565b506000190190565b6020808252600790820152664e4f5f4e4f444560c81b604082015260600190565b634e487b7160e01b600052601260045260246000fd5b6000826157f1576157f16157cc565b500490565b6001600160401b038181168382160190811115611dd057611dd0615512565b60006020828403121561582757600080fd5b5051919050565b60006001600160401b0382166001600160401b03810361585057615850615512565b60010192915050565b6001600160401b038281168282160390811115611dd057611dd0615512565b600060c0828403121561588a57600080fd5b615892615591565b905061589e83836155e9565b81526158ac60a08301615551565b602082015292915050565b60006101a08284031280156158cb57600080fd5b50604051606081016001600160401b03811182821017156158ee576158ee61557b565b6040526158fb8484615878565b815261590a8460c08501615878565b602082015261018083013561591e816150da565b60408201529392505050565b6040818337604082016040820160005b6003811015612acf57813561594e816150da565b6001600160401b03168352602092830192919091019060010161593a565b6004811061598a57634e487b7160e01b600052602160045260246000fd5b9052565b615998828261592a565b6159a460a08201615551565b610a9960a084018261596c565b85815261022081016159c6602083018761598e565b6159d660e0830160c0880161598e565b6101808601356159e5816150da565b6001600160401b03166101a08301526101c08201949094526101e08101929092526102009091015292915050565b634e487b7160e01b600052600160045260246000fd5b6001815b6001841115615a6457808504811115615a4857615a48615512565b6001841615615a5657908102905b60019390931c928002615a2d565b935093915050565b600082615a7b57506001611dd0565b81615a8857506000611dd0565b8160018114615a9e5760028114615aa857615ac4565b6001915050611dd0565b60ff841115615ab957615ab9615512565b50506001821b611dd0565b5060208310610133831016604e8410600b8410161715615ae7575081810a611dd0565b615af46000198484615a29565b8060001904821115615b0857615b08615512565b029392505050565b6000611def8383615a6c565b600082615b2b57615b2b6157cc565b500690565b6020808252600e908201526d1053149150511657d4d51052d15160921b604082015260600190565b60006001600160401b03821680615b7157615b71615512565b6000190192915050565b634e487b7160e01b600052603160045260246000fd5b8881526102408101602082018960005b6002811015615bcf57615bbc83615bb784615551565b61596c565b6020928301929190910190600101615ba1565b505050606082018860005b6002811015615c0057615bed838361592a565b60a0928301929190910190600101615bda565b505050615c116101a0830188615184565b615c1f6101c0830187615076565b615c2d6101e0830186615076565b61020082019390935261022001529695505050505050565b600060208284031215615c5757600080fd5b8151611def816150da565b838152826020820152600060048310615c8b57634e487b7160e01b600052602160045260246000fd5b5060f89190911b604082015260410192915050565b83815282602082015260006040820183516020850160005b82811015615cd6578151845260209384019390910190600101615cb8565b509197965050505050505056feebd093d389ab57f3566918d2c379a2b4d9539e8eb95efad9d5e465457833fde6a2646970667358221220f515fb6a40bff1c6665e806e3bcb7b515c92b031ada9541b591ce28aa914ce5c64736f6c634300081a0033",
  "linkReferences": {},
  "deployedLinkReferences": {}
}