{
  "_format": "hh-sol-artifact-1",
  "contractName": "RollupUserLogic",
  "sourceName": "src/rollup/RollupUserLogic.sol",
  "abi": [
    {
      "anonymous": false,
      "inputs": [
        {
          "indexed": false,
          "internalType": "address",
          "name": "previousAdmin",
          "type": "address"
        },
        {
          "indexed": false,
          "internalType": "address",
          "name": "newAdmin",
          "type": "address"
        }
      ],
      "name": "AdminChanged",
      "type": "event"
    },
    {
      "anonymous": false,
      "inputs": [
        {
          "indexed": true,
          "internalType": "address",
          "name": "beacon",
          "type": "address"
        }
      ],
      "name": "BeaconUpgraded",
      "type": "event"
    },
    {
      "anonymous": false,
      "inputs": [
        {
          "indexed": true,
          "internalType": "uint64",
          "name": "nodeNum",
          "type": "uint64"
        },
        {
          "indexed": false,
          "internalType": "bytes32",
          "name": "blockHash",
          "type": "bytes32"
        },
        {
          "indexed": false,
          "internalType": "bytes32",
          "name": "sendRoot",
          "type": "bytes32"
        }
      ],
      "name": "NodeConfirmed",
      "type": "event"
    },
    {
      "anonymous": false,
      "inputs": [
        {
          "indexed": true,
          "internalType": "uint64",
          "name": "nodeNum",
          "type": "uint64"
        },
        {
          "indexed": true,
          "internalType": "bytes32",
          "name": "parentNodeHash",
          "type": "bytes32"
        },
        {
          "indexed": true,
          "internalType": "bytes32",
          "name": "nodeHash",
          "type": "bytes32"
        },
        {
          "indexed": false,
          "internalType": "bytes32",
          "name": "executionHash",
          "type": "bytes32"
        },
        {
          "components": [
            {
              "components": [
                {
                  "components": [
                    {
                      "internalType": "bytes32[2]",
                      "name": "bytes32Vals",
                      "type": "bytes32[2]"
                    },
                    {
                      "internalType": "uint64[3]",
                      "name": "u64Vals",
                      "type": "uint64[3]"
                    }
                  ],
                  "internalType": "struct GlobalState",
                  "name": "globalState",
                  "type": "tuple"
                },
                {
                  "internalType": "enum MachineStatus",
                  "name": "machineStatus",
                  "type": "uint8"
                }
              ],
              "internalType": "struct ExecutionState",
              "name": "beforeState",
              "type": "tuple"
            },
            {
              "components": [
                {
                  "components": [
                    {
                      "internalType": "bytes32[2]",
                      "name": "bytes32Vals",
                      "type": "bytes32[2]"
                    },
                    {
                      "internalType": "uint64[3]",
                      "name": "u64Vals",
                      "type": "uint64[3]"
                    }
                  ],
                  "internalType": "struct GlobalState",
                  "name": "globalState",
                  "type": "tuple"
                },
                {
                  "internalType": "enum MachineStatus",
                  "name": "machineStatus",
                  "type": "uint8"
                }
              ],
              "internalType": "struct ExecutionState",
              "name": "afterState",
              "type": "tuple"
            },
            {
              "internalType": "uint64",
              "name": "numBlocks",
              "type": "uint64"
            }
          ],
          "indexed": false,
          "internalType": "struct Assertion",
          "name": "assertion",
          "type": "tuple"
        },
        {
          "indexed": false,
          "internalType": "bytes32",
          "name": "afterInboxBatchAcc",
          "type": "bytes32"
        },
        {
          "indexed": false,
          "internalType": "bytes32",
          "name": "wasmModuleRoot",
          "type": "bytes32"
        },
        {
          "indexed": false,
          "internalType": "uint256",
          "name": "inboxMaxCount",
          "type": "uint256"
        }
      ],
      "name": "NodeCreated",
      "type": "event"
    },
    {
      "anonymous": false,
      "inputs": [
        {
          "indexed": true,
          "internalType": "uint64",
          "name": "nodeNum",
          "type": "uint64"
        }
      ],
      "name": "NodeRejected",
      "type": "event"
    },
    {
      "anonymous": false,
      "inputs": [
        {
          "indexed": false,
          "internalType": "address",
          "name": "account",
          "type": "address"
        }
      ],
      "name": "Paused",
      "type": "event"
    },
    {
      "anonymous": false,
      "inputs": [
        {
          "indexed": true,
          "internalType": "uint64",
          "name": "challengeIndex",
          "type": "uint64"
        },
        {
          "indexed": false,
          "internalType": "address",
          "name": "asserter",
          "type": "address"
        },
        {
          "indexed": false,
          "internalType": "address",
          "name": "challenger",
          "type": "address"
        },
        {
          "indexed": false,
          "internalType": "uint64",
          "name": "challengedNode",
          "type": "uint64"
        }
      ],
      "name": "RollupChallengeStarted",
      "type": "event"
    },
    {
      "anonymous": false,
      "inputs": [
        {
          "indexed": false,
          "internalType": "bytes32",
          "name": "machineHash",
          "type": "bytes32"
        },
        {
          "indexed": false,
          "internalType": "uint256",
          "name": "chainId",
          "type": "uint256"
        }
      ],
      "name": "RollupInitialized",
      "type": "event"
    },
    {
      "anonymous": false,
      "inputs": [
        {
          "indexed": false,
          "internalType": "address",
          "name": "account",
          "type": "address"
        }
      ],
      "name": "Unpaused",
      "type": "event"
    },
    {
      "anonymous": false,
      "inputs": [
        {
          "indexed": true,
          "internalType": "address",
          "name": "implementation",
          "type": "address"
        }
      ],
      "name": "Upgraded",
      "type": "event"
    },
    {
      "anonymous": false,
      "inputs": [
        {
          "indexed": true,
          "internalType": "address",
          "name": "implementation",
          "type": "address"
        }
      ],
      "name": "UpgradedSecondary",
      "type": "event"
    },
    {
      "anonymous": false,
      "inputs": [
        {
          "indexed": true,
          "internalType": "address",
          "name": "user",
          "type": "address"
        },
        {
          "indexed": false,
          "internalType": "uint256",
          "name": "initialBalance",
          "type": "uint256"
        },
        {
          "indexed": false,
          "internalType": "uint256",
          "name": "finalBalance",
          "type": "uint256"
        }
      ],
      "name": "UserStakeUpdated",
      "type": "event"
    },
    {
      "anonymous": false,
      "inputs": [
        {
          "indexed": true,
          "internalType": "address",
          "name": "user",
          "type": "address"
        },
        {
          "indexed": false,
          "internalType": "uint256",
          "name": "initialBalance",
          "type": "uint256"
        },
        {
          "indexed": false,
          "internalType": "uint256",
          "name": "finalBalance",
          "type": "uint256"
        }
      ],
      "name": "UserWithdrawableFundsUpdated",
      "type": "event"
    },
    {
      "inputs": [],
      "name": "VALIDATOR_AFK_BLOCKS",
      "outputs": [
        {
          "internalType": "uint256",
          "name": "",
          "type": "uint256"
        }
      ],
      "stateMutability": "view",
      "type": "function"
    },
    {
      "inputs": [
        {
          "internalType": "address",
          "name": "",
          "type": "address"
        }
      ],
      "name": "_stakerMap",
      "outputs": [
        {
          "internalType": "uint256",
          "name": "amountStaked",
          "type": "uint256"
        },
        {
          "internalType": "uint64",
          "name": "index",
          "type": "uint64"
        },
        {
          "internalType": "uint64",
          "name": "latestStakedNode",
          "type": "uint64"
        },
        {
          "internalType": "uint64",
          "name": "currentChallenge",
          "type": "uint64"
        },
        {
          "internalType": "bool",
          "name": "isStaked",
          "type": "bool"
        }
      ],
      "stateMutability": "view",
      "type": "function"
    },
    {
      "inputs": [
        {
          "internalType": "address",
          "name": "stakerAddress",
          "type": "address"
        }
      ],
      "name": "addToDeposit",
      "outputs": [],
      "stateMutability": "payable",
      "type": "function"
    },
    {
      "inputs": [
        {
          "internalType": "address",
          "name": "staker",
          "type": "address"
        }
      ],
      "name": "amountStaked",
      "outputs": [
        {
          "internalType": "uint256",
          "name": "",
          "type": "uint256"
        }
      ],
      "stateMutability": "view",
      "type": "function"
    },
    {
      "inputs": [],
      "name": "anyTrustFastConfirmer",
      "outputs": [
        {
          "internalType": "address",
          "name": "",
          "type": "address"
        }
      ],
      "stateMutability": "view",
      "type": "function"
    },
    {
      "inputs": [],
      "name": "baseStake",
      "outputs": [
        {
          "internalType": "uint256",
          "name": "",
          "type": "uint256"
        }
      ],
      "stateMutability": "view",
      "type": "function"
    },
    {
      "inputs": [],
      "name": "bridge",
      "outputs": [
        {
          "internalType": "contract IBridge",
          "name": "",
          "type": "address"
        }
      ],
      "stateMutability": "view",
      "type": "function"
    },
    {
      "inputs": [],
      "name": "chainId",
      "outputs": [
        {
          "internalType": "uint256",
          "name": "",
          "type": "uint256"
        }
      ],
      "stateMutability": "view",
      "type": "function"
    },
    {
      "inputs": [],
      "name": "challengeManager",
      "outputs": [
        {
          "internalType": "contract IChallengeManager",
          "name": "",
          "type": "address"
        }
      ],
      "stateMutability": "view",
      "type": "function"
    },
    {
      "inputs": [
        {
          "internalType": "uint256",
          "name": "challengeIndex",
          "type": "uint256"
        },
        {
          "internalType": "address",
          "name": "winningStaker",
          "type": "address"
        },
        {
          "internalType": "address",
          "name": "losingStaker",
          "type": "address"
        }
      ],
      "name": "completeChallenge",
      "outputs": [],
      "stateMutability": "nonpayable",
      "type": "function"
    },
    {
      "inputs": [
        {
          "internalType": "bytes32",
          "name": "blockHash",
          "type": "bytes32"
        },
        {
          "internalType": "bytes32",
          "name": "sendRoot",
          "type": "bytes32"
        }
      ],
      "name": "confirmNextNode",
      "outputs": [],
      "stateMutability": "nonpayable",
      "type": "function"
    },
    {
      "inputs": [],
      "name": "confirmPeriodBlocks",
      "outputs": [
        {
          "internalType": "uint64",
          "name": "",
          "type": "uint64"
        }
      ],
      "stateMutability": "view",
      "type": "function"
    },
    {
      "inputs": [
        {
          "internalType": "uint64",
          "name": "nodeNum",
          "type": "uint64"
        }
      ],
      "name": "countStakedZombies",
      "outputs": [
        {
          "internalType": "uint256",
          "name": "",
          "type": "uint256"
        }
      ],
      "stateMutability": "view",
      "type": "function"
    },
    {
      "inputs": [
        {
          "internalType": "uint64",
          "name": "nodeNum",
          "type": "uint64"
        }
      ],
      "name": "countZombiesStakedOnChildren",
      "outputs": [
        {
          "internalType": "uint256",
          "name": "",
          "type": "uint256"
        }
      ],
      "stateMutability": "view",
      "type": "function"
    },
    {
      "inputs": [
        {
          "internalType": "address[2]",
          "name": "stakers",
          "type": "address[2]"
        },
        {
          "internalType": "uint64[2]",
          "name": "nodeNums",
          "type": "uint64[2]"
        },
        {
          "internalType": "enum MachineStatus[2]",
          "name": "machineStatuses",
          "type": "uint8[2]"
        },
        {
          "components": [
            {
              "internalType": "bytes32[2]",
              "name": "bytes32Vals",
              "type": "bytes32[2]"
            },
            {
              "internalType": "uint64[3]",
              "name": "u64Vals",
              "type": "uint64[3]"
            }
          ],
          "internalType": "struct GlobalState[2]",
          "name": "globalStates",
          "type": "tuple[2]"
        },
        {
          "internalType": "uint64",
          "name": "numBlocks",
          "type": "uint64"
        },
        {
          "internalType": "bytes32",
          "name": "secondExecutionHash",
          "type": "bytes32"
        },
        {
          "internalType": "uint256[2]",
          "name": "proposedBlocks",
          "type": "uint256[2]"
        },
        {
          "internalType": "bytes32[2]",
          "name": "wasmModuleRoots",
          "type": "bytes32[2]"
        }
      ],
      "name": "createChallenge",
      "outputs": [],
      "stateMutability": "nonpayable",
      "type": "function"
    },
    {
      "inputs": [
        {
          "internalType": "address",
          "name": "staker",
          "type": "address"
        }
      ],
      "name": "currentChallenge",
      "outputs": [
        {
          "internalType": "uint64",
          "name": "",
          "type": "uint64"
        }
      ],
      "stateMutability": "view",
      "type": "function"
    },
    {
      "inputs": [],
      "name": "currentRequiredStake",
      "outputs": [
        {
          "internalType": "uint256",
          "name": "",
          "type": "uint256"
        }
      ],
      "stateMutability": "view",
      "type": "function"
    },
    {
      "inputs": [],
      "name": "extraChallengeTimeBlocks",
      "outputs": [
        {
          "internalType": "uint64",
          "name": "",
          "type": "uint64"
        }
      ],
      "stateMutability": "view",
      "type": "function"
    },
    {
      "inputs": [
        {
          "internalType": "bytes32",
          "name": "blockHash",
          "type": "bytes32"
        },
        {
          "internalType": "bytes32",
          "name": "sendRoot",
          "type": "bytes32"
        }
      ],
      "name": "fastConfirmNextNode",
      "outputs": [],
      "stateMutability": "nonpayable",
      "type": "function"
    },
    {
      "inputs": [],
      "name": "firstUnresolvedNode",
      "outputs": [
        {
          "internalType": "uint64",
          "name": "",
          "type": "uint64"
        }
      ],
      "stateMutability": "view",
      "type": "function"
    },
    {
      "inputs": [
        {
          "internalType": "uint64",
          "name": "nodeNum",
          "type": "uint64"
        }
      ],
      "name": "getNode",
      "outputs": [
        {
          "components": [
            {
              "internalType": "bytes32",
              "name": "stateHash",
              "type": "bytes32"
            },
            {
              "internalType": "bytes32",
              "name": "challengeHash",
              "type": "bytes32"
            },
            {
              "internalType": "bytes32",
              "name": "confirmData",
              "type": "bytes32"
            },
            {
              "internalType": "uint64",
              "name": "prevNum",
              "type": "uint64"
            },
            {
              "internalType": "uint64",
              "name": "deadlineBlock",
              "type": "uint64"
            },
            {
              "internalType": "uint64",
              "name": "noChildConfirmedBeforeBlock",
              "type": "uint64"
            },
            {
              "internalType": "uint64",
              "name": "stakerCount",
              "type": "uint64"
            },
            {
              "internalType": "uint64",
              "name": "childStakerCount",
              "type": "uint64"
            },
            {
              "internalType": "uint64",
              "name": "firstChildBlock",
              "type": "uint64"
            },
            {
              "internalType": "uint64",
              "name": "latestChildNumber",
              "type": "uint64"
            },
            {
              "internalType": "uint64",
              "name": "createdAtBlock",
              "type": "uint64"
            },
            {
              "internalType": "bytes32",
              "name": "nodeHash",
              "type": "bytes32"
            }
          ],
          "internalType": "struct Node",
          "name": "",
          "type": "tuple"
        }
      ],
      "stateMutability": "view",
      "type": "function"
    },
    {
      "inputs": [
        {
          "internalType": "uint64",
          "name": "nodeNum",
          "type": "uint64"
        }
      ],
      "name": "getNodeCreationBlockForLogLookup",
      "outputs": [
        {
          "internalType": "uint256",
          "name": "",
          "type": "uint256"
        }
      ],
      "stateMutability": "view",
      "type": "function"
    },
    {
      "inputs": [
        {
          "internalType": "address",
          "name": "staker",
          "type": "address"
        }
      ],
      "name": "getStaker",
      "outputs": [
        {
          "components": [
            {
              "internalType": "uint256",
              "name": "amountStaked",
              "type": "uint256"
            },
            {
              "internalType": "uint64",
              "name": "index",
              "type": "uint64"
            },
            {
              "internalType": "uint64",
              "name": "latestStakedNode",
              "type": "uint64"
            },
            {
              "internalType": "uint64",
              "name": "currentChallenge",
              "type": "uint64"
            },
            {
              "internalType": "bool",
              "name": "isStaked",
              "type": "bool"
            }
          ],
          "internalType": "struct IRollupCore.Staker",
          "name": "",
          "type": "tuple"
        }
      ],
      "stateMutability": "view",
      "type": "function"
    },
    {
      "inputs": [
        {
          "internalType": "uint64",
          "name": "stakerNum",
          "type": "uint64"
        }
      ],
      "name": "getStakerAddress",
      "outputs": [
        {
          "internalType": "address",
          "name": "",
          "type": "address"
        }
      ],
      "stateMutability": "view",
      "type": "function"
    },
    {
      "inputs": [],
      "name": "inbox",
      "outputs": [
        {
          "internalType": "contract IInboxBase",
          "name": "",
          "type": "address"
        }
      ],
      "stateMutability": "view",
      "type": "function"
    },
    {
      "inputs": [
        {
          "internalType": "address",
          "name": "_stakeToken",
          "type": "address"
        }
      ],
      "name": "initialize",
      "outputs": [],
      "stateMutability": "view",
      "type": "function"
    },
    {
      "inputs": [],
      "name": "isERC20Enabled",
      "outputs": [
        {
          "internalType": "bool",
          "name": "",
          "type": "bool"
        }
      ],
      "stateMutability": "view",
      "type": "function"
    },
    {
      "inputs": [
        {
          "internalType": "address",
          "name": "staker",
          "type": "address"
        }
      ],
      "name": "isStaked",
      "outputs": [
        {
          "internalType": "bool",
          "name": "",
          "type": "bool"
        }
      ],
      "stateMutability": "view",
      "type": "function"
    },
    {
      "inputs": [
        {
          "internalType": "address",
          "name": "staker",
          "type": "address"
        }
      ],
      "name": "isStakedOnLatestConfirmed",
      "outputs": [
        {
          "internalType": "bool",
          "name": "",
          "type": "bool"
        }
      ],
      "stateMutability": "view",
      "type": "function"
    },
    {
      "inputs": [
        {
          "internalType": "address",
          "name": "",
          "type": "address"
        }
      ],
      "name": "isValidator",
      "outputs": [
        {
          "internalType": "bool",
          "name": "",
          "type": "bool"
        }
      ],
      "stateMutability": "view",
      "type": "function"
    },
    {
      "inputs": [
        {
          "internalType": "address",
          "name": "staker",
          "type": "address"
        }
      ],
      "name": "isZombie",
      "outputs": [
        {
          "internalType": "bool",
          "name": "",
          "type": "bool"
        }
      ],
      "stateMutability": "view",
      "type": "function"
    },
    {
      "inputs": [],
      "name": "lastStakeBlock",
      "outputs": [
        {
          "internalType": "uint64",
          "name": "",
          "type": "uint64"
        }
      ],
      "stateMutability": "view",
      "type": "function"
    },
    {
      "inputs": [],
      "name": "latestConfirmed",
      "outputs": [
        {
          "internalType": "uint64",
          "name": "",
          "type": "uint64"
        }
      ],
      "stateMutability": "view",
      "type": "function"
    },
    {
      "inputs": [],
      "name": "latestNodeCreated",
      "outputs": [
        {
          "internalType": "uint64",
          "name": "",
          "type": "uint64"
        }
      ],
      "stateMutability": "view",
      "type": "function"
    },
    {
      "inputs": [
        {
          "internalType": "address",
          "name": "staker",
          "type": "address"
        }
      ],
      "name": "latestStakedNode",
      "outputs": [
        {
          "internalType": "uint64",
          "name": "",
          "type": "uint64"
        }
      ],
      "stateMutability": "view",
      "type": "function"
    },
    {
      "inputs": [],
      "name": "loserStakeEscrow",
      "outputs": [
        {
          "internalType": "address",
          "name": "",
          "type": "address"
        }
      ],
      "stateMutability": "view",
      "type": "function"
    },
    {
      "inputs": [],
      "name": "minimumAssertionPeriod",
      "outputs": [
        {
          "internalType": "uint256",
          "name": "",
          "type": "uint256"
        }
      ],
      "stateMutability": "view",
      "type": "function"
    },
    {
      "inputs": [
        {
          "internalType": "uint64",
          "name": "nodeNum",
          "type": "uint64"
        },
        {
          "internalType": "bytes32",
          "name": "nodeHash",
          "type": "bytes32"
        }
      ],
      "name": "newStakeOnExistingNode",
      "outputs": [],
      "stateMutability": "payable",
      "type": "function"
    },
    {
      "inputs": [
        {
          "components": [
            {
              "components": [
                {
                  "components": [
                    {
                      "internalType": "bytes32[2]",
                      "name": "bytes32Vals",
                      "type": "bytes32[2]"
                    },
                    {
                      "internalType": "uint64[3]",
                      "name": "u64Vals",
                      "type": "uint64[3]"
                    }
                  ],
                  "internalType": "struct GlobalState",
                  "name": "globalState",
                  "type": "tuple"
                },
                {
                  "internalType": "enum MachineStatus",
                  "name": "machineStatus",
                  "type": "uint8"
                }
              ],
              "internalType": "struct ExecutionState",
              "name": "beforeState",
              "type": "tuple"
            },
            {
              "components": [
                {
                  "components": [
                    {
                      "internalType": "bytes32[2]",
                      "name": "bytes32Vals",
                      "type": "bytes32[2]"
                    },
                    {
                      "internalType": "uint64[3]",
                      "name": "u64Vals",
                      "type": "uint64[3]"
                    }
                  ],
                  "internalType": "struct GlobalState",
                  "name": "globalState",
                  "type": "tuple"
                },
                {
                  "internalType": "enum MachineStatus",
                  "name": "machineStatus",
                  "type": "uint8"
                }
              ],
              "internalType": "struct ExecutionState",
              "name": "afterState",
              "type": "tuple"
            },
            {
              "internalType": "uint64",
              "name": "numBlocks",
              "type": "uint64"
            }
          ],
          "internalType": "struct Assertion",
          "name": "assertion",
          "type": "tuple"
        },
        {
          "internalType": "bytes32",
          "name": "expectedNodeHash",
          "type": "bytes32"
        },
        {
          "internalType": "uint256",
          "name": "prevNodeInboxMaxCount",
          "type": "uint256"
        }
      ],
      "name": "newStakeOnNewNode",
      "outputs": [],
      "stateMutability": "payable",
      "type": "function"
    },
    {
      "inputs": [
        {
          "internalType": "uint64",
          "name": "nodeNum",
          "type": "uint64"
        },
        {
          "internalType": "address",
          "name": "staker",
          "type": "address"
        }
      ],
      "name": "nodeHasStaker",
      "outputs": [
        {
          "internalType": "bool",
          "name": "",
          "type": "bool"
        }
      ],
      "stateMutability": "view",
      "type": "function"
    },
    {
      "inputs": [],
      "name": "outbox",
      "outputs": [
        {
          "internalType": "contract IOutbox",
          "name": "",
          "type": "address"
        }
      ],
      "stateMutability": "view",
      "type": "function"
    },
    {
      "inputs": [],
      "name": "owner",
      "outputs": [
        {
          "internalType": "address",
          "name": "",
          "type": "address"
        }
      ],
      "stateMutability": "view",
      "type": "function"
    },
    {
      "inputs": [],
      "name": "paused",
      "outputs": [
        {
          "internalType": "bool",
          "name": "",
          "type": "bool"
        }
      ],
      "stateMutability": "view",
      "type": "function"
    },
    {
      "inputs": [],
      "name": "proxiableUUID",
      "outputs": [
        {
          "internalType": "bytes32",
          "name": "",
          "type": "bytes32"
        }
      ],
      "stateMutability": "view",
      "type": "function"
    },
    {
      "inputs": [
        {
          "internalType": "uint256",
          "name": "target",
          "type": "uint256"
        }
      ],
      "name": "reduceDeposit",
      "outputs": [],
      "stateMutability": "nonpayable",
      "type": "function"
    },
    {
      "inputs": [
        {
          "internalType": "address",
          "name": "stakerAddress",
          "type": "address"
        }
      ],
      "name": "rejectNextNode",
      "outputs": [],
      "stateMutability": "nonpayable",
      "type": "function"
    },
    {
      "inputs": [
        {
          "internalType": "uint256",
          "name": "startIndex",
          "type": "uint256"
        }
      ],
      "name": "removeOldZombies",
      "outputs": [],
      "stateMutability": "nonpayable",
      "type": "function"
    },
    {
      "inputs": [],
      "name": "removeWhitelistAfterFork",
      "outputs": [],
      "stateMutability": "nonpayable",
      "type": "function"
    },
    {
      "inputs": [],
      "name": "removeWhitelistAfterValidatorAfk",
      "outputs": [],
      "stateMutability": "nonpayable",
      "type": "function"
    },
    {
      "inputs": [
        {
          "internalType": "uint256",
          "name": "zombieNum",
          "type": "uint256"
        },
        {
          "internalType": "uint256",
          "name": "maxNodes",
          "type": "uint256"
        }
      ],
      "name": "removeZombie",
      "outputs": [],
      "stateMutability": "nonpayable",
      "type": "function"
    },
    {
      "inputs": [
        {
          "internalType": "uint256",
          "name": "nodeNum",
          "type": "uint256"
        }
      ],
      "name": "requireUnresolved",
      "outputs": [],
      "stateMutability": "view",
      "type": "function"
    },
    {
      "inputs": [],
      "name": "requireUnresolvedExists",
      "outputs": [],
      "stateMutability": "view",
      "type": "function"
    },
    {
      "inputs": [
        {
          "internalType": "uint256",
          "name": "blockNumber",
          "type": "uint256"
        },
        {
          "internalType": "uint64",
          "name": "firstUnresolvedNodeNum",
          "type": "uint64"
        },
        {
          "internalType": "uint64",
          "name": "latestCreatedNode",
          "type": "uint64"
        }
      ],
      "name": "requiredStake",
      "outputs": [
        {
          "internalType": "uint256",
          "name": "",
          "type": "uint256"
        }
      ],
      "stateMutability": "view",
      "type": "function"
    },
    {
      "inputs": [
        {
          "internalType": "address",
          "name": "stakerAddress",
          "type": "address"
        }
      ],
      "name": "returnOldDeposit",
      "outputs": [],
      "stateMutability": "nonpayable",
      "type": "function"
    },
    {
      "inputs": [],
      "name": "rollupDeploymentBlock",
      "outputs": [
        {
          "internalType": "uint256",
          "name": "",
          "type": "uint256"
        }
      ],
      "stateMutability": "view",
      "type": "function"
    },
    {
      "inputs": [],
      "name": "rollupEventInbox",
      "outputs": [
        {
          "internalType": "contract IRollupEventInbox",
          "name": "",
          "type": "address"
        }
      ],
      "stateMutability": "view",
      "type": "function"
    },
    {
      "inputs": [],
      "name": "sequencerInbox",
      "outputs": [
        {
          "internalType": "contract ISequencerInbox",
          "name": "",
          "type": "address"
        }
      ],
      "stateMutability": "view",
      "type": "function"
    },
    {
      "inputs": [
        {
          "internalType": "uint64",
          "name": "nodeNum",
          "type": "uint64"
        },
        {
          "internalType": "bytes32",
          "name": "nodeHash",
          "type": "bytes32"
        }
      ],
      "name": "stakeOnExistingNode",
      "outputs": [],
      "stateMutability": "nonpayable",
      "type": "function"
    },
    {
      "inputs": [
        {
          "components": [
            {
              "components": [
                {
                  "components": [
                    {
                      "internalType": "bytes32[2]",
                      "name": "bytes32Vals",
                      "type": "bytes32[2]"
                    },
                    {
                      "internalType": "uint64[3]",
                      "name": "u64Vals",
                      "type": "uint64[3]"
                    }
                  ],
                  "internalType": "struct GlobalState",
                  "name": "globalState",
                  "type": "tuple"
                },
                {
                  "internalType": "enum MachineStatus",
                  "name": "machineStatus",
                  "type": "uint8"
                }
              ],
              "internalType": "struct ExecutionState",
              "name": "beforeState",
              "type": "tuple"
            },
            {
              "components": [
                {
                  "components": [
                    {
                      "internalType": "bytes32[2]",
                      "name": "bytes32Vals",
                      "type": "bytes32[2]"
                    },
                    {
                      "internalType": "uint64[3]",
                      "name": "u64Vals",
                      "type": "uint64[3]"
                    }
                  ],
                  "internalType": "struct GlobalState",
                  "name": "globalState",
                  "type": "tuple"
                },
                {
                  "internalType": "enum MachineStatus",
                  "name": "machineStatus",
                  "type": "uint8"
                }
              ],
              "internalType": "struct ExecutionState",
              "name": "afterState",
              "type": "tuple"
            },
            {
              "internalType": "uint64",
              "name": "numBlocks",
              "type": "uint64"
            }
          ],
          "internalType": "struct Assertion",
          "name": "assertion",
          "type": "tuple"
        },
        {
          "internalType": "bytes32",
          "name": "expectedNodeHash",
          "type": "bytes32"
        },
        {
          "internalType": "uint256",
          "name": "prevNodeInboxMaxCount",
          "type": "uint256"
        }
      ],
      "name": "stakeOnNewNode",
      "outputs": [],
      "stateMutability": "nonpayable",
      "type": "function"
    },
    {
      "inputs": [],
      "name": "stakeToken",
      "outputs": [
        {
          "internalType": "address",
          "name": "",
          "type": "address"
        }
      ],
      "stateMutability": "view",
      "type": "function"
    },
    {
      "inputs": [],
      "name": "stakerCount",
      "outputs": [
        {
          "internalType": "uint64",
          "name": "",
          "type": "uint64"
        }
      ],
      "stateMutability": "view",
      "type": "function"
    },
    {
      "inputs": [],
      "name": "totalWithdrawableFunds",
      "outputs": [
        {
          "internalType": "uint256",
          "name": "",
          "type": "uint256"
        }
      ],
      "stateMutability": "view",
      "type": "function"
    },
    {
      "inputs": [],
      "name": "validatorUtils",
      "outputs": [
        {
          "internalType": "address",
          "name": "",
          "type": "address"
        }
      ],
      "stateMutability": "view",
      "type": "function"
    },
    {
      "inputs": [],
      "name": "validatorWalletCreator",
      "outputs": [
        {
          "internalType": "address",
          "name": "",
          "type": "address"
        }
      ],
      "stateMutability": "view",
      "type": "function"
    },
    {
      "inputs": [],
      "name": "validatorWhitelistDisabled",
      "outputs": [
        {
          "internalType": "bool",
          "name": "",
          "type": "bool"
        }
      ],
      "stateMutability": "view",
      "type": "function"
    },
    {
      "inputs": [],
      "name": "wasmModuleRoot",
      "outputs": [
        {
          "internalType": "bytes32",
          "name": "",
          "type": "bytes32"
        }
      ],
      "stateMutability": "view",
      "type": "function"
    },
    {
      "inputs": [],
      "name": "withdrawStakerFunds",
      "outputs": [
        {
          "internalType": "uint256",
          "name": "",
          "type": "uint256"
        }
      ],
      "stateMutability": "nonpayable",
      "type": "function"
    },
    {
      "inputs": [
        {
          "internalType": "address",
          "name": "user",
          "type": "address"
        }
      ],
      "name": "withdrawableFunds",
      "outputs": [
        {
          "internalType": "uint256",
          "name": "",
          "type": "uint256"
        }
      ],
      "stateMutability": "view",
      "type": "function"
    },
    {
      "inputs": [
        {
          "internalType": "uint256",
          "name": "zombieNum",
          "type": "uint256"
        }
      ],
      "name": "zombieAddress",
      "outputs": [
        {
          "internalType": "address",
          "name": "",
          "type": "address"
        }
      ],
      "stateMutability": "view",
      "type": "function"
    },
    {
      "inputs": [],
      "name": "zombieCount",
      "outputs": [
        {
          "internalType": "uint256",
          "name": "",
          "type": "uint256"
        }
      ],
      "stateMutability": "view",
      "type": "function"
    },
    {
      "inputs": [
        {
          "internalType": "uint256",
          "name": "zombieNum",
          "type": "uint256"
        }
      ],
      "name": "zombieLatestStakedNode",
      "outputs": [
        {
          "internalType": "uint64",
          "name": "",
          "type": "uint64"
        }
      ],
      "stateMutability": "view",
      "type": "function"
    }
  ],
  "bytecode": "0x60e060405261000c61002b565b15156080523060a0524660c05234801561002557600080fd5b506100f2565b60408051600481526024810182526020810180516001600160e01b03166302881c7960e11b17905290516000918291829160649161006991906100c3565b600060405180830381855afa9150503d80600081146100a4576040519150601f19603f3d011682016040523d82523d6000602084013e6100a9565b606091505b50915091508180156100bc575080516020145b9250505090565b6000825160005b818110156100e457602081860181015185830152016100ca565b506000920191825250919050565b60805160a05160c051615eea61013660003960006121c30152600081816115bc0152818161223001526122b5015260008181612bc50152614ad00152615eea6000f3fe6080604052600436106103505760003560e01c80637427be51116101be578063cd205fda116100f3578063cd205fda14610a9b578063ce11e6ab14610ab0578063ced01cfb14610ad0578063d01e660214610ae3578063d735e21d14610b03578063dcd030aa14610b18578063dff6978714610b38578063e78cea9214610b4d578063e8bd492214610b6d578063eb2055bb14610c02578063edfd03ed14610c22578063ee35f32714610c42578063ef40a67014610c62578063f065de3f14610c82578063f33e1fac14610ca2578063f63a434a14610cc2578063facd743b14610ce2578063fb0e722b14610d1257600080fd5b80637427be511461078857806376e7e23b146107a8578063771b2f97146107be5780637ba9534a146107e55780637e2d2155146107fa5780638640ce5f1461081a5780638da5cb5b1461083f5780638ee1a1261461085457806391c657e81461086a57806392c8134c1461088a5780639a8a0592146108b7578063a23c44b1146108cd578063aa38a6e7146109e6578063aa65af4814610a06578063b0ebedc714610a26578063bc45e0ae14610a46578063c2c2e68e14610a66578063c4d66de814610a7b57600080fd5b80634ceccfe5116102945780634ceccfe5146105a15780634d26732d146105b757806351ed6a30146105cc57806352d1902d146105ec57806355840a58146106015780635c617e94146106265780635c975abb146106465780635eb405d51461065e578063613739191461067e5780636177fd181461069357806363721d6b146106b357806365f7f80d146106c857806367425daf146106dd57806369fd251c146106f25780636b94c33b146107125780636d08d0a2146107325780636ddd37441461075257806371ef232c1461077257600080fd5b8063014cc92c14610355578063023a96fe146103925780630357aa49146103b257806312ab3d3b146103d457806318baaab9146103fe5780631aeb55a0146104135780631b1689e9146104335780631cf8d986146104575780631e83d30f146104775780632b2af0ab146104975780632e7acfa6146104b75780632f30cabd146104ef5780633e96576e146105255780634023cc4f1461054557806345c5b2c71461055857806345e38b641461056b5780634a7a801014610581575b600080fd5b34801561036157600080fd5b50606f54610375906001600160a01b031681565b6040516001600160a01b0390911681526020015b60405180910390f35b34801561039e57600080fd5b50606e54610375906001600160a01b031681565b3480156103be57600080fd5b506103d26103cd366004615312565b610d32565b005b3480156103e057600080fd5b50607e546103ee9060ff1681565b6040519015158152602001610389565b34801561040a57600080fd5b506103d2610e05565b34801561041f57600080fd5b506103d261042e366004615369565b610e7f565b34801561043f57600080fd5b50610449607d5481565b604051908152602001610389565b34801561046357600080fd5b506103d2610472366004615395565b61103f565b34801561048357600080fd5b506103d26104923660046153d3565b6112a2565b3480156104a357600080fd5b506103d26104b23660046153d3565b6113ab565b3480156104c357600080fd5b506065546104d7906001600160401b031681565b6040516001600160401b039091168152602001610389565b3480156104fb57600080fd5b5061044961050a3660046153f9565b6001600160a01b03166000908152607b602052604090205490565b34801561053157600080fd5b506104d76105403660046153f9565b61144f565b6103d2610553366004615395565b61147d565b6103d26105663660046153f9565b611491565b34801561057757600080fd5b5061044960735481565b34801561058d57600080fd5b506103d261059c366004615416565b6114fa565b3480156105ad57600080fd5b5061044961b2fa81565b3480156105c357600080fd5b50610449611581565b3480156105d857600080fd5b50607254610375906001600160a01b031681565b3480156105f857600080fd5b506104496115af565b34801561060d57600080fd5b50607e546103759061010090046001600160a01b031681565b34801561063257600080fd5b50610449610641366004615438565b611672565b34801561065257600080fd5b5060335460ff166103ee565b34801561066a57600080fd5b506103d2610679366004615416565b6116bc565b34801561068a57600080fd5b50610449611727565b34801561069f57600080fd5b506103ee6106ae3660046153f9565b6118a3565b3480156106bf57600080fd5b50607a54610449565b3480156106d457600080fd5b506104d76118cb565b3480156106e957600080fd5b506103d26118da565b3480156106fe57600080fd5b506104d761070d3660046153f9565b61195a565b34801561071e57600080fd5b506103d261072d3660046153f9565b611988565b34801561073e57600080fd5b5061044961074d366004615438565b611cb5565b34801561075e57600080fd5b5061037561076d366004615438565b611d2e565b34801561077e57600080fd5b50610449607c5481565b34801561079457600080fd5b506103d26107a33660046153f9565b611d67565b3480156107b457600080fd5b5061044960675481565b3480156107ca57600080fd5b506065546104d790600160401b90046001600160401b031681565b3480156107f157600080fd5b506104d7611eb5565b34801561080657600080fd5b506103d2610815366004615416565b611ecb565b34801561082657600080fd5b50607554600160c01b90046001600160401b03166104d7565b34801561084b57600080fd5b50610375612025565b34801561086057600080fd5b5061044960685481565b34801561087657600080fd5b506103ee6108853660046153f9565b612034565b34801561089657600080fd5b506108aa6108a5366004615438565b61208e565b6040516103899190615455565b3480156108c357600080fd5b5061044960665481565b3480156108d957600080fd5b506109876108e83660046153f9565b6040805160a081018252600080825260208201819052918101829052606081018290526080810191909152506001600160a01b0316600090815260796020908152604091829020825160a081018452815481526001909101546001600160401b0380821693830193909352600160401b8104831693820193909352600160801b83049091166060820152600160c01b90910460ff161515608082015290565b6040516103899190600060a082019050825182526001600160401b0360208401511660208301526001600160401b0360408401511660408301526001600160401b03606084015116606083015260808301511515608083015292915050565b3480156109f257600080fd5b50606d54610375906001600160a01b031681565b348015610a1257600080fd5b506103ee610a21366004615523565b612146565b348015610a3257600080fd5b50610449610a4136600461555c565b61217d565b348015610a5257600080fd5b50607054610375906001600160a01b031681565b348015610a7257600080fd5b506103d261219d565b348015610a8757600080fd5b506103d2610a963660046153f9565b612226565b348015610aa757600080fd5b506103ee6123e1565b348015610abc57600080fd5b50606b54610375906001600160a01b031681565b6103d2610ade366004615369565b6123f2565b348015610aef57600080fd5b50610375610afe3660046153d3565b612405565b348015610b0f57600080fd5b506104d761241a565b348015610b2457600080fd5b506103ee610b333660046153f9565b612430565b348015610b4457600080fd5b506078546104d7565b348015610b5957600080fd5b50606a54610375906001600160a01b031681565b348015610b7957600080fd5b50610bca610b883660046153f9565b607960205260009081526040902080546001909101546001600160401b0380821691600160401b8104821691600160801b82041690600160c01b900460ff1685565b604080519586526001600160401b0394851660208701529284169285019290925290911660608301521515608082015260a001610389565b348015610c0e57600080fd5b506103d2610c1d3660046155a4565b612473565b348015610c2e57600080fd5b506103d2610c3d3660046153d3565b612a9a565b348015610c4e57600080fd5b50606c54610375906001600160a01b031681565b348015610c6e57600080fd5b50610449610c7d3660046153f9565b612b6f565b348015610c8e57600080fd5b50607154610375906001600160a01b031681565b348015610cae57600080fd5b506104d7610cbd3660046153d3565b612b8a565b348015610cce57600080fd5b50610449610cdd366004615438565b612bc1565b348015610cee57600080fd5b506103ee610cfd3660046153f9565b60746020526000908152604090205460ff1681565b348015610d1e57600080fd5b50606954610375906001600160a01b031681565b60335460ff1615610d5e5760405162461bcd60e51b8152600401610d5590615644565b60405180910390fd5b606e546001600160a01b03163314610da75760405162461bcd60e51b815260206004820152600c60248201526b2ba927a723afa9a2a72222a960a11b6044820152606401610d55565b610db18282612c80565b6001600160401b03168314610df65760405162461bcd60e51b815260206004820152600b60248201526a1393d517d25397d0d2105360aa1b6044820152606401610d55565b610e008282612d4e565b505050565b607e5460ff1615610e285760405162461bcd60e51b8152600401610d559061566e565b610e30612e03565b610e705760405162461bcd60e51b815260206004820152601160248201527056414c494441544f525f4e4f545f41464b60781b6044820152606401610d55565b607e805460ff19166001179055565b3360009081526074602052604090205460ff1680610e9f5750607e5460ff165b610ebb5760405162461bcd60e51b8152600401610d559061569a565b60335460ff1615610ede5760405162461bcd60e51b8152600401610d5590615644565b610ee733612430565b610f035760405162461bcd60e51b8152600401610d55906156c1565b610f0b61241a565b6001600160401b0316826001600160401b031610158015610f455750610f2f611eb5565b6001600160401b0316826001600160401b031611155b610f895760405162461bcd60e51b81526020600482015260156024820152744e4f44455f4e554d5f4f55545f4f465f52414e474560581b6044820152606401610d55565b6000610f9483612f10565b905081816005015414610fd65760405162461bcd60e51b815260206004820152600a6024820152694e4f44455f52454f524760b01b6044820152606401610d55565b60038101546001600160401b0316610fed3361144f565b6001600160401b0316146110355760405162461bcd60e51b815260206004820152600f60248201526e2727aa2fa9aa20a5a2a22fa82922ab60891b6044820152606401610d55565b610e003384612f2a565b3360009081526074602052604090205460ff168061105f5750607e5460ff165b61107b5760405162461bcd60e51b8152600401610d559061569a565b60335460ff161561109e5760405162461bcd60e51b8152600401610d5590615644565b6110a733612430565b6110c35760405162461bcd60e51b8152600401610d55906156c1565b60006110ce3361144f565b905060006110db8261208e565b61014001516110f3906001600160401b0316436156fb565b90506073548110156111345760405162461bcd60e51b815260206004820152600a60248201526954494d455f44454c544160b01b6044820152606401610d55565b600261114861018087016101608801615733565b60038111156111595761115961570e565b148061118757508261117b61117636889003880160c08901615888565b612f7a565b6001600160401b031610155b6111bf5760405162461bcd60e51b81526020600482015260096024820152681513d3d7d4d350531360ba1b6044820152606401610d55565b60006111d36101a087016101808801615438565b6001600160401b03161161121b5760405162461bcd60e51b815260206004820152600f60248201526e22a6a82a2cafa0a9a9a2a92a24a7a760891b6044820152606401610d55565b600161122d60c0870160a08801615733565b600381111561123e5761123e61570e565b1461127d5760405162461bcd60e51b815260206004820152600f60248201526e4241445f505245565f53544154555360881b6044820152606401610d55565b5061128a84828486612f8f565b5061129c33611297611eb5565b612f2a565b50505050565b3360009081526074602052604090205460ff16806112c25750607e5460ff165b6112de5760405162461bcd60e51b8152600401610d559061569a565b60335460ff1615806113645750606a546040805163cb23bcb560e01b8152905130926001600160a01b03169163cb23bcb59160048083019260209291908290030181865afa158015611334573d6000803e3d6000fd5b505050506040513d601f19601f8201168201806040525081019061135891906158a4565b6001600160a01b031614155b6113805760405162461bcd60e51b8152600401610d55906158c1565b61138933613558565b6000611393611581565b9050808210156113a1578091505b610e0033836135c8565b6113b361241a565b6001600160401b03168110156113fd5760405162461bcd60e51b815260206004820152600f60248201526e1053149150511657d11150d2511151608a1b6044820152606401610d55565b611405611eb5565b6001600160401b031681111561144c5760405162461bcd60e51b815260206004820152600c60248201526b1113d154d39517d1561254d560a21b6044820152606401610d55565b50565b6001600160a01b0316600090815260796020526040902060010154600160401b90046001600160401b031690565b6114863461367b565b610e0083838361103f565b3360009081526074602052604090205460ff16806114b15750607e5460ff165b6114cd5760405162461bcd60e51b8152600401610d559061569a565b60335460ff16156114f05760405162461bcd60e51b8152600401610d5590615644565b61144c813461379d565b60335460ff161561151d5760405162461bcd60e51b8152600401610d5590615644565b607e5461010090046001600160a01b031633146115715760405162461bcd60e51b81526020600482015260126024820152712727aa2fa320a9aa2fa1a7a72324a926a2a960711b6044820152606401610d55565b61157d8282600161380f565b5050565b60008061158c61241a565b90506115a9438261159b611eb5565b6001600160401b0316613ad7565b91505090565b6000306001600160a01b037f0000000000000000000000000000000000000000000000000000000000000000161461164d5760405162461bcd60e51b815260206004820152603b60248201527f555550534e6f745570677261646561626c653a206d757374206e6f742062652060448201527a18d85b1b1959081d1a1c9bdd59da0819195b1959d85d1958d85b1b602a1b6064820152608401610d55565b507f2b1dbce74324248c222f0ec2d5ed7bd323cfc425b336f0253c5ccfda7265546d90565b60008061167e607a5490565b90506000805b828110156116b45761169985610a2183612405565b156116ac57816116a8816158ec565b9250505b600101611684565b509392505050565b3360009081526074602052604090205460ff16806116dc5750607e5460ff165b6116f85760405162461bcd60e51b8152600401610d559061569a565b60335460ff161561171b5760405162461bcd60e51b8152600401610d5590615644565b61157d8282600061380f565b3360009081526074602052604081205460ff16806117475750607e5460ff165b6117635760405162461bcd60e51b8152600401610d559061569a565b60335460ff1615806117e95750606a546040805163cb23bcb560e01b8152905130926001600160a01b03169163cb23bcb59160048083019260209291908290030181865afa1580156117b9573d6000803e3d6000fd5b505050506040513d601f19601f820116820180604052508101906117dd91906158a4565b6001600160a01b031614155b6118055760405162461bcd60e51b8152600401610d55906158c1565b600061181033613d41565b604051909150600090339083908381818185875af1925050503d8060008114611855576040519150601f19603f3d011682016040523d82523d6000602084013e61185a565b606091505b505090508061189d5760405162461bcd60e51b815260206004820152600f60248201526e1514905394d1915497d19052531151608a1b6044820152606401610d55565b50905090565b6001600160a01b0316600090815260796020526040902060010154600160c01b900460ff1690565b6075546001600160401b031690565b60006118e461241a565b6001600160401b031690506118f76118cb565b6001600160401b03168111801561191e5750611911611eb5565b6001600160401b03168111155b61144c5760405162461bcd60e51b815260206004820152600d60248201526c1393d7d553949154d3d3159151609a1b6044820152606401610d55565b6001600160a01b0316600090815260796020526040902060010154600160801b90046001600160401b031690565b3360009081526074602052604090205460ff16806119a85750607e5460ff165b6119c45760405162461bcd60e51b8152600401610d559061569a565b60335460ff16156119e75760405162461bcd60e51b8152600401610d5590615644565b6119ef6118da565b60006119f96118cb565b90506000611a0561241a565b90506000611a1282612f10565b60038101549091506001600160401b03808516911603611c7357611a3584612430565b611a515760405162461bcd60e51b8152600401610d55906156c1565b611a6b611a5d8561144f565b6001600160401b03166113ab565b611a758285612146565b15611ab55760405162461bcd60e51b815260206004820152601060248201526f14d51052d15117d3d397d5105491d15560821b6044820152606401610d55565b6040805161018081018252825481526001830154602082015260028301549181019190915260038201546001600160401b038082166060840152600160401b80830482166080850152600160801b808404831660a0860152600160c01b93849004831660c0860152600486015480841660e087015291820483166101008601528104821661012085015291909104166101408201526005820154610160820152611b5e90613dc2565b611c10611b6a84612f10565b6040805161018081018252825481526001830154602082015260028301549181019190915260038201546001600160401b038082166060840152600160401b80830482166080850152600160801b808404831660a0860152600160c01b93849004831660c0860152600486015480841660e08701529182048316610100860152810482166101208501529190910416610140820152600590910154610160820152613e11565b611c1a6000612a9a565b611c2382611672565b6003820154600160c01b90046001600160401b031614611c735760405162461bcd60e51b815260206004820152600b60248201526a4841535f5354414b45525360a81b6044820152606401610d55565b611c7b613e61565b6040516001600160401b038316907feaffa3d968707ec919a2fc9f31d5ab2b86c905881ff561725d5a82fc95ad464090600090a250505050565b600080611cc1607a5490565b90506000805b828110156116b4576000611cda82613ea8565b80549091506001600160401b03878116600160a01b9092041614801590611d1257508054611d129087906001600160a01b0316612146565b15611d255782611d21816158ec565b9350505b50600101611cc7565b60006078826001600160401b031681548110611d4c57611d4c615905565b6000918252602090912001546001600160a01b031692915050565b3360009081526074602052604090205460ff1680611d875750607e5460ff165b611da35760405162461bcd60e51b8152600401610d559061569a565b60335460ff161580611e295750606a546040805163cb23bcb560e01b8152905130926001600160a01b03169163cb23bcb59160048083019260209291908290030181865afa158015611df9573d6000803e3d6000fd5b505050506040513d601f19601f82011682018060405250810190611e1d91906158a4565b6001600160a01b031614155b611e455760405162461bcd60e51b8152600401610d55906158c1565b611e4d6118cb565b6001600160401b0316611e5f8261144f565b6001600160401b03161115611ea35760405162461bcd60e51b815260206004820152600a6024820152691513d3d7d49150d1539560b21b6044820152606401610d55565b611eac81613558565b61144c81613ece565b607554600160801b90046001600160401b031690565b3360009081526074602052604090205460ff1680611eeb5750607e5460ff165b611f075760405162461bcd60e51b8152600401610d559061569a565b60335460ff1615611f2a5760405162461bcd60e51b8152600401610d5590615644565b607a548210611f6c5760405162461bcd60e51b815260206004820152600e60248201526d4e4f5f535543485f5a4f4d42494560901b6044820152606401610d55565b6000611f7783612405565b90506000611f8484612b8a565b9050600080611f916118cb565b6001600160401b031690505b80836001600160401b031610158015611fb557508482105b15611ff4576000611fc584612f10565b9050611fd18486613f7e565b60038101546001600160401b0316935082611feb816158ec565b93505050611f9d565b80836001600160401b031610156120135761200e866140c8565b61201d565b61201d868461418e565b505050505050565b600061202f6141d7565b905090565b6000805b607a5481101561208557607a818154811061205557612055615905565b6000918252602090912001546001600160a01b039081169084160361207d5750600192915050565b600101612038565b50600092915050565b6120966151ad565b61209f82612f10565b6040805161018081018252825481526001830154602082015260028301549181019190915260038201546001600160401b038082166060840152600160401b80830482166080850152600160801b808404831660a0860152600160c01b93849004831660c0860152600486015480841660e0870152918204831661010086015281048216610120850152919091041661014082015260059091015461016082015292915050565b6001600160401b03821660009081526077602090815260408083206001600160a01b038516845290915290205460ff165b92915050565b60006121938484846001600160401b0316613ad7565b90505b9392505050565b607e5460ff16156121c05760405162461bcd60e51b8152600401610d559061566e565b467f000000000000000000000000000000000000000000000000000000000000000003610e705760405162461bcd60e51b815260206004820152601460248201527310d210525397d25117d393d517d0d2105391d15160621b6044820152606401610d55565b6001600160a01b037f00000000000000000000000000000000000000000000000000000000000000001630036122b35760405162461bcd60e51b815260206004820152602c60248201527f46756e6374696f6e206d7573742062652063616c6c6564207468726f7567682060448201526b19195b1959d85d1958d85b1b60a21b6064820152608401610d55565b7f00000000000000000000000000000000000000000000000000000000000000006001600160a01b03166122e561420a565b6001600160a01b0316146123505760405162461bcd60e51b815260206004820152602c60248201527f46756e6374696f6e206d7573742062652063616c6c6564207468726f7567682060448201526b6163746976652070726f787960a01b6064820152608401610d55565b6001600160a01b0381161561239a5760405162461bcd60e51b815260206004820152601060248201526f1393d7d513d2d15397d0531313d5d15160821b6044820152606401610d55565b6123a26123e1565b1561144c5760405162461bcd60e51b815260206004820152600f60248201526e046414345545f4e4f545f455243323608c1b6044820152606401610d55565b6072546001600160a01b0316151590565b6123fb3461367b565b61157d8282610e7f565b6000607a8281548110611d4c57611d4c615905565b607554600160401b90046001600160401b031690565b6001600160a01b038116600090815260796020526040812060010154600160c01b900460ff1680156121775750607554612177906001600160401b031683612146565b3360009081526074602052604090205460ff16806124935750607e5460ff165b6124af5760405162461bcd60e51b8152600401610d559061569a565b60335460ff16156124d25760405162461bcd60e51b8152600401610d5590615644565b6124e26040880160208901615438565b6001600160401b03166124f86020890189615438565b6001600160401b03161061253c5760405162461bcd60e51b815260206004820152600b60248201526a2ba927a723afa7a92222a960a91b6044820152606401610d55565b612544611eb5565b6001600160401b031661255d6040890160208a01615438565b6001600160401b031611156125a35760405162461bcd60e51b815260206004820152600c60248201526b1393d517d41493d413d4d15160a21b6044820152606401610d55565b6125b06020880188615438565b6001600160401b03166125c16118cb565b6001600160401b03161061260b5760405162461bcd60e51b81526020600482015260116024820152701053149150511657d0d3d3919254935151607a1b6044820152606401610d55565b600061262b88825b6020020160208101906126269190615438565b612f10565b9050600061263a896001612613565b600380820154908401549192506001600160401b0391821691161461268d5760405162461bcd60e51b81526020600482015260096024820152682224a3232fa82922ab60b91b6044820152606401610d55565b6126ac8a60005b6020020160208101906126a791906153f9565b613558565b6126b78a6001612694565b6126de6126c760208b018b615438565b8b60005b602002016020810190610a2191906153f9565b61271f5760405162461bcd60e51b815260206004820152601260248201527114d51052d1548c57d393d517d4d51052d15160721b6044820152606401610d55565b61273a61273260408b0160208c01615438565b8b60016126cb565b61277b5760405162461bcd60e51b815260206004820152601260248201527114d51052d1548c97d393d517d4d51052d15160721b6044820152606401610d55565b6040805180820182526127fc916127ec91908b90600290839083908082843760009201829052506040805180820190915292508c9150600290835b828210156127e2576127d360a08302850136819003810190615888565b815260200190600101906127b6565b5050505089614232565b85358560005b60200201356142dc565b82600101541461283b5760405162461bcd60e51b815260206004820152600a6024820152694348414c5f484153483160b01b6044820152606401610d55565b61284c8560208601358560016127f2565b81600101541461288b5760405162461bcd60e51b815260206004820152600a60248201526921a420a62fa420a9a41960b11b6044820152606401610d55565b60655460038301546000916001600160401b03600160401b918290048116926128b9928935929104166156fb565b60038501546128d0906001600160401b0316612f10565b600401546128ee9190600160401b90046001600160401b031661591b565b6128f8919061591b565b905060208501358110156129335761292b61291660208d018d6153f9565b61292660408e0160208f016153f9565b612d4e565b505050612a90565b60006129738c8b8b8b89600c61294a8d358a6156fb565b612954919061592e565b600c61296460208f01358b6156fb565b61296e919061592e565b61431a565b90506129f561298560208e018e6153f9565b8d600160200201602081019061299b91906153f9565b6001600160a01b03918216600090815260796020526040808220600190810180546001600160401b038916600160801b02600160801b600160c01b0319918216811790925594909516835291200180549091169091179055565b6001600160401b0381167f6db7dc2f507647d135035469b27aa79cea90582779d084a7821d6cd092cbd873612a2d60208f018f6153f9565b8e6001602002016020810190612a4391906153f9565b8e6000602002016020810190612a599190615438565b604080516001600160a01b0394851681529390921660208401526001600160401b03169082015260600160405180910390a2505050505b5050505050505050565b3360009081526074602052604090205460ff1680612aba5750607e5460ff165b612ad65760405162461bcd60e51b8152600401610d559061569a565b60335460ff1615612af95760405162461bcd60e51b8152600401610d5590615644565b6000612b04607a5490565b90506000612b106118cb565b6001600160401b03169050825b8281101561129c575b81612b3082612b8a565b6001600160401b03161015612b6757612b48816140c8565b82612b5281615945565b935050828110612b625750505050565b612b26565b600101612b1d565b6001600160a01b031660009081526079602052604090205490565b6000607a8281548110612b9f57612b9f615905565b600091825260209091200154600160a01b90046001600160401b031692915050565b60007f000000000000000000000000000000000000000000000000000000000000000015612c1f576001600160401b0382166000908152607f6020526040902054806121775760405162461bcd60e51b8152600401610d559061595c565b6000612c2a83612f10565b6003810154909150600160401b90046001600160401b0316600003612c615760405162461bcd60e51b8152600401610d559061595c565b60040154600160c01b90046001600160401b031692915050565b919050565b6001600160a01b03828116600090815260796020526040808220928416825281206001830154919291600160801b90046001600160401b031680612cf05760405162461bcd60e51b81526020600482015260076024820152661393d7d0d2105360ca1b6044820152606401610d55565b60018201546001600160401b03828116600160801b9092041614612d455760405162461bcd60e51b815260206004820152600c60248201526b1112519197d25397d0d2105360a21b6044820152606401610d55565b95945050505050565b6000612d5982612b6f565b90506000612d6684612b6f565b905080821115612d8757612d7a83826135c8565b612d8490836156fb565b91505b6000612d94600284615993565b9050612da085826143ca565b612daa81846156fb565b9250612ddd856001600160a01b031660009081526079602052604090206001018054600160801b600160c01b0319169055565b607154612df3906001600160a01b03168461442f565b612dfc846144cb565b5050505050565b600080612e11612626611eb5565b6040805161018081018252825481526001830154602082015260028301549181019190915260038201546001600160401b038082166060840152600160401b80830482166080850152600160801b808404831660a0860152600160c01b93849004831660c0860152600486015480841660e0870152918204831661010086015281048216610120850152919091041661014082018190526005909201546101608201529150600003612ec557600091505090565b606554610140820151439161b2fa91612ee7916001600160401b0316906159a7565b6001600160401b0316612efa919061591b565b1015612f0857600191505090565b600091505090565b6001600160401b0316600090815260766020526040902090565b6001600160a01b0382166000908152607960205260409020612f4c8284614571565b60010180546001600160401b03909216600160401b02600160401b600160801b031990921691909117905550565b6020810151600090815b602002015192915050565b60006001612fa561018087016101608801615733565b6003811115612fb657612fb661570e565b1480612fe457506002612fd161018087016101608801615733565b6003811115612fe257612fe261570e565b145b6130235760405162461bcd60e51b815260206004820152601060248201526f4241445f41465445525f53544154555360801b6044820152606401610d55565b61302b615211565b6130348561208e565b6060820152606a54604080516221048360e21b815290516001600160a01b03909216916284120c916004808201926020929091908290030181865afa158015613081573d6000803e3d6000fd5b505050506040513d601f19601f820116820180604052508101906130a591906159c6565b81526060810151516130b78786614738565b146130f65760405162461bcd60e51b815260206004820152600f60248201526e0a0a48aacbea6a882a88abe9082a69608b1b6044820152606401610d55565b600061310d61117636899003890160c08a01615888565b90506000613123611176368a90038a018a615888565b9050806001600160401b0316826001600160401b031610156131795760405162461bcd60e51b815260206004820152600f60248201526e494e424f585f4241434b574152445360881b6044820152606401610d55565b806001600160401b0316826001600160401b03160361321b576131a96131a4368a90038a018a615888565b614792565b6001600160401b03166131c76131a4368b90038b0160c08c01615888565b6001600160401b0316101561321b5760405162461bcd60e51b815260206004820152601a602482015279494e424f585f504f535f494e5f4d53475f4241434b574152445360301b6044820152606401610d55565b600261322f6101808a016101608b01615733565b60038111156132405761324061570e565b14806132695750600061325e6131a4368b90038b0160c08c01615888565b6001600160401b0316115b1561327c5781613278816159df565b9250505b82516001600160401b03831611156132c75760405162461bcd60e51b815260206004820152600e60248201526d12539093d617d41054d517d1539160921b6044820152606401610d55565b6001600160401b0382161561336057606a546001600160a01b03166316bf55796132f2600185615a0a565b6040516001600160e01b031960e084901b1681526001600160401b039091166004820152602401602060405180830381865afa158015613336573d6000803e3d6000fd5b505050506040513d601f19601f8201168201806040525081019061335a91906159c6565b60e08401525b5061337a905061337536889003880188615a68565b6147a1565b6040820152606554613395906001600160401b0316436159a7565b6001600160401b0390811660c0830152606082015161012001511615801560a08301526133dc576133ce81606001516101200151612f10565b6005015460808201526133ec565b6060810151610160015160808201525b61340b8160a00151826080015183604001518460e00151606854614840565b915082821480613419575082155b61345c5760405162461bcd60e51b81526020600482015260146024820152730aa9c8ab0a08a86a88a88be9c9e888abe9082a6960631b6044820152606401610d55565b6134a46134708760c0018360000151614738565b6134818360400151436068546142dc565b613498613493368b90038b018b615a68565b6148ad565b888560c00151876148d7565b602082015260006134b3611eb5565b6134be9060016159a7565b905060006134cb87612f10565b90506134d7818361492b565b6134e4836020015161499d565b505081816060015161016001516134f9611eb5565b6001600160401b03167ffeec084feceb8522cbaa8647a86ea86caad33f43089346204541dbead500657884604001518a8660e001516068548860000151604051613547959493929190615b62565b60405180910390a450949350505050565b613561816118a3565b61357d5760405162461bcd60e51b8152600401610d55906156c1565b60006135888261195a565b6001600160401b03161461144c5760405162461bcd60e51b8152602060048201526007602482015266125397d0d2105360ca1b6044820152606401610d55565b6001600160a01b03821660009081526079602052604081208054808411156136255760405162461bcd60e51b815260206004820152601060248201526f544f4f5f4c4954544c455f5354414b4560801b6044820152606401610d55565b600061363185836156fb565b8584559050613640868261442f565b60408051838152602081018790526001600160a01b03881691600080516020615e95833981519152910160405180910390a295945050505050565b3360009081526074602052604090205460ff168061369b5750607e5460ff165b6136b75760405162461bcd60e51b8152600401610d559061569a565b60335460ff16156136da5760405162461bcd60e51b8152600401610d5590615644565b6136e3336118a3565b156137005760405162461bcd60e51b8152600401610d5590615bc4565b61370933612034565b156137495760405162461bcd60e51b815260206004820152601060248201526f5354414b45525f49535f5a4f4d42494560801b6044820152606401610d55565b613751611581565b8110156137935760405162461bcd60e51b815260206004820152601060248201526f4e4f545f454e4f5547485f5354414b4560801b6044820152606401610d55565b61144c3382614b7c565b3360009081526074602052604090205460ff16806137bd5750607e5460ff165b6137d95760405162461bcd60e51b8152600401610d559061569a565b60335460ff16156137fc5760405162461bcd60e51b8152600401610d5590615644565b61380582613558565b61157d82826143ca565b6138176118da565b600061382161241a565b9050600061382e82612f10565b9050826138de576040805161018081018252825481526001830154602082015260028301549181019190915260038201546001600160401b038082166060840152600160401b80830482166080850152600160801b808404831660a0860152600160c01b93849004831660c0860152600486015480841660e0870152918204831661010086015281048216610120850152919091041661014082015260058201546101608201526138de90613dc2565b6138e66118cb565b60038201546001600160401b0390811691161461390557613905615bec565b600381015460009061391f906001600160401b0316612f10565b9050836139cf576040805161018081018252825481526001830154602082015260028301549181019190915260038201546001600160401b038082166060840152600160401b80830482166080850152600160801b808404831660a0860152600160c01b93849004831660c0860152600486015480841660e0870152918204831661010086015281048216610120850152919091041661014082015260058201546101608201526139cf90613e11565b6139d96000612a9a565b60006139e484611672565b60038401549091506000908290613a03906001600160401b0316611cb5565b613a0d91906156fb565b6003850154909150600160c01b90046001600160401b03168210613a605760405162461bcd60e51b815260206004820152600a6024820152694e4f5f5354414b45525360b01b6044820152606401610d55565b6003840154613a80908290600160c01b90046001600160401b031661591b565b60048401546001600160401b031614613acc5760405162461bcd60e51b815260206004820152600e60248201526d1393d517d0531317d4d51052d15160921b6044820152606401610d55565b612a90858989614cd5565b600081613ae5600185615a0a565b6001600160401b031603613afc5750606754612196565b6000613b0784612f10565b60030154600160401b90046001600160401b0316905080851015613b2f575050606754612196565b6000604051806101400160405280600162ffffff1681526020016201e05b62ffffff1681526020016201f7d162ffffff1681526020016201389162ffffff168152602001620329e162ffffff1681526020016201be4362ffffff1681526020016204cb8c62ffffff1681526020016201fbc462ffffff16815260200162036d3262ffffff1681526020016202797362ffffff1681525090506000604051806101400160405280600162ffffff1681526020016201c03062ffffff1681526020016201b69962ffffff16815260200161fde262ffffff168152602001620265c662ffffff16815260200162013b8e62ffffff168152602001620329e162ffffff1681526020016201389162ffffff1681526020016201f7d162ffffff1681526020016201537562ffffff16815250905060008388613c6c91906156fb565b6065549091506000906001600160401b0316613c8983600a61592e565b613c939190615993565b90506000613ca2600a83615993565b613cad906002615ce9565b9050600085613cbd600a85615cf5565b600a8110613ccd57613ccd615905565b6020020151613ce19062ffffff168361592e565b9050600085613cf1600a86615cf5565b600a8110613d0157613d01615905565b6020020151613d159062ffffff1683615993565b905080600003613d23575060015b80606754613d31919061592e565b9c9b505050505050505050505050565b6001600160a01b0381166000908152607b60205260408120805490829055607c80548291908490613d739084906156fb565b909155505060408051828152600060208201526001600160a01b038516917fa740af14c56e4e04a617b1de1eb20de73270decbaaead14f142aabf3038e5ae2910160405180910390a292915050565b80608001516001600160401b031643101561144c5760405162461bcd60e51b815260206004820152600f60248201526e4245464f52455f444541444c494e4560881b6044820152606401610d55565b8060a001516001600160401b031643101561144c5760405162461bcd60e51b815260206004820152601060248201526f10d212531117d513d3d7d49150d1539560821b6044820152606401610d55565b60758054600160401b90046001600160401b0316906008613e81836159df565b91906101000a8154816001600160401b0302191690836001600160401b0316021790555050565b6000607a8281548110613ebd57613ebd615905565b906000526020600020019050919050565b6001600160a01b038116600090815260796020526040812090613eef6118cb565b9050613efb8184612146565b15613f305760018201546001600160401b03828116600160401b9092041614613f2657613f26615bec565b613f308184613f7e565b8154613f3c848261442f565b613f4584614e18565b60408051828152600060208201526001600160a01b03861691600080516020615e9583398151915291015b60405180910390a250505050565b6001600160401b03821660009081526077602090815260408083206001600160a01b038516845290915290205460ff16613fca5760405162461bcd60e51b8152600401610d55906156c1565b6001600160401b03821660009081526077602090815260408083206001600160a01b03851684529091528120805460ff1916905561400783612f10565b600381018054919250600160c01b9091046001600160401b031690601861402d83615d09565b91906101000a8154816001600160401b0302191690836001600160401b031602179055505060006001600160401b0316836001600160401b03161115610e00576003810154614084906001600160401b0316612f10565b60040180546001600160401b031690600061409e83615d09565b91906101000a8154816001600160401b0302191690836001600160401b0316021790555050505050565b607a80546140d8906001906156fb565b815481106140e8576140e8615905565b90600052602060002001607a828154811061410557614105615905565b600091825260209091208254910180546001600160a01b039092166001600160a01b031983168117825592546001600160e01b0319909216909217600160a01b918290046001600160401b0316909102179055607a80548061416957614169615d2c565b600082815260209020810160001990810180546001600160e01b031916905501905550565b80607a83815481106141a2576141a2615905565b9060005260206000200160000160146101000a8154816001600160401b0302191690836001600160401b031602179055505050565b60007fb53127684a568b3173ae13b9f8a6016e243e63b6e8ee1178d6a717850b5d61035b546001600160a01b0316919050565b60007f2b1dbce74324248c222f0ec2d5ed7bd323cfc425b336f0253c5ccfda7265546d6141fb565b604080516002808252606082018352600092839291906020830190803683370190505085519091506142749061426f8660005b6020020151614fbd565b615042565b8160008151811061428757614287615905565b60209081029190910101526142a8856001602002015161426f866001614265565b816001815181106142bb576142bb615905565b602002602001018181525050612d456000846001600160401b031683615163565b6040805160208101859052908101839052606081018290526000906080015b6040516020818303038152906040528051906020012090509392505050565b606e546000906001600160a01b0316639f799f34853589898961434060208f018f6153f9565b8e600160200201602081019061435691906153f9565b8a8a6040518963ffffffff1660e01b815260040161437b989796959493929190615d42565b6020604051808303816000875af115801561439a573d6000803e3d6000fd5b505050506040513d601f19601f820116820180604052508101906143be9190615df6565b98975050505050505050565b6001600160a01b0382166000908152607960205260408120805490916143f0848361591b565b80845560408051848152602081018390529192506001600160a01b03871691600080516020615e95833981519152910160405180910390a25050505050565b6001600160a01b0382166000908152607b602052604081205490614453838361591b565b6001600160a01b0385166000908152607b60205260408120829055607c8054929350859290919061448590849061591b565b909155505060408051838152602081018390526001600160a01b038616917fa740af14c56e4e04a617b1de1eb20de73270decbaaead14f142aabf3038e5ae29101613f70565b6001600160a01b03808216600081815260796020908152604080832081518083019092529381526001808501546001600160401b03600160401b9091048116938301938452607a8054928301815590945290517ff0440771a29e57e18c66727944770b82cc77924aef333c927ce6bdd2cdb3ae0390910180549251909316600160a01b026001600160e01b03199092169416939093179290921790915561157d82614e18565b6001600160401b03821660009081526077602090815260408083206001600160a01b038516845290915290205460ff16156145be5760405162461bcd60e51b8152600401610d5590615bc4565b6001600160401b03821660009081526077602090815260408083206001600160a01b03851684529091528120805460ff191660011790556145fe83612f10565b6003810154909150600160401b90046001600160401b03166000036146355760405162461bcd60e51b8152600401610d559061595c565b6003810154600160c01b90046001600160401b03166146558160016159a7565b6003830180546001600160c01b0316600160c01b6001600160401b039384160217905584161561129c576003820154600090614699906001600160401b0316612f10565b6004810180549192506001600160401b039091169060006146b9836159df565b91906101000a8154816001600160401b0302191690836001600160401b0316021790555050816001600160401b0316600003612dfc57606554612dfc90614709906001600160401b0316436159a7565b600383018054600160801b600160c01b031916600160801b6001600160401b0390931692909202919091179055565b600061475161474c36859003850185615888565b614fbd565b8261476260c0860160a08701615733565b60405160200161477493929190615e13565b60405160208183030381529060405280519060200120905092915050565b60208101516000906001612f84565b60006147ab615262565b825160200151819060038111156147c4576147c461570e565b908160038111156147d7576147d761570e565b9052506020838101518101519082019060038111156147f8576147f861570e565b9081600381111561480b5761480b61570e565b905250614816615280565b8351518152602080850151519082015260408401516148389083908390614232565b949350505050565b6000808661484f576000614852565b60015b6040516001600160f81b031960f883901b1660208201526021810188905260418101879052606181018690526081810185905290915060a1016040516020818303038152906040528051906020012091505095945050505050565b60006121776148c383602001516000015161517a565b6020840151516148d290615185565b615191565b6148df6151ad565b6148e76151ad565b96875250602086019490945260408501929092526001600160401b0390811660608501529081166080840181905260a0840152431661014083015261016082015290565b6004820154600160401b90046001600160401b031660000361496e57600482018054600160401b600160801b031916600160401b436001600160401b0316021790555b600490910180546001600160401b03909216600160801b02600160801b600160c01b0319909216919091179055565b60758054600160801b90046001600160401b03169060106149bd836159df565b825461010092830a6001600160401b03818102199092169282160291909117909255607554600160801b908190048316600090815260766020908152604091829020875181559087015160018201559086015160028201556060860151600382018054608089015160a08a015160c08b01519489166001600160801b031993841617600160401b928a168302176001600160801b03908116918a1688026001600160c01b0390811692909217600160c01b968b1687021790945560e08b0151600487018054998d01516101208e01516101408f0151938d169b9096169a909a17998b16909302989098179093169188169095029091161793909416909302919091179055610160830151600590910155507f00000000000000000000000000000000000000000000000000000000000000001561144c5760646001600160a01b031663a3b1b31d6040518163ffffffff1660e01b8152600401602060405180830381865afa158015614b33573d6000803e3d6000fd5b505050506040513d601f19601f82011682018060405250810190614b5791906159c6565b607554600160801b90046001600160401b03166000908152607f602052604090205550565b6078805460018082019092557f8dc6fb69531d98d70dc0420e638d2dfd04e09e1ec783ede9aac77da9c5a0dac4810180546001600160a01b0319166001600160a01b0386169081179091556040805160a0810182528581526001600160401b038085166020808401918252607580548416858701908152600060608701818152608088018c81528a835260798652898320985189559551978c0180549351915196519888166001600160801b031990941693909317600160401b9188169190910217600160801b600160c81b031916600160801b9587169590950260ff60c01b191694909417600160c01b9615158702179055805484168352607782528583208784528252858320805460ff191690991790985587546001600160c01b031643909316909302919091179095558151948552840185905291929091600080516020615e95833981519152910160405180910390a2505050565b6000614ce084612f10565b9050614cec8383615191565b816002015414614d2d5760405162461bcd60e51b815260206004820152600c60248201526b434f4e4649524d5f4441544160a01b6044820152606401610d55565b606b54604051630502677360e51b815260048101849052602481018590526001600160a01b039091169063a04cee6090604401600060405180830381600087803b158015614d7a57600080fd5b505af1158015614d8e573d6000803e3d6000fd5b5050607580546001600160401b0319166001600160401b03881617905550614db990508460016159a7565b60758054600160401b600160801b031916600160401b6001600160401b03938416021790556040805185815260208101859052918616917f22ef0479a7ff660660d1c2fe35f1b632cf31675c2d9378db8cec95b00d8ffa3c9101613f70565b6001600160a01b03811660009081526079602052604090206001810154600160c01b900460ff16614e5b5760405162461bcd60e51b8152600401610d55906156c1565b600180820154607880546001600160401b03909216929091614e7d91906156fb565b81548110614e8d57614e8d615905565b600091825260209091200154607880546001600160a01b03909216916001600160401b038416908110614ec257614ec2615905565b9060005260206000200160006101000a8154816001600160a01b0302191690836001600160a01b0316021790555080607960006078846001600160401b031681548110614f1157614f11615905565b6000918252602080832091909101546001600160a01b03168352820192909252604001902060010180546001600160401b0319166001600160401b03929092169190911790556078805480614f6857614f68615d2c565b60008281526020808220830160001990810180546001600160a01b03191690559092019092556001600160a01b03949094168152607990935250506040812090815560010180546001600160c81b0319169055565b805180516020918201519282015180518184015160409283015183516c23b637b130b61039ba30ba329d60991b81880152602d810195909552604d8501969096526001600160c01b031960c092831b8116606d86015290821b8116607585015294901b909316607d820152825180820360650181526085909101909252815191012090565b600060018360038111156150585761505861570e565b0361509d576040516b213637b1b59039ba30ba329d60a11b6020820152602c8101839052604c015b604051602081830303815290604052805190602001209050612177565b60028360038111156150b1576150b161570e565b036150e65760405174213637b1b59039ba30ba32961032b93937b932b21d60591b602082015260358101839052605501615080565b60038360038111156150fa576150fa61570e565b036151285760405174213637b1b59039ba30ba3296103a37b7903330b91d60591b6020820152603501615080565b60405162461bcd60e51b815260206004820152601060248201526f4241445f424c4f434b5f53544154555360801b6044820152606401610d55565b60008383836040516020016142fb93929190615e51565b805160009081612f84565b80516000906001612f84565b6040805160208101849052908101829052600090606001614774565b6040805161018081018252600080825260208201819052918101829052606081018290526080810182905260a0810182905260c0810182905260e0810182905261010081018290526101208101829052610140810182905261016081019190915290565b6040518061010001604052806000815260200161522c6151ad565b8152600060208201526040016152406151ad565b8152600060208201819052604082018190526060820181905260809091015290565b60405180604001604052806002906020820280368337509192915050565b60405180604001604052806002905b6152976152ad565b81526020019060019003908161528f5790505090565b60405180604001604052806152c0615262565b81526020016152cd6152d2565b905290565b60405180606001604052806003906020820280368337509192915050565b6001600160a01b03169052565b6001600160a01b038116811461144c57600080fd5b60008060006060848603121561532757600080fd5b833592506020840135615339816152fd565b91506040840135615349816152fd565b809150509250925092565b6001600160401b038116811461144c57600080fd5b6000806040838503121561537c57600080fd5b823561538781615354565b946020939093013593505050565b60008060008385036101e08112156153ac57600080fd5b6101a08112156153bb57600080fd5b5092946101a086013594506101c08601359350915050565b6000602082840312156153e557600080fd5b5035919050565b6001600160401b03169052565b60006020828403121561540b57600080fd5b8135612196816152fd565b6000806040838503121561542957600080fd5b50508035926020909101359150565b60006020828403121561544a57600080fd5b813561219681615354565b600061018082019050825182526020830151602083015260408301516040830152606083015161548860608401826153ec565b50608083015161549b60808401826153ec565b5060a08301516154ae60a08401826153ec565b5060c08301516154c160c08401826153ec565b5060e08301516154d460e08401826153ec565b506101008301516154e96101008401826153ec565b506101208301516154fe6101208401826153ec565b506101408301516155136101408401826153ec565b5061016092830151919092015290565b6000806040838503121561553657600080fd5b823561554181615354565b91506020830135615551816152fd565b809150509250929050565b60008060006060848603121561557157600080fd5b83359250602084013561558381615354565b9150604084013561534981615354565b806040810183101561217757600080fd5b6000806000806000806000806102c0898b0312156155c157600080fd5b6155cb8a8a615593565b97506155da8a60408b01615593565b96506155e98a60808b01615593565b955061020089018a8111156155fd57600080fd5b60c08a0195503561560d81615354565b935061022089013592506156258a6102408b01615593565b91506156358a6102808b01615593565b90509295985092959890939650565b60208082526010908201526f14185d5cd8589b194e881c185d5cd95960821b604082015260600190565b60208082526012908201527115d2125511531254d517d11254d05093115160721b604082015260600190565b6020808252600d908201526c2727aa2fab20a624a220aa27a960991b604082015260600190565b6020808252600a90820152691393d517d4d51052d15160b21b604082015260600190565b634e487b7160e01b600052601160045260246000fd5b81810381811115612177576121776156e5565b634e487b7160e01b600052602160045260246000fd5b803560048110612c7b57600080fd5b60006020828403121561574557600080fd5b61219682615724565b634e487b7160e01b600052604160045260246000fd5b604080519081016001600160401b03811182821017156157865761578661574e565b60405290565b604051601f8201601f191681016001600160401b03811182821017156157b4576157b461574e565b604052919050565b600060a082840312156157ce57600080fd5b6157d6615764565b905082601f8301126157e757600080fd5b6157f1604061578c565b80604084018581111561580357600080fd5b845b8181101561581d578035845260209384019301615805565b508184526000925085601f820112615833578283fd5b606091506158408261578c565b9150816060820187811115615853578485fd5b8083101561587857823561586681615354565b84526020938401939290920191615853565b5060208501525091949350505050565b600060a0828403121561589a57600080fd5b61219683836157bc565b6000602082840312156158b657600080fd5b8151612196816152fd565b6020808252601190820152705041555345445f414e445f41435449564560781b604082015260600190565b6000600182016158fe576158fe6156e5565b5060010190565b634e487b7160e01b600052603260045260246000fd5b80820180821115612177576121776156e5565b8082028115828204841417612177576121776156e5565b600081615954576159546156e5565b506000190190565b6020808252600790820152664e4f5f4e4f444560c81b604082015260600190565b634e487b7160e01b600052601260045260246000fd5b6000826159a2576159a261597d565b500490565b6001600160401b038181168382160190811115612177576121776156e5565b6000602082840312156159d857600080fd5b5051919050565b60006001600160401b0382166001600160401b038103615a0157615a016156e5565b60010192915050565b6001600160401b038281168282160390811115612177576121776156e5565b600060c08284031215615a3b57600080fd5b615a43615764565b9050615a4f83836157bc565b8152615a5d60a08301615724565b602082015292915050565b60006101a0828403128015615a7c57600080fd5b50604051606081016001600160401b0381118282101715615a9f57615a9f61574e565b604052615aac8484615a29565b8152615abb8460c08501615a29565b6020820152610180830135615acf81615354565b60408201529392505050565b6040818337604082016040820160005b6003811015612dfc578135615aff81615354565b6001600160401b031683526020928301929190910190600101615aeb565b60048110615b3b57634e487b7160e01b600052602160045260246000fd5b9052565b615b498282615adb565b615b5560a08201615724565b610e0060a0840182615b1d565b8581526102208101615b776020830187615b3f565b615b8760e0830160c08801615b3f565b610180860135615b9681615354565b6001600160401b03166101a08301526101c08201949094526101e08101929092526102009091015292915050565b6020808252600e908201526d1053149150511657d4d51052d15160921b604082015260600190565b634e487b7160e01b600052600160045260246000fd5b6001815b6001841115615c3d57808504811115615c2157615c216156e5565b6001841615615c2f57908102905b60019390931c928002615c06565b935093915050565b600082615c5457506001612177565b81615c6157506000612177565b8160018114615c775760028114615c8157615c9d565b6001915050612177565b60ff841115615c9257615c926156e5565b50506001821b612177565b5060208310610133831016604e8410600b8410161715615cc0575081810a612177565b615ccd6000198484615c02565b8060001904821115615ce157615ce16156e5565b029392505050565b60006121968383615c45565b600082615d0457615d0461597d565b500690565b60006001600160401b03821680615d2257615d226156e5565b6000190192915050565b634e487b7160e01b600052603160045260246000fd5b8881526102408101602082018960005b6002811015615d8057615d6d83615d6884615724565b615b1d565b6020928301929190910190600101615d52565b505050606082018860005b6002811015615db157615d9e8383615adb565b60a0928301929190910190600101615d8b565b505050615dc26101a08301886153ec565b615dd06101c08301876152f0565b615dde6101e08301866152f0565b61020082019390935261022001529695505050505050565b600060208284031215615e0857600080fd5b815161219681615354565b838152826020820152600060048310615e3c57634e487b7160e01b600052602160045260246000fd5b5060f89190911b604082015260410192915050565b83815282602082015260006040820183516020850160005b82811015615e87578151845260209384019390910190600101615e69565b509197965050505050505056feebd093d389ab57f3566918d2c379a2b4d9539e8eb95efad9d5e465457833fde6a26469706673582212206ca2d02d00fcc2f783402a661e9f2be764c96bf6d7842c831adb9b81df3fd63b64736f6c634300081a0033",
  "linkReferences": {},
  "deployedLinkReferences": {}
}