{
  "_format": "hh-sol-artifact-1",
  "contractName": "OneStepProofEntry",
  "sourceName": "src/osp/OneStepProofEntry.sol",
  "abi": [
    {
      "inputs": [
        {
          "internalType": "contract IOneStepProver",
          "name": "prover0_",
          "type": "address"
        },
        {
          "internalType": "contract IOneStepProver",
          "name": "proverMem_",
          "type": "address"
        },
        {
          "internalType": "contract IOneStepProver",
          "name": "proverMath_",
          "type": "address"
        },
        {
          "internalType": "contract IOneStepProver",
          "name": "proverHostIo_",
          "type": "address"
        }
      ],
      "stateMutability": "nonpayable",
      "type": "constructor"
    },
    {
      "inputs": [
        {
          "internalType": "enum MachineStatus",
          "name": "status",
          "type": "uint8"
        },
        {
          "internalType": "bytes32",
          "name": "globalStateHash",
          "type": "bytes32"
        }
      ],
      "name": "getEndMachineHash",
      "outputs": [
        {
          "internalType": "bytes32",
          "name": "",
          "type": "bytes32"
        }
      ],
      "stateMutability": "pure",
      "type": "function"
    },
    {
      "inputs": [
        {
          "internalType": "bytes32",
          "name": "globalStateHash",
          "type": "bytes32"
        },
        {
          "internalType": "bytes32",
          "name": "wasmModuleRoot",
          "type": "bytes32"
        }
      ],
      "name": "getStartMachineHash",
      "outputs": [
        {
          "internalType": "bytes32",
          "name": "",
          "type": "bytes32"
        }
      ],
      "stateMutability": "pure",
      "type": "function"
    },
    {
      "inputs": [
        {
          "components": [
            {
              "internalType": "uint256",
              "name": "maxInboxMessagesRead",
              "type": "uint256"
            },
            {
              "internalType": "contract IBridge",
              "name": "bridge",
              "type": "address"
            }
          ],
          "internalType": "struct ExecutionContext",
          "name": "execCtx",
          "type": "tuple"
        },
        {
          "internalType": "uint256",
          "name": "machineStep",
          "type": "uint256"
        },
        {
          "internalType": "bytes32",
          "name": "beforeHash",
          "type": "bytes32"
        },
        {
          "internalType": "bytes",
          "name": "proof",
          "type": "bytes"
        }
      ],
      "name": "proveOneStep",
      "outputs": [
        {
          "internalType": "bytes32",
          "name": "afterHash",
          "type": "bytes32"
        }
      ],
      "stateMutability": "view",
      "type": "function"
    },
    {
      "inputs": [],
      "name": "prover0",
      "outputs": [
        {
          "internalType": "contract IOneStepProver",
          "name": "",
          "type": "address"
        }
      ],
      "stateMutability": "view",
      "type": "function"
    },
    {
      "inputs": [],
      "name": "proverHostIo",
      "outputs": [
        {
          "internalType": "contract IOneStepProver",
          "name": "",
          "type": "address"
        }
      ],
      "stateMutability": "view",
      "type": "function"
    },
    {
      "inputs": [],
      "name": "proverMath",
      "outputs": [
        {
          "internalType": "contract IOneStepProver",
          "name": "",
          "type": "address"
        }
      ],
      "stateMutability": "view",
      "type": "function"
    },
    {
      "inputs": [],
      "name": "proverMem",
      "outputs": [
        {
          "internalType": "contract IOneStepProver",
          "name": "",
          "type": "address"
        }
      ],
      "stateMutability": "view",
      "type": "function"
    }
  ],
  "bytecode": "0x60806040523480156200001157600080fd5b5060405162002f4e38038062002f4e8339810160408190526200003491620000a5565b600080546001600160a01b039586166001600160a01b031991821617909155600180549486169482169490941790935560028054928516928416929092179091556003805491909316911617905562000102565b80516001600160a01b0381168114620000a057600080fd5b919050565b60008060008060808587031215620000bc57600080fd5b620000c78562000088565b9350620000d76020860162000088565b9250620000e76040860162000088565b9150620000f76060860162000088565b905092959194509250565b612e3c80620001126000396000f3fe608060405234801561001057600080fd5b506004361061006d5760003560e01c806304997be4146100725780631f128bc01461009857806330a5509f146100c35780635d3adcfb146100d65780635f52fd7c146100e957806366e5d9c3146100fc578063d8558b871461010f575b600080fd5b6100856100803660046121e7565b610122565b6040519081526020015b60405180910390f35b6001546100ab906001600160a01b031681565b6040516001600160a01b03909116815260200161008f565b6000546100ab906001600160a01b031681565b6100856100e4366004612209565b6102c8565b6003546100ab906001600160a01b031681565b6002546100ab906001600160a01b031681565b61008561011d3660046122b4565b610979565b60408051600380825260808201909252600091829190816020015b604080518082019091526000808252602082015281526020019060019003908161013d57505060408051808201825260008082526020918201819052825180840190935260048352908201529091508160008151811061019f5761019f6122f6565b60200260200101819052506101b46000610a7a565b816001815181106101c7576101c76122f6565b60200260200101819052506101dc6000610a7a565b816002815181106101ef576101ef6122f6565b6020908102919091018101919091526040805180830182528381528151808301909252808252600092820192909252610226612086565b604080518082018252606080825260006020808401829052845180860186528082018390526000198082528651610180810188528481529283018990529582018190529281018690526080810184905260a0810183905260c081018c905260e081018290526101008101829052610120810191909152610140810193909352610160830189905290916102b881610aad565b9750505050505050505b92915050565b60006102d26120a4565b6102da61215b565b6040805160208101909152606081526040805180820190915260008082526020820152600061030a888883610ceb565b90955090508861031986610aad565b146103615760405162461bcd60e51b815260206004820152601360248201527209a828690929c8abe848a8c9ea48abe9082a69606b1b60448201526064015b60405180910390fd5b6000855160038111156103765761037661230c565b146103905761038485610aad565b95505050505050610970565b650800000000006103a28b6001612338565b14156103b5576002855261038485610aad565b6103c0888883610f47565b90945090506103d088888361100b565b80925081945050508461016001516103fd8660e0015163ffffffff1686866110e59092919063ffffffff16565b146104395760405162461bcd60e51b815260206004820152600c60248201526b1353d115531154d7d493d3d560a21b6044820152606401610358565b60606104516040518060200160405280606081525090565b60408051602081019091526060815261046b8b8b86611130565b9450925061047a8b8b8661100b565b945091506104898b8b8661100b565b809550819250505060006104bf60408a61012001516104a89190612366565b63ffffffff16858561122f9092919063ffffffff16565b905060006104e38a610100015163ffffffff1683856112759092919063ffffffff16565b90508860600151811461052d5760405162461bcd60e51b815260206004820152601260248201527110905117d1955390d51253d394d7d493d3d560721b6044820152606401610358565b8460408b61012001516105409190612389565b63ffffffff1681518110610556576105566122f6565b602002602001015196505050505050878782908092610577939291906123ac565b975097505060008460e0015163ffffffff1690506001856101200181815161059f91906123d6565b63ffffffff1690525081516000602861ffff8316108015906105c65750603561ffff831611155b806105e65750603661ffff8316108015906105e65750603e61ffff831611155b806105f5575061ffff8216603f145b80610604575061ffff82166040145b1561061b57506001546001600160a01b0316610851565b61ffff821660451480610632575061ffff82166050145b806106605750604661ffff8316108015906106605750610654600960466123fe565b61ffff168261ffff1611155b8061068e5750606761ffff83161080159061068e5750610682600260676123fe565b61ffff168261ffff1611155b806106ae5750606a61ffff8316108015906106ae5750607861ffff831611155b806106dc5750605161ffff8316108015906106dc57506106d0600960516123fe565b61ffff168261ffff1611155b8061070a5750607961ffff83161080159061070a57506106fe600260796123fe565b61ffff168261ffff1611155b8061072a5750607c61ffff83161080159061072a5750608a61ffff831611155b80610739575061ffff821660a7145b80610756575061ffff821660ac1480610756575061ffff821660ad145b80610776575060c061ffff831610801590610776575060c461ffff831611155b80610796575060bc61ffff831610801590610796575060bf61ffff831611155b156107ad57506002546001600160a01b0316610851565b61801061ffff8316108015906107c9575061801361ffff831611155b806107eb575061802061ffff8316108015906107eb575061802461ffff831611155b8061080d575061803061ffff83161080159061080d575061803261ffff831611155b8061082c575061ffff8216619001148061082c575061ffff8216619002145b1561084357506003546001600160a01b0316610851565b506000546001600160a01b03165b806001600160a01b0316633604366f8e8989888f8f6040518763ffffffff1660e01b81526004016108879695949392919061255d565b60006040518083038186803b15801561089f57600080fd5b505afa1580156108b3573d6000803e3d6000fd5b505050506040513d6000823e601f3d908101601f191682016040526108db9190810190612b86565b9097509550600061ffff831661802314806108fb575061ffff8316618024145b15905080156109165761090f8685896110e5565b6101608901525b60028851600381111561092b5761092b61230c565b14801561093f575061014088015160001914155b1561095c5761094d886112ea565b6109568861136e565b50600088525b61096588610aad565b985050505050505050505b95945050505050565b6000600183600381111561098f5761098f61230c565b14156109c357816040516020016109a69190612ce0565b6040516020818303038152906040528051906020012090506102c2565b60028360038111156109d7576109d761230c565b1415610a01576040516f26b0b1b434b7329032b93937b932b21d60811b60208201526030016109a6565b6003836003811115610a1557610a1561230c565b1415610a3f576040516f26b0b1b434b732903a37b7903330b91d60811b60208201526030016109a6565b60405162461bcd60e51b815260206004820152601060248201526f4241445f424c4f434b5f53544154555360801b6044820152606401610358565b604080518082019091526000808252602082015250604080518082019091526000815263ffffffff909116602082015290565b60008082516003811115610ac357610ac361230c565b1415610be1576000610af2610adb846020015161139e565b610140850151604086015191906000191415611423565b90506000610b1d610b068560800151611516565b61014086015160a087015191906000191415611423565b9050600082610b2f866060015161139e565b60c087015160e0808901516101008a01516101208b01516101408c01516101608d01516040516f26b0b1b434b73290393ab73734b7339d60811b602082015260308101999099526050890197909752607088018a905260908801959095526001600160e01b031992841b831660b088015290831b821660b487015290911b1660b884015260bc83015260dc82015260fc0160408051601f19818403018152919052805160209091012095945050505050565b600182516003811115610bf657610bf661230c565b1415610c2e578160c00151604051602001610c119190612ce0565b604051602081830303815290604052805190602001209050919050565b600282516003811115610c4357610c4361230c565b1415610c6d576040516f26b0b1b434b7329032b93937b932b21d60811b6020820152603001610c11565b600382516003811115610c8257610c8261230c565b1415610cac576040516f26b0b1b434b732903a37b7903330b91d60811b6020820152603001610c11565b60405162461bcd60e51b815260206004820152600f60248201526e4241445f4d4143485f53544154555360881b6044820152606401610358565b919050565b610cf36120a4565b81600080610d028787856115af565b9350905060ff8116610d175760009150610d94565b8060ff1660011415610d2c5760019150610d94565b8060ff1660021415610d415760029150610d94565b8060ff1660031415610d565760039150610d94565b60405162461bcd60e51b8152602060048201526013602482015272554e4b4e4f574e5f4d4143485f53544154555360681b6044820152606401610358565b50610d9d612086565b610da5612086565b60408051808201909152600080825260208201526040805180820190915260608152600060208201526040805180820190915260008082526020820152610ded8b8b896115e5565b97509450610dfc8b8b896116e4565b97509250610e0b8b8b896115e5565b97509350610e1a8b8b8961173a565b97509150610e298b8b896116e4565b8098508192505050604051806101800160405280876003811115610e4f57610e4f61230c565b8152602081019690965260408601939093526060850193909352608084015260a0830191909152600060c0830181905260e08301819052610100830181905261012083018190526101408301819052610160909201919091529250610eb79050858583611862565b60c08401919091529050610ecc85858361187e565b63ffffffff90911660e08401529050610ee685858361187e565b63ffffffff9091166101008401529050610f0185858361187e565b63ffffffff9091166101208401529050610f1c858583611862565b6101408401919091529050610f32858583611862565b61016084019190915291959194509092505050565b610f4f61215b565b60408051606081018252600080825260208201819052918101829052839190600080600080610f7f8b8b89611862565b97509550610f8e8b8b896118e2565b97509450610f9d8b8b89611862565b97509350610fac8b8b89611862565b97509250610fbb8b8b89611862565b97509150610fca8b8b8961187e565b6040805160c081018252988952602089019790975295870194909452506060850191909152608084015263ffffffff1660a083015290969095509350505050565b6040805160208101909152606081528160006110288686846115af565b92509050600060ff82166001600160401b03811115611049576110496122e0565b604051908082528060200260200182016040528015611072578160200160208202803683370190505b50905060005b8260ff168160ff1610156110c957611091888886611862565b838360ff16815181106110a6576110a66122f6565b6020026020010181965082815250505080806110c190612d05565b915050611078565b5060405180602001604052808281525093505050935093915050565b600061112684846110f58561195d565b6040518060400160405280601381526020017226b7b23ab6329036b2b935b632903a3932b29d60691b8152506119d9565b90505b9392505050565b60608160006111408686846115af565b9250905060ff81166001600160401b0381111561115f5761115f6122e0565b6040519080825280602002602001820160405280156111a457816020015b604080518082019091526000808252602082015281526020019060019003908161117d5790505b50925060005b8160ff16811015611225576000806111c3898987611aeb565b955091506111d2898987611b44565b809650819250505060405180604001604052808361ffff16815260200182815250868481518110611205576112056122f6565b60200260200101819052505050808061121d90612d25565b9150506111aa565b5050935093915050565b6000611126848461123f85611b99565b6040518060400160405280601881526020017724b739ba393ab1ba34b7b71036b2b935b632903a3932b29d60411b8152506119d9565b60405168233ab731ba34b7b71d60b91b602082015260298101829052600090819060490160405160208183030381529060405280519060200120905061097085858360405180604001604052806015815260200174233ab731ba34b7b71036b2b935b632903a3932b29d60591b8152506119d9565b60408101515160a082015151600019811480611307575060001982145b1561131457505060029052565b6113218360800151611516565b60a08401515260208301516113359061139e565b60408401515260808301516113509082602082015260609052565b50602091820151808301919091526040805192830190526060825252565b60006113828283610140015160001c611d38565b61138e57506000919050565b5060001961014090910152600190565b60208101518151515160005b8181101561141c5783516113c7906113c29083611d7a565b611db2565b6040516b2b30b63ab29039ba30b1b59d60a11b6020820152602c810191909152604c8101849052606c01604051602081830303815290604052805190602001209250808061141490612d25565b9150506113aa565b5050919050565b60006000198314156114735760405162461bcd60e51b81526020600482015260196024820152784d554c5449535441434b5f4e4f535441434b5f41435449564560381b6044820152606401610358565b81156114fc57835160001914156114c65760405162461bcd60e51b815260206004820152601760248201527626aaa62a24a9aa20a1a5afa727a9aa20a1a5afa6a0a4a760491b6044820152606401610358565b83516020808601516040516114df939287929101612d40565b604051602081830303815290604052805190602001209050611129565b83516020808601516040516114df93879390929101612d40565b602081015160005b8251518110156115a95761154e83600001518281518110611541576115416122f6565b6020026020010151611dcf565b6040517129ba30b1b590333930b6b29039ba30b1b59d60711b602082015260328101919091526052810183905260720160405160208183030381529060405280519060200120915080806115a190612d25565b91505061151e565b50919050565b6000818484828181106115c4576115c46122f6565b919091013560f81c92508190506115da81612d25565b915050935093915050565b6115ed612086565b8160006115fb868684611862565b92509050600061160c878785611b44565b935090506000816001600160401b0381111561162a5761162a6122e0565b60405190808252806020026020018201604052801561166f57816020015b60408051808201909152600080825260208201528152602001906001900390816116485790505b50905060005b81518110156116bd57611689898987611e3f565b83838151811061169b5761169b6122f6565b60200260200101819750829052505080806116b590612d25565b915050611675565b50604080516060810182529081019182529081526020810192909252509590945092505050565b6040805180820190915260008082526020820152816000611706868684611862565b925090506000611717878785611862565b604080518082019091529384526020840191909152919791965090945050505050565b60408051808201909152606081526000602082015281600061175d868684611862565b925090506060868684818110611775576117756122f6565b909101356001600160f81b0319161590506117fd578261179481612d25565b604080516001808252818301909252919550909150816020015b6117b66121b3565b8152602001906001900390816117ae5790505090506117d6878785611f3b565b826000815181106117e9576117e96122f6565b602002602001018195508290525050611841565b8261180781612d25565b6040805160008082526020820190925291955090915061183d565b61182a6121b3565b8152602001906001900390816118225790505b5090505b60405180604001604052808281526020018381525093505050935093915050565b60008181611871868684611b44565b9097909650945050505050565b600081815b60048110156118d95760088363ffffffff16901b92508585838181106118ab576118ab6122f6565b919091013560f81c939093179250816118c381612d25565b92505080806118d190612d25565b915050611883565b50935093915050565b6040805160608101825260008082526020820181905291810191909152816000808061190f888886611fd4565b9450925061191e888886611fd4565b9450915061192d888886611862565b604080516060810182526001600160401b0396871681529490951660208501529383015250969095509350505050565b600081600001516119718360200151612032565b6040808501516060860151608087015160a08801519351610c11969594906020016626b7b23ab6329d60c91b81526007810196909652602786019490945260478501929092526067840152608783015260e01b6001600160e01b03191660a782015260ab0190565b8160005b855151811015611aa25760018516611a3e57828287600001518381518110611a0757611a076122f6565b6020026020010151604051602001611a2193929190612d6c565b604051602081830303815290604052805190602001209150611a89565b8286600001518281518110611a5557611a556122f6565b602002602001015183604051602001611a7093929190612d6c565b6040516020818303038152906040528051906020012091505b60019490941c9380611a9a81612d25565b9150506119dd565b508315611ae35760405162461bcd60e51b815260206004820152600f60248201526e141493d3d197d513d3d7d4d213d495608a1b6044820152606401610358565b949350505050565b600081815b60028110156118d95760088361ffff16901b9250858583818110611b1657611b166122f6565b919091013560f81c93909317925081611b2e81612d25565b9250508080611b3c90612d25565b915050611af0565b600081815b60208110156118d957600883901b9250858583818110611b6b57611b6b6122f6565b919091013560f81c93909317925081611b8381612d25565b9250508080611b9190612d25565b915050611b49565b60008082516022611baa9190612db2565b611bb590600e612338565b6001600160401b03811115611bcc57611bcc6122e0565b6040519080825280601f01601f191660200182016040528015611bf6576020820181803683370190505b5090506c24b739ba393ab1ba34b7b7399d60991b60208201526000600d9050835160f81b828281518110611c2c57611c2c6122f6565b60200101906001600160f81b031916908160001a90535080611c4d81612d25565b91505060005b8451811015611d28576000858281518110611c7057611c706122f6565b602002602001015190506008816000015161ffff16901c60f81b848481518110611c9c57611c9c6122f6565b60200101906001600160f81b031916908160001a905350805160f81b84611cc4856001612338565b81518110611cd457611cd46122f6565b60200101906001600160f81b031916908160001a905350611cf6600284612338565b6020808301518683018201819052919450611d119085612338565b935050508080611d2090612d25565b915050611c53565b5050805160209091012092915050565b6000606082901c15611d4c575060006102c2565b5063ffffffff818116610120840152602082901c811661010084015260409190911c1660e090910152600190565b60408051808201909152600080825260208201528251805183908110611da257611da26122f6565b6020026020010151905092915050565b600081600001518260200151604051602001610c11929190612dd1565b6000611dde8260000151611db2565b602080840151604080860151606087015191516b29ba30b1b590333930b6b29d60a11b94810194909452602c840194909452604c8301919091526001600160e01b031960e093841b8116606c840152921b9091166070820152607401610c11565b6040805180820190915260008082526020820152816000858583818110611e6857611e686122f6565b919091013560f81c9150829050611e7e81612d25565b925050611e89600690565b6006811115611e9a57611e9a61230c565b60ff168160ff161115611ee05760405162461bcd60e51b815260206004820152600e60248201526d4241445f56414c55455f5459504560901b6044820152606401610358565b6000611eed878785611b44565b809450819250505060405180604001604052808360ff166006811115611f1557611f1561230c565b6006811115611f2657611f2661230c565b81526020018281525093505050935093915050565b611f436121b3565b81611f5e604080518082019091526000808252602082015290565b6000806000611f6e898987611e3f565b95509350611f7d898987611862565b95509250611f8c89898761187e565b95509150611f9b89898761187e565b60408051608081018252968752602087019590955263ffffffff9384169486019490945290911660608401525090969095509350505050565b600081815b60088110156118d9576008836001600160401b0316901b9250858583818110612004576120046122f6565b919091013560f81c9390931792508161201c81612d25565b925050808061202a90612d25565b915050611fd9565b805160208083015160408085015190516626b2b6b7b93c9d60c91b938101939093526001600160c01b031960c094851b811660278501529190931b16602f8201526037810191909152600090605701610c11565b60408051606080820183529181019182529081526000602082015290565b60408051610180810190915280600081526020016120c0612086565b81526020016120df604080518082019091526000808252602082015290565b81526020016120ec612086565b815260200161210c60408051808201909152606081526000602082015290565b815260200161212b604080518082019091526000808252602082015290565b815260006020820181905260408201819052606082018190526080820181905260a0820181905260c09091015290565b6040805160c081019091526000815260208101612191604080516060810182526000808252602082018190529181019190915290565b8152600060208201819052604082018190526060820181905260809091015290565b6040805160c08101825260006080820181815260a08301829052825260208201819052918101829052606081019190915290565b600080604083850312156121fa57600080fd5b50508035926020909101359150565b600080600080600085870360a081121561222257600080fd5b604081121561223057600080fd5b50859450604086013593506060860135925060808601356001600160401b038082111561225c57600080fd5b818801915088601f83011261227057600080fd5b81358181111561227f57600080fd5b89602082850101111561229157600080fd5b9699959850939650602001949392505050565b600481106122b157600080fd5b50565b600080604083850312156122c757600080fd5b82356122d2816122a4565b946020939093013593505050565b634e487b7160e01b600052604160045260246000fd5b634e487b7160e01b600052603260045260246000fd5b634e487b7160e01b600052602160045260246000fd5b634e487b7160e01b600052601160045260246000fd5b6000821982111561234b5761234b612322565b500190565b634e487b7160e01b600052601260045260246000fd5b600063ffffffff8084168061237d5761237d612350565b92169190910492915050565b600063ffffffff808416806123a0576123a0612350565b92169190910692915050565b600080858511156123bc57600080fd5b838611156123c957600080fd5b5050820193919092039150565b600063ffffffff8083168185168083038211156123f5576123f5612322565b01949350505050565b600061ffff8083168185168083038211156123f5576123f5612322565b6004811061242b5761242b61230c565b9052565b8051600781106124415761244161230c565b8252602090810151910152565b805160408084529051602084830181905281516060860181905260009392820191849160808801905b8084101561249e5761248a82865161242f565b938201936001939093019290850190612477565b509581015196019590955250919392505050565b8051604080845281518482018190526000926060916020918201918388019190865b8281101561251d5784516124e985825161242f565b80830151858901528781015163ffffffff90811688870152908701511660808501529381019360a0909301926001016124d4565b509687015197909601969096525093949350505050565b81835281816020850137506000828201602090810191909152601f909101601f19169091010190565b8635815260006101c060208901356001600160a01b03811680821461258157600080fd5b806020860152505080604084015261259c818401895161241b565b6020880151816101e08501526125b661038085018261244e565b91505060408801516125d661020085018280518252602090810151910152565b5060608801516101bf1980858403016102408601526125f5838361244e565b925060808a0151915080858403016102608601525061261482826124b2565b91505060a088015161263461028085018280518252602090810151910152565b5060c08801516102c084015260e088015163ffffffff81166102e08501525061010088015163ffffffff81166103008501525061012088015163ffffffff8116610320850152506101408801516103408401526101608089015161036085015261270060608501898051825260208101516001600160401b0380825116602085015280602083015116604085015250604081015160608401525060408101516080830152606081015160a0830152608081015160c083015263ffffffff60a08201511660e08301525050565b61271a81850188805161ffff168252602090810151910152565b508281036101a084015261272f818587612534565b9998505050505050505050565b604080519081016001600160401b038111828210171561275e5761275e6122e0565b60405290565b604051602081016001600160401b038111828210171561275e5761275e6122e0565b604051608081016001600160401b038111828210171561275e5761275e6122e0565b60405160c081016001600160401b038111828210171561275e5761275e6122e0565b604051606081016001600160401b038111828210171561275e5761275e6122e0565b60405161018081016001600160401b038111828210171561275e5761275e6122e0565b604051601f8201601f191681016001600160401b0381118282101715612837576128376122e0565b604052919050565b8051610ce6816122a4565b60006001600160401b03821115612863576128636122e0565b5060051b60200190565b60006040828403121561287f57600080fd5b61288761273c565b905081516007811061289857600080fd5b808252506020820151602082015292915050565b600060408083850312156128bf57600080fd5b6128c761273c565b915082516001600160401b03808211156128e057600080fd5b818501915060208083880312156128f657600080fd5b6128fe612764565b83518381111561290d57600080fd5b80850194505087601f85011261292257600080fd5b835192506129376129328461284a565b61280f565b83815260069390931b8401820192828101908985111561295657600080fd5b948301945b8486101561297c5761296d8a8761286d565b8252948601949083019061295b565b8252508552948501519484019490945250909392505050565b6000604082840312156129a757600080fd5b6129af61273c565b9050815181526020820151602082015292915050565b805163ffffffff81168114610ce657600080fd5b600060408083850312156129ec57600080fd5b6129f461273c565b915082516001600160401b03811115612a0c57600080fd5b8301601f81018513612a1d57600080fd5b80516020612a2d6129328361284a565b82815260a09283028401820192828201919089851115612a4c57600080fd5b948301945b84861015612ab55780868b031215612a695760008081fd5b612a71612786565b612a7b8b8861286d565b815287870151858201526060612a928189016129c5565b89830152612aa2608089016129c5565b9082015283529485019491830191612a51565b50808752505080860151818601525050505092915050565b80516001600160401b0381168114610ce657600080fd5b6000818303610100811215612af857600080fd5b612b006127a8565b8351815291506060601f1982011215612b1857600080fd5b50612b216127ca565b612b2d60208401612acd565b8152612b3b60408401612acd565b602082015260608301516040820152806020830152506080820151604082015260a0820151606082015260c08201516080820152612b7b60e083016129c5565b60a082015292915050565b600080610120808486031215612b9b57600080fd5b83516001600160401b0380821115612bb257600080fd5b908501906101c08288031215612bc757600080fd5b612bcf6127ec565b612bd88361283f565b8152602083015182811115612bec57600080fd5b612bf8898286016128ac565b602083015250612c0b8860408501612995565b6040820152608083015182811115612c2257600080fd5b612c2e898286016128ac565b60608301525060a083015182811115612c4657600080fd5b612c52898286016129d9565b608083015250612c658860c08501612995565b60a082015261010091508183015160c0820152612c838484016129c5565b60e0820152610140612c968185016129c5565b838301526101609250612caa8385016129c5565b8583015261018084015181830152506101a08301518282015280955050505050612cd78460208501612ae4565b90509250929050565b7026b0b1b434b732903334b734b9b432b21d60791b8152601181019190915260310190565b600060ff821660ff811415612d1c57612d1c612322565b60010192915050565b6000600019821415612d3957612d39612322565b5060010190565b6a36bab63a34b9ba30b1b59d60a91b8152600b810193909352602b830191909152604b820152606b0190565b6000845160005b81811015612d8d5760208188018101518583015201612d73565b81811115612d9c576000828501525b5091909101928352506020820152604001919050565b6000816000190483118215151615612dcc57612dcc612322565b500290565b652b30b63ab29d60d11b8152600060078410612def57612def61230c565b5060f89290921b600683015260078201526027019056fea2646970667358221220de706471922039d5340c14f0413a282b76c449dac03ed151a00f9df486c975d964736f6c63430008090033",
  "linkReferences": {},
  "deployedLinkReferences": {}
}