{
  "_format": "hh-sol-artifact-1",
  "contractName": "MockResultReceiver",
  "sourceName": "src/mocks/MockResultReceiver.sol",
  "abi": [
    {
      "inputs": [
        {
          "internalType": "contract IChallengeManager",
          "name": "manager_",
          "type": "address"
        }
      ],
      "stateMutability": "nonpayable",
      "type": "constructor"
    },
    {
      "anonymous": false,
      "inputs": [
        {
          "indexed": true,
          "internalType": "uint256",
          "name": "challengeIndex",
          "type": "uint256"
        },
        {
          "indexed": true,
          "internalType": "address",
          "name": "winner",
          "type": "address"
        },
        {
          "indexed": true,
          "internalType": "address",
          "name": "loser",
          "type": "address"
        }
      ],
      "name": "ChallengeCompleted",
      "type": "event"
    },
    {
      "inputs": [],
      "name": "challengeIndex",
      "outputs": [
        {
          "internalType": "uint256",
          "name": "",
          "type": "uint256"
        }
      ],
      "stateMutability": "view",
      "type": "function"
    },
    {
      "inputs": [
        {
          "internalType": "uint256",
          "name": "challengeIndex_",
          "type": "uint256"
        },
        {
          "internalType": "address",
          "name": "winner_",
          "type": "address"
        },
        {
          "internalType": "address",
          "name": "loser_",
          "type": "address"
        }
      ],
      "name": "completeChallenge",
      "outputs": [],
      "stateMutability": "nonpayable",
      "type": "function"
    },
    {
      "inputs": [
        {
          "internalType": "bytes32",
          "name": "wasmModuleRoot_",
          "type": "bytes32"
        },
        {
          "internalType": "enum MachineStatus[2]",
          "name": "startAndEndMachineStatuses_",
          "type": "uint8[2]"
        },
        {
          "components": [
            {
              "internalType": "bytes32[2]",
              "name": "bytes32Vals",
              "type": "bytes32[2]"
            },
            {
              "internalType": "uint64[3]",
              "name": "u64Vals",
              "type": "uint64[3]"
            }
          ],
          "internalType": "struct GlobalState[2]",
          "name": "startAndEndGlobalStates_",
          "type": "tuple[2]"
        },
        {
          "internalType": "uint64",
          "name": "numBlocks",
          "type": "uint64"
        },
        {
          "internalType": "address",
          "name": "asserter_",
          "type": "address"
        },
        {
          "internalType": "address",
          "name": "challenger_",
          "type": "address"
        },
        {
          "internalType": "uint256",
          "name": "asserterTimeLeft_",
          "type": "uint256"
        },
        {
          "internalType": "uint256",
          "name": "challengerTimeLeft_",
          "type": "uint256"
        }
      ],
      "name": "createChallenge",
      "outputs": [
        {
          "internalType": "uint64",
          "name": "",
          "type": "uint64"
        }
      ],
      "stateMutability": "nonpayable",
      "type": "function"
    },
    {
      "inputs": [],
      "name": "loser",
      "outputs": [
        {
          "internalType": "address",
          "name": "",
          "type": "address"
        }
      ],
      "stateMutability": "view",
      "type": "function"
    },
    {
      "inputs": [],
      "name": "manager",
      "outputs": [
        {
          "internalType": "contract IChallengeManager",
          "name": "",
          "type": "address"
        }
      ],
      "stateMutability": "view",
      "type": "function"
    },
    {
      "inputs": [],
      "name": "winner",
      "outputs": [
        {
          "internalType": "address",
          "name": "",
          "type": "address"
        }
      ],
      "stateMutability": "view",
      "type": "function"
    }
  ],
  "bytecode": "0x608060405234801561001057600080fd5b5060405161050938038061050983398101604081905261002f91610054565b600080546001600160a01b0319166001600160a01b0392909216919091179055610084565b60006020828403121561006657600080fd5b81516001600160a01b038116811461007d57600080fd5b9392505050565b610476806100936000396000f3fe608060405234801561001057600080fd5b50600436106100625760003560e01c80630357aa4914610067578063481c6a751461007c5780639f799f34146100ac578063d6853748146100d8578063dfbf53ae146100ef578063e82898b314610102575b600080fd5b61007a610075366004610235565b610115565b005b60005461008f906001600160a01b031681565b6040516001600160a01b0390911681526020015b60405180910390f35b6100bf6100ba36600461028a565b61017b565b60405167ffffffffffffffff90911681526020016100a3565b6100e160035481565b6040519081526020016100a3565b60015461008f906001600160a01b031681565b60025461008f906001600160a01b031681565b600180546001600160a01b03199081166001600160a01b0385811691821790935560028054909216928416928317909155600385905560405185907f88cb1f3fe351f3ac338db9c36bff1ece1750423c7ae6dfc427cd194b1c69b12790600090a4505050565b600080546040516327de67cd60e21b81526001600160a01b0390911690639f799f34906101ba908c908c908c908c908c908c908c908c9060040161038f565b602060405180830381600087803b1580156101d457600080fd5b505af11580156101e8573d6000803e3d6000fd5b505050506040513d601f19601f8201168201806040525081019061020c919061041c565b9998505050505050505050565b80356001600160a01b038116811461023057600080fd5b919050565b60008060006060848603121561024a57600080fd5b8335925061025a60208501610219565b915061026860408501610219565b90509250925092565b67ffffffffffffffff8116811461028757600080fd5b50565b600080600080600080600080610240898b0312156102a757600080fd5b88359750606089018a8111156102bc57600080fd5b60208a0197506101a08a018b8111156102d457600080fd5b909650356102e181610271565b94506102f06101c08a01610219565b93506102ff6101e08a01610219565b9250610200890135915061022089013590509295985092959890939650565b806000805b6002811015610388576040808487378581018381529084019083905b600382101561037257823561035381610271565b67ffffffffffffffff168152602092830192600192909201910161033f565b50505060a0948501949290920191600101610323565b5050505050565b888152610240810160208083018a6000805b60028110156103ca578235600481106103b8578283fd5b845292840192918401916001016103a1565b50505050506103dc606083018961031e565b67ffffffffffffffff969096166101a08201526001600160a01b039485166101c0820152929093166101e083015261020082015261022001529392505050565b60006020828403121561042e57600080fd5b815161043981610271565b939250505056fea26469706673582212203089319ed5faddacd02006cec621582e8ddc967a85590d2a8b34622211f0472664736f6c63430008090033",
  "linkReferences": {},
  "deployedLinkReferences": {}
}